{
  "_format": "hh-sol-artifact-1",
  "contractName": "GNFTMarket",
  "sourceName": "contracts/GNFTMarket.sol",
  "abi": [
    {
      "inputs": [],
      "stateMutability": "nonpayable",
      "type": "constructor"
    },
    {
      "anonymous": false,
      "inputs": [
        {
          "indexed": true,
          "internalType": "uint256",
          "name": "itemId",
          "type": "uint256"
        },
        {
          "indexed": true,
          "internalType": "address",
          "name": "tokenContract",
          "type": "address"
        },
        {
          "indexed": true,
          "internalType": "uint256",
          "name": "tokenId",
          "type": "uint256"
        },
        {
          "indexed": false,
          "internalType": "address",
          "name": "creator",
          "type": "address"
        },
        {
          "indexed": false,
          "internalType": "address",
          "name": "seller",
          "type": "address"
        },
        {
          "indexed": false,
          "internalType": "address",
          "name": "owner",
          "type": "address"
        },
        {
          "indexed": false,
          "internalType": "uint256",
          "name": "price",
          "type": "uint256"
        },
        {
          "indexed": false,
          "internalType": "bool",
          "name": "",
          "type": "bool"
        }
      ],
      "name": "ItemCreated",
      "type": "event"
    },
    {
      "anonymous": false,
      "inputs": [
        {
          "indexed": true,
          "internalType": "address",
          "name": "previousOwner",
          "type": "address"
        },
        {
          "indexed": true,
          "internalType": "address",
          "name": "newOwner",
          "type": "address"
        }
      ],
      "name": "OwnershipTransferred",
      "type": "event"
    },
    {
      "inputs": [
        {
          "internalType": "uint256",
          "name": "itemId",
          "type": "uint256"
        }
      ],
      "name": "cancelSell",
      "outputs": [],
      "stateMutability": "nonpayable",
      "type": "function"
    },
    {
      "inputs": [],
      "name": "cashOut",
      "outputs": [],
      "stateMutability": "nonpayable",
      "type": "function"
    },
    {
      "inputs": [
        {
          "internalType": "uint256",
          "name": "tokenId",
          "type": "uint256"
        }
      ],
      "name": "getGNFTItem",
      "outputs": [
        {
          "components": [
            {
              "internalType": "uint256",
              "name": "itemId",
              "type": "uint256"
            },
            {
              "internalType": "address",
              "name": "tokenContract",
              "type": "address"
            },
            {
              "internalType": "uint256",
              "name": "tokenId",
              "type": "uint256"
            },
            {
              "internalType": "address",
              "name": "creator",
              "type": "address"
            },
            {
              "internalType": "address",
              "name": "seller",
              "type": "address"
            },
            {
              "internalType": "address",
              "name": "owner",
              "type": "address"
            },
            {
              "internalType": "uint256",
              "name": "price",
              "type": "uint256"
            },
            {
              "internalType": "bool",
              "name": "sold",
              "type": "bool"
            }
          ],
          "internalType": "struct GNFTMarket.Item",
          "name": "",
          "type": "tuple"
        }
      ],
      "stateMutability": "view",
      "type": "function"
    },
    {
      "inputs": [],
      "name": "getItems",
      "outputs": [
        {
          "components": [
            {
              "internalType": "uint256",
              "name": "itemId",
              "type": "uint256"
            },
            {
              "internalType": "address",
              "name": "tokenContract",
              "type": "address"
            },
            {
              "internalType": "uint256",
              "name": "tokenId",
              "type": "uint256"
            },
            {
              "internalType": "address",
              "name": "creator",
              "type": "address"
            },
            {
              "internalType": "address",
              "name": "seller",
              "type": "address"
            },
            {
              "internalType": "address",
              "name": "owner",
              "type": "address"
            },
            {
              "internalType": "uint256",
              "name": "price",
              "type": "uint256"
            },
            {
              "internalType": "bool",
              "name": "sold",
              "type": "bool"
            }
          ],
          "internalType": "struct GNFTMarket.Item[]",
          "name": "",
          "type": "tuple[]"
        }
      ],
      "stateMutability": "view",
      "type": "function"
    },
    {
      "inputs": [],
      "name": "getMarketOwner",
      "outputs": [
        {
          "internalType": "address",
          "name": "",
          "type": "address"
        }
      ],
      "stateMutability": "view",
      "type": "function"
    },
    {
      "inputs": [
        {
          "internalType": "uint256",
          "name": "pageSize",
          "type": "uint256"
        },
        {
          "internalType": "uint256",
          "name": "page",
          "type": "uint256"
        }
      ],
      "name": "getPaginatedItems",
      "outputs": [
        {
          "components": [
            {
              "internalType": "uint256",
              "name": "itemId",
              "type": "uint256"
            },
            {
              "internalType": "address",
              "name": "tokenContract",
              "type": "address"
            },
            {
              "internalType": "uint256",
              "name": "tokenId",
              "type": "uint256"
            },
            {
              "internalType": "address",
              "name": "creator",
              "type": "address"
            },
            {
              "internalType": "address",
              "name": "seller",
              "type": "address"
            },
            {
              "internalType": "address",
              "name": "owner",
              "type": "address"
            },
            {
              "internalType": "uint256",
              "name": "price",
              "type": "uint256"
            },
            {
              "internalType": "bool",
              "name": "sold",
              "type": "bool"
            }
          ],
          "internalType": "struct GNFTMarket.Item[]",
          "name": "",
          "type": "tuple[]"
        }
      ],
      "stateMutability": "view",
      "type": "function"
    },
    {
      "inputs": [],
      "name": "getTotalUnsoldItems",
      "outputs": [
        {
          "internalType": "uint256",
          "name": "",
          "type": "uint256"
        }
      ],
      "stateMutability": "view",
      "type": "function"
    },
    {
      "inputs": [
        {
          "internalType": "uint256",
          "name": "idx",
          "type": "uint256"
        }
      ],
      "name": "getUnsoldItemByIndex",
      "outputs": [
        {
          "internalType": "uint256",
          "name": "",
          "type": "uint256"
        }
      ],
      "stateMutability": "view",
      "type": "function"
    },
    {
      "inputs": [
        {
          "internalType": "address",
          "name": "tokenContract",
          "type": "address"
        },
        {
          "internalType": "uint256",
          "name": "tokenId",
          "type": "uint256"
        },
        {
          "internalType": "uint256",
          "name": "price",
          "type": "uint256"
        }
      ],
      "name": "listItem",
      "outputs": [],
      "stateMutability": "nonpayable",
      "type": "function"
    },
    {
      "inputs": [],
      "name": "owner",
      "outputs": [
        {
          "internalType": "address",
          "name": "",
          "type": "address"
        }
      ],
      "stateMutability": "view",
      "type": "function"
    },
    {
      "inputs": [
        {
          "internalType": "uint256",
          "name": "itemId",
          "type": "uint256"
        }
      ],
      "name": "purchaseItem",
      "outputs": [],
      "stateMutability": "payable",
      "type": "function"
    },
    {
      "inputs": [],
      "name": "renounceOwnership",
      "outputs": [],
      "stateMutability": "nonpayable",
      "type": "function"
    },
    {
      "inputs": [
        {
          "internalType": "address",
          "name": "newOwner",
          "type": "address"
        }
      ],
      "name": "transferOwnership",
      "outputs": [],
      "stateMutability": "nonpayable",
      "type": "function"
    }
  ],
  "bytecode": "0x60806040523480156200001157600080fd5b5060016000819055506200003a6200002e6200004060201b60201c565b6200004860201b60201c565b6200010e565b600033905090565b6000600160009054906101000a900473ffffffffffffffffffffffffffffffffffffffff16905081600160006101000a81548173ffffffffffffffffffffffffffffffffffffffff021916908373ffffffffffffffffffffffffffffffffffffffff1602179055508173ffffffffffffffffffffffffffffffffffffffff168173ffffffffffffffffffffffffffffffffffffffff167f8be0079c531659141344cd1fd0a4f28419497f9722a3daafe3b4186f6b6457e060405160405180910390a35050565b612e8e806200011e6000396000f3fe6080604052600436106100c25760003560e01c80638966dcc21161007f5780639c9a6a44116100595780639c9a6a4414610242578063d38ea5bf1461027f578063e20f807b1461029b578063f2fde38b146102c6576100c2565b80638966dcc2146101b157806389bfd38f146101ee5780638da5cb5b14610217576100c2565b806307c9cd45146100c757806325f49148146100f0578063410d59cc1461012d578063451e9cf014610158578063715018a614610183578063793cd71e1461019a575b600080fd5b3480156100d357600080fd5b506100ee60048036038101906100e991906120ba565b6102ef565b005b3480156100fc57600080fd5b50610117600480360381019061011291906120e3565b610600565b60405161012491906125e6565b60405180910390f35b34801561013957600080fd5b50610142610a2a565b60405161014f91906125e6565b60405180910390f35b34801561016457600080fd5b5061016d610d53565b60405161017a9190612541565b60405180910390f35b34801561018f57600080fd5b50610198610d62565b005b3480156101a657600080fd5b506101af610dea565b005b3480156101bd57600080fd5b506101d860048036038101906101d391906120ba565b610eb6565b6040516101e591906127e8565b60405180910390f35b3480156101fa57600080fd5b506102156004803603810190610210919061206b565b61113c565b005b34801561022357600080fd5b5061022c6116b1565b6040516102399190612541565b60405180910390f35b34801561024e57600080fd5b50610269600480360381019061026491906120ba565b6116db565b6040516102769190612804565b60405180910390f35b610299600480360381019061029491906120ba565b61175c565b005b3480156102a757600080fd5b506102b0611c5f565b6040516102bd9190612804565b60405180910390f35b3480156102d257600080fd5b506102ed60048036038101906102e89190612019565b611c84565b005b60026000541415610335576040517f08c379a000000000000000000000000000000000000000000000000000000000815260040161032c906127c8565b60405180910390fd5b60026000819055506103476002611d7c565b811115610389576040517f08c379a0000000000000000000000000000000000000000000000000000000008152600401610380906126a8565b60405180910390fd5b6004600082815260200190815260200160002060070160009054906101000a900460ff16156103ed576040517f08c379a00000000000000000000000000000000000000000000000000000000081526004016103e490612768565b60405180910390fd5b60006004600083815260200190815260200160002060040160009054906101000a900473ffffffffffffffffffffffffffffffffffffffff1690508073ffffffffffffffffffffffffffffffffffffffff163373ffffffffffffffffffffffffffffffffffffffff1614610496576040517f08c379a000000000000000000000000000000000000000000000000000000000815260040161048d906127a8565b60405180910390fd5b60006004600084815260200190815260200160002060020154905060006004600085815260200190815260200160002060010160009054906101000a900473ffffffffffffffffffffffffffffffffffffffff1690508073ffffffffffffffffffffffffffffffffffffffff166323b872dd3033856040518463ffffffff1660e01b8152600401610529939291906125af565b600060405180830381600087803b15801561054357600080fd5b505af1158015610557573d6000803e3d6000fd5b50505050336004600086815260200190815260200160002060050160006101000a81548173ffffffffffffffffffffffffffffffffffffffff021916908373ffffffffffffffffffffffffffffffffffffffff16021790555060016004600086815260200190815260200160002060070160006101000a81548160ff0219169083151502179055506105e96003611d8a565b6105f284611da0565b505050600160008190555050565b60606000831180156106125750606583105b610651576040517f08c379a000000000000000000000000000000000000000000000000000000000815260040161064890612628565b60405180910390fd5b60008211801561067e5750610664611c5f565b83600184610672919061294a565b61067c91906128f0565b105b6106bd576040517f08c379a00000000000000000000000000000000000000000000000000000000081526004016106b4906126e8565b60405180910390fd5b6000836001846106cd919061294a565b6106d791906128f0565b90506000600185836106e99190612869565b6106f3919061294a565b60016106fd611c5f565b610707919061294a565b10610729576001858361071a9190612869565b610724919061294a565b61073e565b6001610733611c5f565b61073d919061294a565b5b9050600060018383610750919061294a565b61075a9190612869565b905060008167ffffffffffffffff81111561079e577f4e487b7100000000000000000000000000000000000000000000000000000000600052604160045260246000fd5b6040519080825280602002602001820160405280156107d757816020015b6107c4611f3b565b8152602001906001900390816107bc5790505b50905060005b82811015610a1c5760006108126001896107f7919061294a565b8a61080291906128f0565b8361080d9190612869565b6116db565b90506004600082815260200190815260200160002060405180610100016040529081600082015481526020016001820160009054906101000a900473ffffffffffffffffffffffffffffffffffffffff1673ffffffffffffffffffffffffffffffffffffffff1673ffffffffffffffffffffffffffffffffffffffff168152602001600282015481526020016003820160009054906101000a900473ffffffffffffffffffffffffffffffffffffffff1673ffffffffffffffffffffffffffffffffffffffff1673ffffffffffffffffffffffffffffffffffffffff1681526020016004820160009054906101000a900473ffffffffffffffffffffffffffffffffffffffff1673ffffffffffffffffffffffffffffffffffffffff1673ffffffffffffffffffffffffffffffffffffffff1681526020016005820160009054906101000a900473ffffffffffffffffffffffffffffffffffffffff1673ffffffffffffffffffffffffffffffffffffffff1673ffffffffffffffffffffffffffffffffffffffff168152602001600682015481526020016007820160009054906101000a900460ff1615151515815250508383815181106109fd577f4e487b7100000000000000000000000000000000000000000000000000000000600052603260045260246000fd5b6020026020010181905250508080610a14906129c6565b9150506107dd565b508094505050505092915050565b60606000610a386002611d7c565b90506000610a44611c5f565b905060008167ffffffffffffffff811115610a88577f4e487b7100000000000000000000000000000000000000000000000000000000600052604160045260246000fd5b604051908082528060200260200182016040528015610ac157816020015b610aae611f3b565b815260200190600190039081610aa65790505b50905060008060005b8582108015610ad857508481105b15610d475760046000600184610aee9190612869565b815260200190815260200160002060070160009054906101000a900460ff16610d2657600060046000600185610b249190612869565b815260200190815260200160002090508060405180610100016040529081600082015481526020016001820160009054906101000a900473ffffffffffffffffffffffffffffffffffffffff1673ffffffffffffffffffffffffffffffffffffffff1673ffffffffffffffffffffffffffffffffffffffff168152602001600282015481526020016003820160009054906101000a900473ffffffffffffffffffffffffffffffffffffffff1673ffffffffffffffffffffffffffffffffffffffff1673ffffffffffffffffffffffffffffffffffffffff1681526020016004820160009054906101000a900473ffffffffffffffffffffffffffffffffffffffff1673ffffffffffffffffffffffffffffffffffffffff1673ffffffffffffffffffffffffffffffffffffffff1681526020016005820160009054906101000a900473ffffffffffffffffffffffffffffffffffffffff1673ffffffffffffffffffffffffffffffffffffffff1673ffffffffffffffffffffffffffffffffffffffff168152602001600682015481526020016007820160009054906101000a900460ff161515151581525050858581518110610d0b577f4e487b7100000000000000000000000000000000000000000000000000000000600052603260045260246000fd5b60200260200101819052508380610d21906129c6565b945050505b8180610d31906129c6565b9250508080610d3f906129c6565b915050610aca565b83965050505050505090565b6000610d5d6116b1565b905090565b610d6a611e6d565b73ffffffffffffffffffffffffffffffffffffffff16610d886116b1565b73ffffffffffffffffffffffffffffffffffffffff1614610dde576040517f08c379a0000000000000000000000000000000000000000000000000000000008152600401610dd590612708565b60405180910390fd5b610de86000611e75565b565b610df2611e6d565b73ffffffffffffffffffffffffffffffffffffffff16610e106116b1565b73ffffffffffffffffffffffffffffffffffffffff1614610e66576040517f08c379a0000000000000000000000000000000000000000000000000000000008152600401610e5d90612708565b60405180910390fd5b610e6e6116b1565b73ffffffffffffffffffffffffffffffffffffffff166108fc479081150290604051600060405180830381858888f19350505050158015610eb3573d6000803e3d6000fd5b50565b610ebe611f3b565b6000600760008481526020019081526020016000205490506000811415610f835760405180610100016040528060008152602001600073ffffffffffffffffffffffffffffffffffffffff16815260200160008152602001600073ffffffffffffffffffffffffffffffffffffffff168152602001600073ffffffffffffffffffffffffffffffffffffffff168152602001600073ffffffffffffffffffffffffffffffffffffffff1681526020016000815260200160001515815250915050611137565b6004600082815260200190815260200160002060405180610100016040529081600082015481526020016001820160009054906101000a900473ffffffffffffffffffffffffffffffffffffffff1673ffffffffffffffffffffffffffffffffffffffff1673ffffffffffffffffffffffffffffffffffffffff168152602001600282015481526020016003820160009054906101000a900473ffffffffffffffffffffffffffffffffffffffff1673ffffffffffffffffffffffffffffffffffffffff1673ffffffffffffffffffffffffffffffffffffffff1681526020016004820160009054906101000a900473ffffffffffffffffffffffffffffffffffffffff1673ffffffffffffffffffffffffffffffffffffffff1673ffffffffffffffffffffffffffffffffffffffff1681526020016005820160009054906101000a900473ffffffffffffffffffffffffffffffffffffffff1673ffffffffffffffffffffffffffffffffffffffff1673ffffffffffffffffffffffffffffffffffffffff168152602001600682015481526020016007820160009054906101000a900460ff1615151515815250509150505b919050565b60026000541415611182576040517f08c379a0000000000000000000000000000000000000000000000000000000008152600401611179906127c8565b60405180910390fd5b6002600081905550600081116111cd576040517f08c379a00000000000000000000000000000000000000000000000000000000081526004016111c490612788565b60405180910390fd5b3373ffffffffffffffffffffffffffffffffffffffff168373ffffffffffffffffffffffffffffffffffffffff16636352211e846040518263ffffffff1660e01b815260040161121d9190612804565b60206040518083038186803b15801561123557600080fd5b505afa158015611249573d6000803e3d6000fd5b505050506040513d601f19601f8201168201806040525081019061126d9190612042565b73ffffffffffffffffffffffffffffffffffffffff16146112c3576040517f08c379a00000000000000000000000000000000000000000000000000000000081526004016112ba90612608565b60405180910390fd5b60006112cf6003611d7c565b6112d96002611d7c565b6112e3919061294a565b90506112ef6002611d8a565b60006112fb6002611d7c565b905060008573ffffffffffffffffffffffffffffffffffffffff1663589a1743866040518263ffffffff1660e01b81526004016113389190612804565b60206040518083038186803b15801561135057600080fd5b505afa158015611364573d6000803e3d6000fd5b505050506040513d601f19601f820116820180604052508101906113889190612042565b90506040518061010001604052808381526020018773ffffffffffffffffffffffffffffffffffffffff1681526020018681526020018273ffffffffffffffffffffffffffffffffffffffff1681526020013373ffffffffffffffffffffffffffffffffffffffff168152602001600073ffffffffffffffffffffffffffffffffffffffff16815260200185815260200160001515815250600460008481526020019081526020016000206000820151816000015560208201518160010160006101000a81548173ffffffffffffffffffffffffffffffffffffffff021916908373ffffffffffffffffffffffffffffffffffffffff1602179055506040820151816002015560608201518160030160006101000a81548173ffffffffffffffffffffffffffffffffffffffff021916908373ffffffffffffffffffffffffffffffffffffffff16021790555060808201518160040160006101000a81548173ffffffffffffffffffffffffffffffffffffffff021916908373ffffffffffffffffffffffffffffffffffffffff16021790555060a08201518160050160006101000a81548173ffffffffffffffffffffffffffffffffffffffff021916908373ffffffffffffffffffffffffffffffffffffffff16021790555060c0820151816006015560e08201518160070160006101000a81548160ff0219169083151502179055509050508160076000878152602001908152602001600020819055508260066000878152602001908152602001600020819055508160056000858152602001908152602001600020819055508573ffffffffffffffffffffffffffffffffffffffff166323b872dd3330886040518463ffffffff1660e01b8152600401611615939291906125af565b600060405180830381600087803b15801561162f57600080fd5b505af1158015611643573d6000803e3d6000fd5b50505050848673ffffffffffffffffffffffffffffffffffffffff16837f591fed4983f2ff2b12e8ddb870a112e77ea0fbad747ac7a6b1b209e68e32a78e843360008a600060405161169995949392919061255c565b60405180910390a45050506001600081905550505050565b6000600160009054906101000a900473ffffffffffffffffffffffffffffffffffffffff16905090565b6000806116e86003611d7c565b6116f26002611d7c565b6116fc919061294a565b9050808310611740576040517f08c379a000000000000000000000000000000000000000000000000000000000815260040161173790612688565b60405180910390fd5b6005600084815260200190815260200160002054915050919050565b600260005414156117a2576040517f08c379a0000000000000000000000000000000000000000000000000000000008152600401611799906127c8565b60405180910390fd5b60026000819055506117b46002611d7c565b8111156117f6576040517f08c379a00000000000000000000000000000000000000000000000000000000081526004016117ed90612668565b60405180910390fd5b6004600082815260200190815260200160002060070160009054906101000a900460ff161561185a576040517f08c379a000000000000000000000000000000000000000000000000000000000815260040161185190612728565b60405180910390fd5b60006004600083815260200190815260200160002060040160009054906101000a900473ffffffffffffffffffffffffffffffffffffffff1690506000600460008481526020019081526020016000206006015490508173ffffffffffffffffffffffffffffffffffffffff163373ffffffffffffffffffffffffffffffffffffffff16141561191f576040517f08c379a0000000000000000000000000000000000000000000000000000000008152600401611916906126c8565b60405180910390fd5b803414611961576040517f08c379a000000000000000000000000000000000000000000000000000000000815260040161195890612748565b60405180910390fd5b60006004600085815260200190815260200160002060020154905060006004600086815260200190815260200160002060010160009054906101000a900473ffffffffffffffffffffffffffffffffffffffff16905060006004600087815260200190815260200160002060030160009054906101000a900473ffffffffffffffffffffffffffffffffffffffff1690508073ffffffffffffffffffffffffffffffffffffffff168573ffffffffffffffffffffffffffffffffffffffff161415611a8a578473ffffffffffffffffffffffffffffffffffffffff166108fc6064606234611a4f91906128f0565b611a5991906128bf565b9081150290604051600060405180830381858888f19350505050158015611a84573d6000803e3d6000fd5b50611b49565b8073ffffffffffffffffffffffffffffffffffffffff166108fc6064601434611ab391906128f0565b611abd91906128bf565b9081150290604051600060405180830381858888f19350505050158015611ae8573d6000803e3d6000fd5b508473ffffffffffffffffffffffffffffffffffffffff166108fc6064604e34611b1291906128f0565b611b1c91906128bf565b9081150290604051600060405180830381858888f19350505050158015611b47573d6000803e3d6000fd5b505b8173ffffffffffffffffffffffffffffffffffffffff166323b872dd3033866040518463ffffffff1660e01b8152600401611b86939291906125af565b600060405180830381600087803b158015611ba057600080fd5b505af1158015611bb4573d6000803e3d6000fd5b50505050336004600088815260200190815260200160002060050160006101000a81548173ffffffffffffffffffffffffffffffffffffffff021916908373ffffffffffffffffffffffffffffffffffffffff16021790555060016004600088815260200190815260200160002060070160006101000a81548160ff021916908315150217905550611c466003611d8a565b611c4f86611da0565b5050505050600160008190555050565b6000611c6b6003611d7c565b611c756002611d7c565b611c7f919061294a565b905090565b611c8c611e6d565b73ffffffffffffffffffffffffffffffffffffffff16611caa6116b1565b73ffffffffffffffffffffffffffffffffffffffff1614611d00576040517f08c379a0000000000000000000000000000000000000000000000000000000008152600401611cf790612708565b60405180910390fd5b600073ffffffffffffffffffffffffffffffffffffffff168173ffffffffffffffffffffffffffffffffffffffff161415611d70576040517f08c379a0000000000000000000000000000000000000000000000000000000008152600401611d6790612648565b60405180910390fd5b611d7981611e75565b50565b600081600001549050919050565b6001816000016000828254019250508190555050565b6000611dac6003611d7c565b611db66002611d7c565b611dc0919061294a565b905060006006600084815260200190815260200160002054905060006005600084815260200190815260200160002054905060056000848152602001908152602001600020546005600084815260200190815260200160002081905550600060056000858152602001908152602001600020819055506000600660008681526020019081526020016000208190555081600660008381526020019081526020016000208190555050505050565b600033905090565b6000600160009054906101000a900473ffffffffffffffffffffffffffffffffffffffff16905081600160006101000a81548173ffffffffffffffffffffffffffffffffffffffff021916908373ffffffffffffffffffffffffffffffffffffffff1602179055508173ffffffffffffffffffffffffffffffffffffffff168173ffffffffffffffffffffffffffffffffffffffff167f8be0079c531659141344cd1fd0a4f28419497f9722a3daafe3b4186f6b6457e060405160405180910390a35050565b60405180610100016040528060008152602001600073ffffffffffffffffffffffffffffffffffffffff16815260200160008152602001600073ffffffffffffffffffffffffffffffffffffffff168152602001600073ffffffffffffffffffffffffffffffffffffffff168152602001600073ffffffffffffffffffffffffffffffffffffffff168152602001600081526020016000151581525090565b600081359050611fe981612e2a565b92915050565b600081519050611ffe81612e2a565b92915050565b60008135905061201381612e41565b92915050565b60006020828403121561202b57600080fd5b600061203984828501611fda565b91505092915050565b60006020828403121561205457600080fd5b600061206284828501611fef565b91505092915050565b60008060006060848603121561208057600080fd5b600061208e86828701611fda565b935050602061209f86828701612004565b92505060406120b086828701612004565b9150509250925092565b6000602082840312156120cc57600080fd5b60006120da84828501612004565b91505092915050565b600080604083850312156120f657600080fd5b600061210485828601612004565b925050602061211585828601612004565b9150509250929050565b600061212b83836123df565b6101008301905092915050565b6121418161297e565b82525050565b6121508161297e565b82525050565b60006121618261282f565b61216b8185612847565b93506121768361281f565b8060005b838110156121a757815161218e888261211f565b97506121998361283a565b92505060018101905061217a565b5085935050505092915050565b6121bd81612990565b82525050565b6121cc81612990565b82525050565b60006121df602e83612858565b91506121ea82612a6d565b604082019050919050565b6000612202601783612858565b915061220d82612abc565b602082019050919050565b6000612225602683612858565b915061223082612ae5565b604082019050919050565b6000612248603083612858565b915061225382612b34565b604082019050919050565b600061226b601f83612858565b915061227682612b83565b602082019050919050565b600061228e603683612858565b915061229982612bac565b604082019050919050565b60006122b1602283612858565b91506122bc82612bfb565b604082019050919050565b60006122d4601283612858565b91506122df82612c4a565b602082019050919050565b60006122f7602083612858565b915061230282612c73565b602082019050919050565b600061231a603183612858565b915061232582612c9c565b604082019050919050565b600061233d602183612858565b915061234882612ceb565b604082019050919050565b6000612360603883612858565b915061236b82612d3a565b604082019050919050565b6000612383601d83612858565b915061238e82612d89565b602082019050919050565b60006123a6602183612858565b91506123b182612db2565b604082019050919050565b60006123c9601f83612858565b91506123d482612e01565b602082019050919050565b610100820160008201516123f66000850182612523565b5060208201516124096020850182612138565b50604082015161241c6040850182612523565b50606082015161242f6060850182612138565b5060808201516124426080850182612138565b5060a082015161245560a0850182612138565b5060c082015161246860c0850182612523565b5060e082015161247b60e08501826121b4565b50505050565b610100820160008201516124986000850182612523565b5060208201516124ab6020850182612138565b5060408201516124be6040850182612523565b5060608201516124d16060850182612138565b5060808201516124e46080850182612138565b5060a08201516124f760a0850182612138565b5060c082015161250a60c0850182612523565b5060e082015161251d60e08501826121b4565b50505050565b61252c816129bc565b82525050565b61253b816129bc565b82525050565b60006020820190506125566000830184612147565b92915050565b600060a0820190506125716000830188612147565b61257e6020830187612147565b61258b6040830186612147565b6125986060830185612532565b6125a560808301846121c3565b9695505050505050565b60006060820190506125c46000830186612147565b6125d16020830185612147565b6125de6040830184612532565b949350505050565b600060208201905081810360008301526126008184612156565b905092915050565b60006020820190508181036000830152612621816121d2565b9050919050565b60006020820190508181036000830152612641816121f5565b9050919050565b6000602082019050818103600083015261266181612218565b9050919050565b600060208201905081810360008301526126818161223b565b9050919050565b600060208201905081810360008301526126a18161225e565b9050919050565b600060208201905081810360008301526126c181612281565b9050919050565b600060208201905081810360008301526126e1816122a4565b9050919050565b60006020820190508181036000830152612701816122c7565b9050919050565b60006020820190508181036000830152612721816122ea565b9050919050565b600060208201905081810360008301526127418161230d565b9050919050565b6000602082019050818103600083015261276181612330565b9050919050565b6000602082019050818103600083015261278181612353565b9050919050565b600060208201905081810360008301526127a181612376565b9050919050565b600060208201905081810360008301526127c181612399565b9050919050565b600060208201905081810360008301526127e1816123bc565b9050919050565b6000610100820190506127fe6000830184612481565b92915050565b60006020820190506128196000830184612532565b92915050565b6000819050602082019050919050565b600081519050919050565b6000602082019050919050565b600082825260208201905092915050565b600082825260208201905092915050565b6000612874826129bc565b915061287f836129bc565b9250827fffffffffffffffffffffffffffffffffffffffffffffffffffffffffffffffff038211156128b4576128b3612a0f565b5b828201905092915050565b60006128ca826129bc565b91506128d5836129bc565b9250826128e5576128e4612a3e565b5b828204905092915050565b60006128fb826129bc565b9150612906836129bc565b9250817fffffffffffffffffffffffffffffffffffffffffffffffffffffffffffffffff048311821515161561293f5761293e612a0f565b5b828202905092915050565b6000612955826129bc565b9150612960836129bc565b92508282101561297357612972612a0f565b5b828203905092915050565b60006129898261299c565b9050919050565b60008115159050919050565b600073ffffffffffffffffffffffffffffffffffffffff82169050919050565b6000819050919050565b60006129d1826129bc565b91507fffffffffffffffffffffffffffffffffffffffffffffffffffffffffffffffff821415612a0457612a03612a0f565b5b600182019050919050565b7f4e487b7100000000000000000000000000000000000000000000000000000000600052601160045260246000fd5b7f4e487b7100000000000000000000000000000000000000000000000000000000600052601260045260246000fd5b7f596f75206d757374206f776e2074686520746f6b656e20796f7520617265207460008201527f7279696e6720746f2073656c6c2e000000000000000000000000000000000000602082015250565b7f706167652073697a65206f7574206f6620626f756e6473000000000000000000600082015250565b7f4f776e61626c653a206e6577206f776e657220697320746865207a65726f206160008201527f6464726573730000000000000000000000000000000000000000000000000000602082015250565b7f596f752063616e6e6f7420707572636861736520616e206974656d207468617460008201527f20646f6573206e6f742065786973742e00000000000000000000000000000000602082015250565b7f756e736f6c64206974656d20696e646578206f7574206f6620626f756e647300600082015250565b7f43616e6e6f742063616e63656c207468652073656c6c206f6620616e2069746560008201527f6d207468617420646f6573206e6f742065786973742e00000000000000000000602082015250565b7f596f752063616e6e6f7420707572636861736520796f7572206f776e2069746560008201527f6d2e000000000000000000000000000000000000000000000000000000000000602082015250565b7f70616765206f7574206f6620626f756e64730000000000000000000000000000600082015250565b7f4f776e61626c653a2063616c6c6572206973206e6f7420746865206f776e6572600082015250565b7f596f752063616e6e6f7420707572636861736520616e206974656d207468617460008201527f206973206e6f7420666f722073656c6c2e000000000000000000000000000000602082015250565b7f596f75206d757374207375626d6974207468652061736b696e6720707269636560008201527f2e00000000000000000000000000000000000000000000000000000000000000602082015250565b7f43616e6e6f742063616e63656c207468652073656c6c206f6620616e2069746560008201527f6d20746861742068617320616c726561647920736f6c642e0000000000000000602082015250565b7f5072696365206d7573742062652067726561746572207468616e20302e000000600082015250565b7f4f6e6c79207468652073656c6c65722063616e2063616e63656c20612073656c60008201527f6c00000000000000000000000000000000000000000000000000000000000000602082015250565b7f5265656e7472616e637947756172643a207265656e7472616e742063616c6c00600082015250565b612e338161297e565b8114612e3e57600080fd5b50565b612e4a816129bc565b8114612e5557600080fd5b5056fea2646970667358221220802bccbccb389cff431c0213e33596407d67afc4da81687142d9e88dc058508364736f6c63430008040033",
  "linkReferences": {},
  "deployedLinkReferences": {}
}