{
  "_format": "hh-sol-artifact-1",
  "contractName": "GNFTMarket",
  "sourceName": "contracts/GNFTMarket.sol",
  "abi": [
    {
      "inputs": [],
      "stateMutability": "nonpayable",
      "type": "constructor"
    },
    {
      "anonymous": false,
      "inputs": [
        {
          "indexed": true,
          "internalType": "uint256",
          "name": "itemId",
          "type": "uint256"
        },
        {
          "indexed": true,
          "internalType": "address",
          "name": "tokenContract",
          "type": "address"
        },
        {
          "indexed": true,
          "internalType": "uint256",
          "name": "tokenId",
          "type": "uint256"
        },
        {
          "indexed": false,
          "internalType": "address",
          "name": "artist",
          "type": "address"
        },
        {
          "indexed": false,
          "internalType": "address",
          "name": "seller",
          "type": "address"
        },
        {
          "indexed": false,
          "internalType": "address",
          "name": "owner",
          "type": "address"
        },
        {
          "indexed": false,
          "internalType": "uint256",
          "name": "price",
          "type": "uint256"
        },
        {
          "indexed": false,
          "internalType": "bool",
          "name": "",
          "type": "bool"
        }
      ],
      "name": "ItemCreated",
      "type": "event"
    },
    {
      "inputs": [],
      "name": "cashOut",
      "outputs": [],
      "stateMutability": "nonpayable",
      "type": "function"
    },
    {
      "inputs": [
        {
          "internalType": "uint256",
          "name": "tokenId",
          "type": "uint256"
        }
      ],
      "name": "getGNFTItem",
      "outputs": [
        {
          "components": [
            {
              "internalType": "uint256",
              "name": "itemId",
              "type": "uint256"
            },
            {
              "internalType": "address",
              "name": "tokenContract",
              "type": "address"
            },
            {
              "internalType": "uint256",
              "name": "tokenId",
              "type": "uint256"
            },
            {
              "internalType": "address",
              "name": "artist",
              "type": "address"
            },
            {
              "internalType": "address",
              "name": "seller",
              "type": "address"
            },
            {
              "internalType": "address",
              "name": "owner",
              "type": "address"
            },
            {
              "internalType": "uint256",
              "name": "price",
              "type": "uint256"
            },
            {
              "internalType": "bool",
              "name": "sold",
              "type": "bool"
            }
          ],
          "internalType": "struct GNFTMarket.Item",
          "name": "",
          "type": "tuple"
        }
      ],
      "stateMutability": "view",
      "type": "function"
    },
    {
      "inputs": [],
      "name": "getItems",
      "outputs": [
        {
          "components": [
            {
              "internalType": "uint256",
              "name": "itemId",
              "type": "uint256"
            },
            {
              "internalType": "address",
              "name": "tokenContract",
              "type": "address"
            },
            {
              "internalType": "uint256",
              "name": "tokenId",
              "type": "uint256"
            },
            {
              "internalType": "address",
              "name": "artist",
              "type": "address"
            },
            {
              "internalType": "address",
              "name": "seller",
              "type": "address"
            },
            {
              "internalType": "address",
              "name": "owner",
              "type": "address"
            },
            {
              "internalType": "uint256",
              "name": "price",
              "type": "uint256"
            },
            {
              "internalType": "bool",
              "name": "sold",
              "type": "bool"
            }
          ],
          "internalType": "struct GNFTMarket.Item[]",
          "name": "",
          "type": "tuple[]"
        }
      ],
      "stateMutability": "view",
      "type": "function"
    },
    {
      "inputs": [],
      "name": "getMarketOwner",
      "outputs": [
        {
          "internalType": "address",
          "name": "",
          "type": "address"
        }
      ],
      "stateMutability": "view",
      "type": "function"
    },
    {
      "inputs": [
        {
          "internalType": "address",
          "name": "tokenContract",
          "type": "address"
        },
        {
          "internalType": "uint256",
          "name": "tokenId",
          "type": "uint256"
        },
        {
          "internalType": "uint256",
          "name": "price",
          "type": "uint256"
        }
      ],
      "name": "listItem",
      "outputs": [],
      "stateMutability": "nonpayable",
      "type": "function"
    },
    {
      "inputs": [
        {
          "internalType": "uint256",
          "name": "itemId",
          "type": "uint256"
        }
      ],
      "name": "purchaseItem",
      "outputs": [],
      "stateMutability": "payable",
      "type": "function"
    }
  ],
  "bytecode": "0x608060405234801561001057600080fd5b50600160008190555033600360006101000a81548173ffffffffffffffffffffffffffffffffffffffff021916908373ffffffffffffffffffffffffffffffffffffffff160217905550611df2806100696000396000f3fe6080604052600436106100555760003560e01c8063410d59cc1461005a578063451e9cf014610085578063793cd71e146100b05780638966dcc2146100c757806389bfd38f14610104578063d38ea5bf1461012d575b600080fd5b34801561006657600080fd5b5061006f610149565b60405161007c91906117bb565b60405180910390f35b34801561009157600080fd5b5061009a61047f565b6040516100a79190611716565b60405180910390f35b3480156100bc57600080fd5b506100c56104a9565b005b3480156100d357600080fd5b506100ee60048036038101906100e991906113c0565b6105a4565b6040516100fb91906118dd565b60405180910390f35b34801561011057600080fd5b5061012b60048036038101906101269190611371565b61082a565b005b610147600480360381019061014291906113c0565b610d4c565b005b606060006101576001611246565b905060006101656002611246565b826101709190611a3f565b905060008167ffffffffffffffff8111156101b4577f4e487b7100000000000000000000000000000000000000000000000000000000600052604160045260246000fd5b6040519080825280602002602001820160405280156101ed57816020015b6101da61126a565b8152602001906001900390816101d25790505b50905060008060005b858210801561020457508481105b15610473576004600060018461021a919061195e565b815260200190815260200160002060070160009054906101000a900460ff1661045257600060046000600185610250919061195e565b815260200190815260200160002090508060405180610100016040529081600082015481526020016001820160009054906101000a900473ffffffffffffffffffffffffffffffffffffffff1673ffffffffffffffffffffffffffffffffffffffff1673ffffffffffffffffffffffffffffffffffffffff168152602001600282015481526020016003820160009054906101000a900473ffffffffffffffffffffffffffffffffffffffff1673ffffffffffffffffffffffffffffffffffffffff1673ffffffffffffffffffffffffffffffffffffffff1681526020016004820160009054906101000a900473ffffffffffffffffffffffffffffffffffffffff1673ffffffffffffffffffffffffffffffffffffffff1673ffffffffffffffffffffffffffffffffffffffff1681526020016005820160009054906101000a900473ffffffffffffffffffffffffffffffffffffffff1673ffffffffffffffffffffffffffffffffffffffff1673ffffffffffffffffffffffffffffffffffffffff168152602001600682015481526020016007820160009054906101000a900460ff161515151581525050858581518110610437577f4e487b7100000000000000000000000000000000000000000000000000000000600052603260045260246000fd5b6020026020010181905250838061044d90611abb565b945050505b818061045d90611abb565b925050808061046b90611abb565b9150506101f6565b83965050505050505090565b6000600360009054906101000a900473ffffffffffffffffffffffffffffffffffffffff16905090565b600360009054906101000a900473ffffffffffffffffffffffffffffffffffffffff1673ffffffffffffffffffffffffffffffffffffffff163373ffffffffffffffffffffffffffffffffffffffff1614610539576040517f08c379a00000000000000000000000000000000000000000000000000000000081526004016105309061181d565b60405180910390fd5b600360009054906101000a900473ffffffffffffffffffffffffffffffffffffffff1673ffffffffffffffffffffffffffffffffffffffff166108fc479081150290604051600060405180830381858888f193505050501580156105a1573d6000803e3d6000fd5b50565b6105ac61126a565b60006005600084815260200190815260200160002054905060008114156106715760405180610100016040528060008152602001600073ffffffffffffffffffffffffffffffffffffffff16815260200160008152602001600073ffffffffffffffffffffffffffffffffffffffff168152602001600073ffffffffffffffffffffffffffffffffffffffff168152602001600073ffffffffffffffffffffffffffffffffffffffff1681526020016000815260200160001515815250915050610825565b6004600082815260200190815260200160002060405180610100016040529081600082015481526020016001820160009054906101000a900473ffffffffffffffffffffffffffffffffffffffff1673ffffffffffffffffffffffffffffffffffffffff1673ffffffffffffffffffffffffffffffffffffffff168152602001600282015481526020016003820160009054906101000a900473ffffffffffffffffffffffffffffffffffffffff1673ffffffffffffffffffffffffffffffffffffffff1673ffffffffffffffffffffffffffffffffffffffff1681526020016004820160009054906101000a900473ffffffffffffffffffffffffffffffffffffffff1673ffffffffffffffffffffffffffffffffffffffff1673ffffffffffffffffffffffffffffffffffffffff1681526020016005820160009054906101000a900473ffffffffffffffffffffffffffffffffffffffff1673ffffffffffffffffffffffffffffffffffffffff1673ffffffffffffffffffffffffffffffffffffffff168152602001600682015481526020016007820160009054906101000a900460ff1615151515815250509150505b919050565b60026000541415610870576040517f08c379a0000000000000000000000000000000000000000000000000000000008152600401610867906118bd565b60405180910390fd5b6002600081905550600081116108bb576040517f08c379a00000000000000000000000000000000000000000000000000000000081526004016108b29061189d565b60405180910390fd5b3373ffffffffffffffffffffffffffffffffffffffff168373ffffffffffffffffffffffffffffffffffffffff16636352211e846040518263ffffffff1660e01b815260040161090b91906118f9565b60206040518083038186803b15801561092357600080fd5b505afa158015610937573d6000803e3d6000fd5b505050506040513d601f19601f8201168201806040525081019061095b9190611348565b73ffffffffffffffffffffffffffffffffffffffff16146109b1576040517f08c379a00000000000000000000000000000000000000000000000000000000081526004016109a8906117dd565b60405180910390fd5b6109bb6001611254565b60006109c76001611246565b905060008473ffffffffffffffffffffffffffffffffffffffff1663757d0537856040518263ffffffff1660e01b8152600401610a0491906118f9565b60206040518083038186803b158015610a1c57600080fd5b505afa158015610a30573d6000803e3d6000fd5b505050506040513d601f19601f82011682018060405250810190610a549190611348565b90506040518061010001604052808381526020018673ffffffffffffffffffffffffffffffffffffffff1681526020018581526020018273ffffffffffffffffffffffffffffffffffffffff1681526020013373ffffffffffffffffffffffffffffffffffffffff168152602001600073ffffffffffffffffffffffffffffffffffffffff16815260200184815260200160001515815250600460008481526020019081526020016000206000820151816000015560208201518160010160006101000a81548173ffffffffffffffffffffffffffffffffffffffff021916908373ffffffffffffffffffffffffffffffffffffffff1602179055506040820151816002015560608201518160030160006101000a81548173ffffffffffffffffffffffffffffffffffffffff021916908373ffffffffffffffffffffffffffffffffffffffff16021790555060808201518160040160006101000a81548173ffffffffffffffffffffffffffffffffffffffff021916908373ffffffffffffffffffffffffffffffffffffffff16021790555060a08201518160050160006101000a81548173ffffffffffffffffffffffffffffffffffffffff021916908373ffffffffffffffffffffffffffffffffffffffff16021790555060c0820151816006015560e08201518160070160006101000a81548160ff0219169083151502179055509050508160056000868152602001908152602001600020819055508473ffffffffffffffffffffffffffffffffffffffff166323b872dd3330876040518463ffffffff1660e01b8152600401610cb193929190611784565b600060405180830381600087803b158015610ccb57600080fd5b505af1158015610cdf573d6000803e3d6000fd5b50505050838573ffffffffffffffffffffffffffffffffffffffff16837f591fed4983f2ff2b12e8ddb870a112e77ea0fbad747ac7a6b1b209e68e32a78e84336000896000604051610d35959493929190611731565b60405180910390a450506001600081905550505050565b60026000541415610d92576040517f08c379a0000000000000000000000000000000000000000000000000000000008152600401610d89906118bd565b60405180910390fd5b6002600081905550610da46001611246565b811115610de6576040517f08c379a0000000000000000000000000000000000000000000000000000000008152600401610ddd906117fd565b60405180910390fd5b6004600082815260200190815260200160002060070160009054906101000a900460ff1615610e4a576040517f08c379a0000000000000000000000000000000000000000000000000000000008152600401610e419061185d565b60405180910390fd5b60006004600083815260200190815260200160002060040160009054906101000a900473ffffffffffffffffffffffffffffffffffffffff1690506000600460008481526020019081526020016000206006015490508173ffffffffffffffffffffffffffffffffffffffff163373ffffffffffffffffffffffffffffffffffffffff161415610f0f576040517f08c379a0000000000000000000000000000000000000000000000000000000008152600401610f069061183d565b60405180910390fd5b803414610f51576040517f08c379a0000000000000000000000000000000000000000000000000000000008152600401610f489061187d565b60405180910390fd5b60006004600085815260200190815260200160002060020154905060006004600086815260200190815260200160002060010160009054906101000a900473ffffffffffffffffffffffffffffffffffffffff16905060006004600087815260200190815260200160002060030160009054906101000a900473ffffffffffffffffffffffffffffffffffffffff1690508073ffffffffffffffffffffffffffffffffffffffff168573ffffffffffffffffffffffffffffffffffffffff16141561107a578473ffffffffffffffffffffffffffffffffffffffff166108fc6064605a3461103f91906119e5565b61104991906119b4565b9081150290604051600060405180830381858888f19350505050158015611074573d6000803e3d6000fd5b50611139565b8073ffffffffffffffffffffffffffffffffffffffff166108fc60646014346110a391906119e5565b6110ad91906119b4565b9081150290604051600060405180830381858888f193505050501580156110d8573d6000803e3d6000fd5b508473ffffffffffffffffffffffffffffffffffffffff166108fc606460463461110291906119e5565b61110c91906119b4565b9081150290604051600060405180830381858888f19350505050158015611137573d6000803e3d6000fd5b505b8173ffffffffffffffffffffffffffffffffffffffff166323b872dd3033866040518463ffffffff1660e01b815260040161117693929190611784565b600060405180830381600087803b15801561119057600080fd5b505af11580156111a4573d6000803e3d6000fd5b50505050336004600088815260200190815260200160002060050160006101000a81548173ffffffffffffffffffffffffffffffffffffffff021916908373ffffffffffffffffffffffffffffffffffffffff16021790555060016004600088815260200190815260200160002060070160006101000a81548160ff0219169083151502179055506112366002611254565b5050505050600160008190555050565b600081600001549050919050565b6001816000016000828254019250508190555050565b60405180610100016040528060008152602001600073ffffffffffffffffffffffffffffffffffffffff16815260200160008152602001600073ffffffffffffffffffffffffffffffffffffffff168152602001600073ffffffffffffffffffffffffffffffffffffffff168152602001600073ffffffffffffffffffffffffffffffffffffffff168152602001600081526020016000151581525090565b60008135905061131881611d8e565b92915050565b60008151905061132d81611d8e565b92915050565b60008135905061134281611da5565b92915050565b60006020828403121561135a57600080fd5b60006113688482850161131e565b91505092915050565b60008060006060848603121561138657600080fd5b600061139486828701611309565b93505060206113a586828701611333565b92505060406113b686828701611333565b9150509250925092565b6000602082840312156113d257600080fd5b60006113e084828501611333565b91505092915050565b60006113f583836115b4565b6101008301905092915050565b61140b81611a73565b82525050565b61141a81611a73565b82525050565b600061142b82611924565b611435818561193c565b935061144083611914565b8060005b8381101561147157815161145888826113e9565b97506114638361192f565b925050600181019050611444565b5085935050505092915050565b61148781611a85565b82525050565b61149681611a85565b82525050565b60006114a9602e8361194d565b91506114b482611b62565b604082019050919050565b60006114cc60308361194d565b91506114d782611bb1565b604082019050919050565b60006114ef60258361194d565b91506114fa82611c00565b604082019050919050565b600061151260228361194d565b915061151d82611c4f565b604082019050919050565b600061153560318361194d565b915061154082611c9e565b604082019050919050565b600061155860218361194d565b915061156382611ced565b604082019050919050565b600061157b601d8361194d565b915061158682611d3c565b602082019050919050565b600061159e601f8361194d565b91506115a982611d65565b602082019050919050565b610100820160008201516115cb60008501826116f8565b5060208201516115de6020850182611402565b5060408201516115f160408501826116f8565b5060608201516116046060850182611402565b5060808201516116176080850182611402565b5060a082015161162a60a0850182611402565b5060c082015161163d60c08501826116f8565b5060e082015161165060e085018261147e565b50505050565b6101008201600082015161166d60008501826116f8565b5060208201516116806020850182611402565b50604082015161169360408501826116f8565b5060608201516116a66060850182611402565b5060808201516116b96080850182611402565b5060a08201516116cc60a0850182611402565b5060c08201516116df60c08501826116f8565b5060e08201516116f260e085018261147e565b50505050565b61170181611ab1565b82525050565b61171081611ab1565b82525050565b600060208201905061172b6000830184611411565b92915050565b600060a0820190506117466000830188611411565b6117536020830187611411565b6117606040830186611411565b61176d6060830185611707565b61177a608083018461148d565b9695505050505050565b60006060820190506117996000830186611411565b6117a66020830185611411565b6117b36040830184611707565b949350505050565b600060208201905081810360008301526117d58184611420565b905092915050565b600060208201905081810360008301526117f68161149c565b9050919050565b60006020820190508181036000830152611816816114bf565b9050919050565b60006020820190508181036000830152611836816114e2565b9050919050565b6000602082019050818103600083015261185681611505565b9050919050565b6000602082019050818103600083015261187681611528565b9050919050565b600060208201905081810360008301526118968161154b565b9050919050565b600060208201905081810360008301526118b68161156e565b9050919050565b600060208201905081810360008301526118d681611591565b9050919050565b6000610100820190506118f36000830184611656565b92915050565b600060208201905061190e6000830184611707565b92915050565b6000819050602082019050919050565b600081519050919050565b6000602082019050919050565b600082825260208201905092915050565b600082825260208201905092915050565b600061196982611ab1565b915061197483611ab1565b9250827fffffffffffffffffffffffffffffffffffffffffffffffffffffffffffffffff038211156119a9576119a8611b04565b5b828201905092915050565b60006119bf82611ab1565b91506119ca83611ab1565b9250826119da576119d9611b33565b5b828204905092915050565b60006119f082611ab1565b91506119fb83611ab1565b9250817fffffffffffffffffffffffffffffffffffffffffffffffffffffffffffffffff0483118215151615611a3457611a33611b04565b5b828202905092915050565b6000611a4a82611ab1565b9150611a5583611ab1565b925082821015611a6857611a67611b04565b5b828203905092915050565b6000611a7e82611a91565b9050919050565b60008115159050919050565b600073ffffffffffffffffffffffffffffffffffffffff82169050919050565b6000819050919050565b6000611ac682611ab1565b91507fffffffffffffffffffffffffffffffffffffffffffffffffffffffffffffffff821415611af957611af8611b04565b5b600182019050919050565b7f4e487b7100000000000000000000000000000000000000000000000000000000600052601160045260246000fd5b7f4e487b7100000000000000000000000000000000000000000000000000000000600052601260045260246000fd5b7f596f75206d757374206f776e2074686520746f6b656e20796f7520617265207460008201527f7279696e6720746f2073656c6c2e000000000000000000000000000000000000602082015250565b7f596f752063616e6e6f7420707572636861736520616e206974656d207468617460008201527f20646f6573206e6f742065786973742e00000000000000000000000000000000602082015250565b7f4f6e6c7920746865206f776e65722063616e20636173686f757420746865206d60008201527f61726b6574000000000000000000000000000000000000000000000000000000602082015250565b7f596f752063616e6e6f7420707572636861736520796f7572206f776e2069746560008201527f6d2e000000000000000000000000000000000000000000000000000000000000602082015250565b7f596f752063616e6e6f7420707572636861736520616e206974656d207468617460008201527f206973206e6f7420666f722073656c6c2e000000000000000000000000000000602082015250565b7f596f75206d757374207375626d6974207468652061736b696e6720707269636560008201527f2e00000000000000000000000000000000000000000000000000000000000000602082015250565b7f5072696365206d7573742062652067726561746572207468616e20302e000000600082015250565b7f5265656e7472616e637947756172643a207265656e7472616e742063616c6c00600082015250565b611d9781611a73565b8114611da257600080fd5b50565b611dae81611ab1565b8114611db957600080fd5b5056fea26469706673582212200c00c40c74f74260967b67055570bf886344e0543be5b1883c77fc9a9ed5892164736f6c63430008040033",
  "linkReferences": {},
  "deployedLinkReferences": {}
}