{
  "_format": "hh-sol-artifact-1",
  "contractName": "GNFTMarket",
  "sourceName": "contracts/GNFTMarket.sol",
  "abi": [
    {
      "inputs": [],
      "stateMutability": "nonpayable",
      "type": "constructor"
    },
    {
      "anonymous": false,
      "inputs": [
        {
          "indexed": true,
          "internalType": "uint256",
          "name": "itemId",
          "type": "uint256"
        },
        {
          "indexed": true,
          "internalType": "address",
          "name": "tokenContract",
          "type": "address"
        },
        {
          "indexed": true,
          "internalType": "uint256",
          "name": "tokenId",
          "type": "uint256"
        },
        {
          "indexed": false,
          "internalType": "address",
          "name": "creator",
          "type": "address"
        },
        {
          "indexed": false,
          "internalType": "address",
          "name": "seller",
          "type": "address"
        },
        {
          "indexed": false,
          "internalType": "address",
          "name": "owner",
          "type": "address"
        },
        {
          "indexed": false,
          "internalType": "uint256",
          "name": "price",
          "type": "uint256"
        },
        {
          "indexed": false,
          "internalType": "bool",
          "name": "",
          "type": "bool"
        }
      ],
      "name": "ItemCreated",
      "type": "event"
    },
    {
      "anonymous": false,
      "inputs": [
        {
          "indexed": true,
          "internalType": "address",
          "name": "previousOwner",
          "type": "address"
        },
        {
          "indexed": true,
          "internalType": "address",
          "name": "newOwner",
          "type": "address"
        }
      ],
      "name": "OwnershipTransferred",
      "type": "event"
    },
    {
      "inputs": [
        {
          "internalType": "uint256",
          "name": "itemId",
          "type": "uint256"
        }
      ],
      "name": "cancelSell",
      "outputs": [],
      "stateMutability": "nonpayable",
      "type": "function"
    },
    {
      "inputs": [],
      "name": "cashOut",
      "outputs": [],
      "stateMutability": "nonpayable",
      "type": "function"
    },
    {
      "inputs": [
        {
          "internalType": "uint256",
          "name": "tokenId",
          "type": "uint256"
        }
      ],
      "name": "getGNFTItem",
      "outputs": [
        {
          "components": [
            {
              "internalType": "uint256",
              "name": "itemId",
              "type": "uint256"
            },
            {
              "internalType": "address",
              "name": "tokenContract",
              "type": "address"
            },
            {
              "internalType": "uint256",
              "name": "tokenId",
              "type": "uint256"
            },
            {
              "internalType": "address",
              "name": "creator",
              "type": "address"
            },
            {
              "internalType": "address",
              "name": "seller",
              "type": "address"
            },
            {
              "internalType": "address",
              "name": "owner",
              "type": "address"
            },
            {
              "internalType": "uint256",
              "name": "price",
              "type": "uint256"
            },
            {
              "internalType": "bool",
              "name": "sold",
              "type": "bool"
            }
          ],
          "internalType": "struct GNFTMarket.Item",
          "name": "",
          "type": "tuple"
        }
      ],
      "stateMutability": "view",
      "type": "function"
    },
    {
      "inputs": [
        {
          "internalType": "uint256",
          "name": "pageSize",
          "type": "uint256"
        },
        {
          "internalType": "uint256",
          "name": "page",
          "type": "uint256"
        }
      ],
      "name": "getPaginatedItems",
      "outputs": [
        {
          "components": [
            {
              "internalType": "uint256",
              "name": "itemId",
              "type": "uint256"
            },
            {
              "internalType": "address",
              "name": "tokenContract",
              "type": "address"
            },
            {
              "internalType": "uint256",
              "name": "tokenId",
              "type": "uint256"
            },
            {
              "internalType": "address",
              "name": "creator",
              "type": "address"
            },
            {
              "internalType": "address",
              "name": "seller",
              "type": "address"
            },
            {
              "internalType": "address",
              "name": "owner",
              "type": "address"
            },
            {
              "internalType": "uint256",
              "name": "price",
              "type": "uint256"
            },
            {
              "internalType": "bool",
              "name": "sold",
              "type": "bool"
            }
          ],
          "internalType": "struct GNFTMarket.Item[]",
          "name": "",
          "type": "tuple[]"
        }
      ],
      "stateMutability": "view",
      "type": "function"
    },
    {
      "inputs": [],
      "name": "getTotalUnsoldItems",
      "outputs": [
        {
          "internalType": "uint256",
          "name": "",
          "type": "uint256"
        }
      ],
      "stateMutability": "view",
      "type": "function"
    },
    {
      "inputs": [
        {
          "internalType": "uint256",
          "name": "idx",
          "type": "uint256"
        }
      ],
      "name": "getUnsoldItemByIndex",
      "outputs": [
        {
          "internalType": "uint256",
          "name": "",
          "type": "uint256"
        }
      ],
      "stateMutability": "view",
      "type": "function"
    },
    {
      "inputs": [
        {
          "internalType": "address",
          "name": "tokenContract",
          "type": "address"
        },
        {
          "internalType": "uint256",
          "name": "tokenId",
          "type": "uint256"
        },
        {
          "internalType": "uint256",
          "name": "price",
          "type": "uint256"
        }
      ],
      "name": "listItem",
      "outputs": [],
      "stateMutability": "nonpayable",
      "type": "function"
    },
    {
      "inputs": [],
      "name": "owner",
      "outputs": [
        {
          "internalType": "address",
          "name": "",
          "type": "address"
        }
      ],
      "stateMutability": "view",
      "type": "function"
    },
    {
      "inputs": [
        {
          "internalType": "uint256",
          "name": "itemId",
          "type": "uint256"
        }
      ],
      "name": "purchaseItem",
      "outputs": [],
      "stateMutability": "payable",
      "type": "function"
    },
    {
      "inputs": [],
      "name": "renounceOwnership",
      "outputs": [],
      "stateMutability": "nonpayable",
      "type": "function"
    },
    {
      "inputs": [
        {
          "internalType": "address",
          "name": "newOwner",
          "type": "address"
        }
      ],
      "name": "transferOwnership",
      "outputs": [],
      "stateMutability": "nonpayable",
      "type": "function"
    }
  ],
  "bytecode": "0x60806040523480156200001157600080fd5b5060016000819055506200003a6200002e6200004060201b60201c565b6200004860201b60201c565b6200010e565b600033905090565b6000600160009054906101000a900473ffffffffffffffffffffffffffffffffffffffff16905081600160006101000a81548173ffffffffffffffffffffffffffffffffffffffff021916908373ffffffffffffffffffffffffffffffffffffffff1602179055508173ffffffffffffffffffffffffffffffffffffffff168173ffffffffffffffffffffffffffffffffffffffff167f8be0079c531659141344cd1fd0a4f28419497f9722a3daafe3b4186f6b6457e060405160405180910390a35050565b612ada806200011e6000396000f3fe60806040526004361061009c5760003560e01c806389bfd38f1161006457806389bfd38f146101725780638da5cb5b1461019b5780639c9a6a44146101c6578063d38ea5bf14610203578063e20f807b1461021f578063f2fde38b1461024a5761009c565b806307c9cd45146100a157806325f49148146100ca578063715018a614610107578063793cd71e1461011e5780638966dcc214610135575b600080fd5b3480156100ad57600080fd5b506100c860048036038101906100c39190611d06565b610273565b005b3480156100d657600080fd5b506100f160048036038101906100ec9190611d2f565b610584565b6040516100fe9190612232565b60405180910390f35b34801561011357600080fd5b5061011c6109ae565b005b34801561012a57600080fd5b50610133610a36565b005b34801561014157600080fd5b5061015c60048036038101906101579190611d06565b610b02565b6040516101699190612434565b60405180910390f35b34801561017e57600080fd5b5061019960048036038101906101949190611cb7565b610d88565b005b3480156101a757600080fd5b506101b06112fd565b6040516101bd919061218d565b60405180910390f35b3480156101d257600080fd5b506101ed60048036038101906101e89190611d06565b611327565b6040516101fa9190612450565b60405180910390f35b61021d60048036038101906102189190611d06565b6113a8565b005b34801561022b57600080fd5b506102346118ab565b6040516102419190612450565b60405180910390f35b34801561025657600080fd5b50610271600480360381019061026c9190611c65565b6118d0565b005b600260005414156102b9576040517f08c379a00000000000000000000000000000000000000000000000000000000081526004016102b090612414565b60405180910390fd5b60026000819055506102cb60026119c8565b81111561030d576040517f08c379a0000000000000000000000000000000000000000000000000000000008152600401610304906122f4565b60405180910390fd5b6004600082815260200190815260200160002060070160009054906101000a900460ff1615610371576040517f08c379a0000000000000000000000000000000000000000000000000000000008152600401610368906123b4565b60405180910390fd5b60006004600083815260200190815260200160002060040160009054906101000a900473ffffffffffffffffffffffffffffffffffffffff1690508073ffffffffffffffffffffffffffffffffffffffff163373ffffffffffffffffffffffffffffffffffffffff161461041a576040517f08c379a0000000000000000000000000000000000000000000000000000000008152600401610411906123f4565b60405180910390fd5b60006004600084815260200190815260200160002060020154905060006004600085815260200190815260200160002060010160009054906101000a900473ffffffffffffffffffffffffffffffffffffffff1690508073ffffffffffffffffffffffffffffffffffffffff166323b872dd3033856040518463ffffffff1660e01b81526004016104ad939291906121fb565b600060405180830381600087803b1580156104c757600080fd5b505af11580156104db573d6000803e3d6000fd5b50505050336004600086815260200190815260200160002060050160006101000a81548173ffffffffffffffffffffffffffffffffffffffff021916908373ffffffffffffffffffffffffffffffffffffffff16021790555060016004600086815260200190815260200160002060070160006101000a81548160ff02191690831515021790555061056d60036119d6565b610576846119ec565b505050600160008190555050565b60606000831180156105965750606583105b6105d5576040517f08c379a00000000000000000000000000000000000000000000000000000000081526004016105cc90612274565b60405180910390fd5b60008211801561060257506105e86118ab565b836001846105f69190612596565b610600919061253c565b105b610641576040517f08c379a000000000000000000000000000000000000000000000000000000000815260040161063890612334565b60405180910390fd5b6000836001846106519190612596565b61065b919061253c565b905060006001858361066d91906124b5565b6106779190612596565b60016106816118ab565b61068b9190612596565b106106ad576001858361069e91906124b5565b6106a89190612596565b6106c2565b60016106b76118ab565b6106c19190612596565b5b90506000600183836106d49190612596565b6106de91906124b5565b905060008167ffffffffffffffff811115610722577f4e487b7100000000000000000000000000000000000000000000000000000000600052604160045260246000fd5b60405190808252806020026020018201604052801561075b57816020015b610748611b87565b8152602001906001900390816107405790505b50905060005b828110156109a057600061079660018961077b9190612596565b8a610786919061253c565b8361079191906124b5565b611327565b90506004600082815260200190815260200160002060405180610100016040529081600082015481526020016001820160009054906101000a900473ffffffffffffffffffffffffffffffffffffffff1673ffffffffffffffffffffffffffffffffffffffff1673ffffffffffffffffffffffffffffffffffffffff168152602001600282015481526020016003820160009054906101000a900473ffffffffffffffffffffffffffffffffffffffff1673ffffffffffffffffffffffffffffffffffffffff1673ffffffffffffffffffffffffffffffffffffffff1681526020016004820160009054906101000a900473ffffffffffffffffffffffffffffffffffffffff1673ffffffffffffffffffffffffffffffffffffffff1673ffffffffffffffffffffffffffffffffffffffff1681526020016005820160009054906101000a900473ffffffffffffffffffffffffffffffffffffffff1673ffffffffffffffffffffffffffffffffffffffff1673ffffffffffffffffffffffffffffffffffffffff168152602001600682015481526020016007820160009054906101000a900460ff161515151581525050838381518110610981577f4e487b7100000000000000000000000000000000000000000000000000000000600052603260045260246000fd5b602002602001018190525050808061099890612612565b915050610761565b508094505050505092915050565b6109b6611ab9565b73ffffffffffffffffffffffffffffffffffffffff166109d46112fd565b73ffffffffffffffffffffffffffffffffffffffff1614610a2a576040517f08c379a0000000000000000000000000000000000000000000000000000000008152600401610a2190612354565b60405180910390fd5b610a346000611ac1565b565b610a3e611ab9565b73ffffffffffffffffffffffffffffffffffffffff16610a5c6112fd565b73ffffffffffffffffffffffffffffffffffffffff1614610ab2576040517f08c379a0000000000000000000000000000000000000000000000000000000008152600401610aa990612354565b60405180910390fd5b610aba6112fd565b73ffffffffffffffffffffffffffffffffffffffff166108fc479081150290604051600060405180830381858888f19350505050158015610aff573d6000803e3d6000fd5b50565b610b0a611b87565b6000600760008481526020019081526020016000205490506000811415610bcf5760405180610100016040528060008152602001600073ffffffffffffffffffffffffffffffffffffffff16815260200160008152602001600073ffffffffffffffffffffffffffffffffffffffff168152602001600073ffffffffffffffffffffffffffffffffffffffff168152602001600073ffffffffffffffffffffffffffffffffffffffff1681526020016000815260200160001515815250915050610d83565b6004600082815260200190815260200160002060405180610100016040529081600082015481526020016001820160009054906101000a900473ffffffffffffffffffffffffffffffffffffffff1673ffffffffffffffffffffffffffffffffffffffff1673ffffffffffffffffffffffffffffffffffffffff168152602001600282015481526020016003820160009054906101000a900473ffffffffffffffffffffffffffffffffffffffff1673ffffffffffffffffffffffffffffffffffffffff1673ffffffffffffffffffffffffffffffffffffffff1681526020016004820160009054906101000a900473ffffffffffffffffffffffffffffffffffffffff1673ffffffffffffffffffffffffffffffffffffffff1673ffffffffffffffffffffffffffffffffffffffff1681526020016005820160009054906101000a900473ffffffffffffffffffffffffffffffffffffffff1673ffffffffffffffffffffffffffffffffffffffff1673ffffffffffffffffffffffffffffffffffffffff168152602001600682015481526020016007820160009054906101000a900460ff1615151515815250509150505b919050565b60026000541415610dce576040517f08c379a0000000000000000000000000000000000000000000000000000000008152600401610dc590612414565b60405180910390fd5b600260008190555060008111610e19576040517f08c379a0000000000000000000000000000000000000000000000000000000008152600401610e10906123d4565b60405180910390fd5b3373ffffffffffffffffffffffffffffffffffffffff168373ffffffffffffffffffffffffffffffffffffffff16636352211e846040518263ffffffff1660e01b8152600401610e699190612450565b60206040518083038186803b158015610e8157600080fd5b505afa158015610e95573d6000803e3d6000fd5b505050506040513d601f19601f82011682018060405250810190610eb99190611c8e565b73ffffffffffffffffffffffffffffffffffffffff1614610f0f576040517f08c379a0000000000000000000000000000000000000000000000000000000008152600401610f0690612254565b60405180910390fd5b6000610f1b60036119c8565b610f2560026119c8565b610f2f9190612596565b9050610f3b60026119d6565b6000610f4760026119c8565b905060008573ffffffffffffffffffffffffffffffffffffffff1663589a1743866040518263ffffffff1660e01b8152600401610f849190612450565b60206040518083038186803b158015610f9c57600080fd5b505afa158015610fb0573d6000803e3d6000fd5b505050506040513d601f19601f82011682018060405250810190610fd49190611c8e565b90506040518061010001604052808381526020018773ffffffffffffffffffffffffffffffffffffffff1681526020018681526020018273ffffffffffffffffffffffffffffffffffffffff1681526020013373ffffffffffffffffffffffffffffffffffffffff168152602001600073ffffffffffffffffffffffffffffffffffffffff16815260200185815260200160001515815250600460008481526020019081526020016000206000820151816000015560208201518160010160006101000a81548173ffffffffffffffffffffffffffffffffffffffff021916908373ffffffffffffffffffffffffffffffffffffffff1602179055506040820151816002015560608201518160030160006101000a81548173ffffffffffffffffffffffffffffffffffffffff021916908373ffffffffffffffffffffffffffffffffffffffff16021790555060808201518160040160006101000a81548173ffffffffffffffffffffffffffffffffffffffff021916908373ffffffffffffffffffffffffffffffffffffffff16021790555060a08201518160050160006101000a81548173ffffffffffffffffffffffffffffffffffffffff021916908373ffffffffffffffffffffffffffffffffffffffff16021790555060c0820151816006015560e08201518160070160006101000a81548160ff0219169083151502179055509050508160076000878152602001908152602001600020819055508260066000878152602001908152602001600020819055508160056000858152602001908152602001600020819055508573ffffffffffffffffffffffffffffffffffffffff166323b872dd3330886040518463ffffffff1660e01b8152600401611261939291906121fb565b600060405180830381600087803b15801561127b57600080fd5b505af115801561128f573d6000803e3d6000fd5b50505050848673ffffffffffffffffffffffffffffffffffffffff16837f591fed4983f2ff2b12e8ddb870a112e77ea0fbad747ac7a6b1b209e68e32a78e843360008a60006040516112e59594939291906121a8565b60405180910390a45050506001600081905550505050565b6000600160009054906101000a900473ffffffffffffffffffffffffffffffffffffffff16905090565b60008061133460036119c8565b61133e60026119c8565b6113489190612596565b905080831061138c576040517f08c379a0000000000000000000000000000000000000000000000000000000008152600401611383906122d4565b60405180910390fd5b6005600084815260200190815260200160002054915050919050565b600260005414156113ee576040517f08c379a00000000000000000000000000000000000000000000000000000000081526004016113e590612414565b60405180910390fd5b600260008190555061140060026119c8565b811115611442576040517f08c379a0000000000000000000000000000000000000000000000000000000008152600401611439906122b4565b60405180910390fd5b6004600082815260200190815260200160002060070160009054906101000a900460ff16156114a6576040517f08c379a000000000000000000000000000000000000000000000000000000000815260040161149d90612374565b60405180910390fd5b60006004600083815260200190815260200160002060040160009054906101000a900473ffffffffffffffffffffffffffffffffffffffff1690506000600460008481526020019081526020016000206006015490508173ffffffffffffffffffffffffffffffffffffffff163373ffffffffffffffffffffffffffffffffffffffff16141561156b576040517f08c379a000000000000000000000000000000000000000000000000000000000815260040161156290612314565b60405180910390fd5b8034146115ad576040517f08c379a00000000000000000000000000000000000000000000000000000000081526004016115a490612394565b60405180910390fd5b60006004600085815260200190815260200160002060020154905060006004600086815260200190815260200160002060010160009054906101000a900473ffffffffffffffffffffffffffffffffffffffff16905060006004600087815260200190815260200160002060030160009054906101000a900473ffffffffffffffffffffffffffffffffffffffff1690508073ffffffffffffffffffffffffffffffffffffffff168573ffffffffffffffffffffffffffffffffffffffff1614156116d6578473ffffffffffffffffffffffffffffffffffffffff166108fc606460623461169b919061253c565b6116a5919061250b565b9081150290604051600060405180830381858888f193505050501580156116d0573d6000803e3d6000fd5b50611795565b8073ffffffffffffffffffffffffffffffffffffffff166108fc60646014346116ff919061253c565b611709919061250b565b9081150290604051600060405180830381858888f19350505050158015611734573d6000803e3d6000fd5b508473ffffffffffffffffffffffffffffffffffffffff166108fc6064604e3461175e919061253c565b611768919061250b565b9081150290604051600060405180830381858888f19350505050158015611793573d6000803e3d6000fd5b505b8173ffffffffffffffffffffffffffffffffffffffff166323b872dd3033866040518463ffffffff1660e01b81526004016117d2939291906121fb565b600060405180830381600087803b1580156117ec57600080fd5b505af1158015611800573d6000803e3d6000fd5b50505050336004600088815260200190815260200160002060050160006101000a81548173ffffffffffffffffffffffffffffffffffffffff021916908373ffffffffffffffffffffffffffffffffffffffff16021790555060016004600088815260200190815260200160002060070160006101000a81548160ff02191690831515021790555061189260036119d6565b61189b866119ec565b5050505050600160008190555050565b60006118b760036119c8565b6118c160026119c8565b6118cb9190612596565b905090565b6118d8611ab9565b73ffffffffffffffffffffffffffffffffffffffff166118f66112fd565b73ffffffffffffffffffffffffffffffffffffffff161461194c576040517f08c379a000000000000000000000000000000000000000000000000000000000815260040161194390612354565b60405180910390fd5b600073ffffffffffffffffffffffffffffffffffffffff168173ffffffffffffffffffffffffffffffffffffffff1614156119bc576040517f08c379a00000000000000000000000000000000000000000000000000000000081526004016119b390612294565b60405180910390fd5b6119c581611ac1565b50565b600081600001549050919050565b6001816000016000828254019250508190555050565b60006119f860036119c8565b611a0260026119c8565b611a0c9190612596565b905060006006600084815260200190815260200160002054905060006005600084815260200190815260200160002054905060056000848152602001908152602001600020546005600084815260200190815260200160002081905550600060056000858152602001908152602001600020819055506000600660008681526020019081526020016000208190555081600660008381526020019081526020016000208190555050505050565b600033905090565b6000600160009054906101000a900473ffffffffffffffffffffffffffffffffffffffff16905081600160006101000a81548173ffffffffffffffffffffffffffffffffffffffff021916908373ffffffffffffffffffffffffffffffffffffffff1602179055508173ffffffffffffffffffffffffffffffffffffffff168173ffffffffffffffffffffffffffffffffffffffff167f8be0079c531659141344cd1fd0a4f28419497f9722a3daafe3b4186f6b6457e060405160405180910390a35050565b60405180610100016040528060008152602001600073ffffffffffffffffffffffffffffffffffffffff16815260200160008152602001600073ffffffffffffffffffffffffffffffffffffffff168152602001600073ffffffffffffffffffffffffffffffffffffffff168152602001600073ffffffffffffffffffffffffffffffffffffffff168152602001600081526020016000151581525090565b600081359050611c3581612a76565b92915050565b600081519050611c4a81612a76565b92915050565b600081359050611c5f81612a8d565b92915050565b600060208284031215611c7757600080fd5b6000611c8584828501611c26565b91505092915050565b600060208284031215611ca057600080fd5b6000611cae84828501611c3b565b91505092915050565b600080600060608486031215611ccc57600080fd5b6000611cda86828701611c26565b9350506020611ceb86828701611c50565b9250506040611cfc86828701611c50565b9150509250925092565b600060208284031215611d1857600080fd5b6000611d2684828501611c50565b91505092915050565b60008060408385031215611d4257600080fd5b6000611d5085828601611c50565b9250506020611d6185828601611c50565b9150509250929050565b6000611d77838361202b565b6101008301905092915050565b611d8d816125ca565b82525050565b611d9c816125ca565b82525050565b6000611dad8261247b565b611db78185612493565b9350611dc28361246b565b8060005b83811015611df3578151611dda8882611d6b565b9750611de583612486565b925050600181019050611dc6565b5085935050505092915050565b611e09816125dc565b82525050565b611e18816125dc565b82525050565b6000611e2b602e836124a4565b9150611e36826126b9565b604082019050919050565b6000611e4e6017836124a4565b9150611e5982612708565b602082019050919050565b6000611e716026836124a4565b9150611e7c82612731565b604082019050919050565b6000611e946030836124a4565b9150611e9f82612780565b604082019050919050565b6000611eb7601f836124a4565b9150611ec2826127cf565b602082019050919050565b6000611eda6036836124a4565b9150611ee5826127f8565b604082019050919050565b6000611efd6022836124a4565b9150611f0882612847565b604082019050919050565b6000611f206012836124a4565b9150611f2b82612896565b602082019050919050565b6000611f436020836124a4565b9150611f4e826128bf565b602082019050919050565b6000611f666031836124a4565b9150611f71826128e8565b604082019050919050565b6000611f896021836124a4565b9150611f9482612937565b604082019050919050565b6000611fac6038836124a4565b9150611fb782612986565b604082019050919050565b6000611fcf601d836124a4565b9150611fda826129d5565b602082019050919050565b6000611ff26021836124a4565b9150611ffd826129fe565b604082019050919050565b6000612015601f836124a4565b915061202082612a4d565b602082019050919050565b61010082016000820151612042600085018261216f565b5060208201516120556020850182611d84565b506040820151612068604085018261216f565b50606082015161207b6060850182611d84565b50608082015161208e6080850182611d84565b5060a08201516120a160a0850182611d84565b5060c08201516120b460c085018261216f565b5060e08201516120c760e0850182611e00565b50505050565b610100820160008201516120e4600085018261216f565b5060208201516120f76020850182611d84565b50604082015161210a604085018261216f565b50606082015161211d6060850182611d84565b5060808201516121306080850182611d84565b5060a082015161214360a0850182611d84565b5060c082015161215660c085018261216f565b5060e082015161216960e0850182611e00565b50505050565b61217881612608565b82525050565b61218781612608565b82525050565b60006020820190506121a26000830184611d93565b92915050565b600060a0820190506121bd6000830188611d93565b6121ca6020830187611d93565b6121d76040830186611d93565b6121e4606083018561217e565b6121f16080830184611e0f565b9695505050505050565b60006060820190506122106000830186611d93565b61221d6020830185611d93565b61222a604083018461217e565b949350505050565b6000602082019050818103600083015261224c8184611da2565b905092915050565b6000602082019050818103600083015261226d81611e1e565b9050919050565b6000602082019050818103600083015261228d81611e41565b9050919050565b600060208201905081810360008301526122ad81611e64565b9050919050565b600060208201905081810360008301526122cd81611e87565b9050919050565b600060208201905081810360008301526122ed81611eaa565b9050919050565b6000602082019050818103600083015261230d81611ecd565b9050919050565b6000602082019050818103600083015261232d81611ef0565b9050919050565b6000602082019050818103600083015261234d81611f13565b9050919050565b6000602082019050818103600083015261236d81611f36565b9050919050565b6000602082019050818103600083015261238d81611f59565b9050919050565b600060208201905081810360008301526123ad81611f7c565b9050919050565b600060208201905081810360008301526123cd81611f9f565b9050919050565b600060208201905081810360008301526123ed81611fc2565b9050919050565b6000602082019050818103600083015261240d81611fe5565b9050919050565b6000602082019050818103600083015261242d81612008565b9050919050565b60006101008201905061244a60008301846120cd565b92915050565b6000602082019050612465600083018461217e565b92915050565b6000819050602082019050919050565b600081519050919050565b6000602082019050919050565b600082825260208201905092915050565b600082825260208201905092915050565b60006124c082612608565b91506124cb83612608565b9250827fffffffffffffffffffffffffffffffffffffffffffffffffffffffffffffffff03821115612500576124ff61265b565b5b828201905092915050565b600061251682612608565b915061252183612608565b9250826125315761253061268a565b5b828204905092915050565b600061254782612608565b915061255283612608565b9250817fffffffffffffffffffffffffffffffffffffffffffffffffffffffffffffffff048311821515161561258b5761258a61265b565b5b828202905092915050565b60006125a182612608565b91506125ac83612608565b9250828210156125bf576125be61265b565b5b828203905092915050565b60006125d5826125e8565b9050919050565b60008115159050919050565b600073ffffffffffffffffffffffffffffffffffffffff82169050919050565b6000819050919050565b600061261d82612608565b91507fffffffffffffffffffffffffffffffffffffffffffffffffffffffffffffffff8214156126505761264f61265b565b5b600182019050919050565b7f4e487b7100000000000000000000000000000000000000000000000000000000600052601160045260246000fd5b7f4e487b7100000000000000000000000000000000000000000000000000000000600052601260045260246000fd5b7f596f75206d757374206f776e2074686520746f6b656e20796f7520617265207460008201527f7279696e6720746f2073656c6c2e000000000000000000000000000000000000602082015250565b7f706167652073697a65206f7574206f6620626f756e6473000000000000000000600082015250565b7f4f776e61626c653a206e6577206f776e657220697320746865207a65726f206160008201527f6464726573730000000000000000000000000000000000000000000000000000602082015250565b7f596f752063616e6e6f7420707572636861736520616e206974656d207468617460008201527f20646f6573206e6f742065786973742e00000000000000000000000000000000602082015250565b7f756e736f6c64206974656d20696e646578206f7574206f6620626f756e647300600082015250565b7f43616e6e6f742063616e63656c207468652073656c6c206f6620616e2069746560008201527f6d207468617420646f6573206e6f742065786973742e00000000000000000000602082015250565b7f596f752063616e6e6f7420707572636861736520796f7572206f776e2069746560008201527f6d2e000000000000000000000000000000000000000000000000000000000000602082015250565b7f70616765206f7574206f6620626f756e64730000000000000000000000000000600082015250565b7f4f776e61626c653a2063616c6c6572206973206e6f7420746865206f776e6572600082015250565b7f596f752063616e6e6f7420707572636861736520616e206974656d207468617460008201527f206973206e6f7420666f722073656c6c2e000000000000000000000000000000602082015250565b7f596f75206d757374207375626d6974207468652061736b696e6720707269636560008201527f2e00000000000000000000000000000000000000000000000000000000000000602082015250565b7f43616e6e6f742063616e63656c207468652073656c6c206f6620616e2069746560008201527f6d20746861742068617320616c726561647920736f6c642e0000000000000000602082015250565b7f5072696365206d7573742062652067726561746572207468616e20302e000000600082015250565b7f4f6e6c79207468652073656c6c65722063616e2063616e63656c20612073656c60008201527f6c00000000000000000000000000000000000000000000000000000000000000602082015250565b7f5265656e7472616e637947756172643a207265656e7472616e742063616c6c00600082015250565b612a7f816125ca565b8114612a8a57600080fd5b50565b612a9681612608565b8114612aa157600080fd5b5056fea2646970667358221220aeded1a7387bb1eab83cb0ad120e297de7b06abd92a0da60b488deacaeb25c2c64736f6c63430008040033",
  "linkReferences": {},
  "deployedLinkReferences": {}
}