{
  "_format": "hh-sol-artifact-1",
  "contractName": "GNFTMarket",
  "sourceName": "contracts/GNFTMarket.sol",
  "abi": [
    {
      "inputs": [],
      "stateMutability": "nonpayable",
      "type": "constructor"
    },
    {
      "anonymous": false,
      "inputs": [
        {
          "indexed": true,
          "internalType": "uint256",
          "name": "itemId",
          "type": "uint256"
        },
        {
          "indexed": true,
          "internalType": "address",
          "name": "tokenContract",
          "type": "address"
        },
        {
          "indexed": true,
          "internalType": "uint256",
          "name": "tokenId",
          "type": "uint256"
        },
        {
          "indexed": false,
          "internalType": "address",
          "name": "artist",
          "type": "address"
        },
        {
          "indexed": false,
          "internalType": "address",
          "name": "seller",
          "type": "address"
        },
        {
          "indexed": false,
          "internalType": "address",
          "name": "owner",
          "type": "address"
        },
        {
          "indexed": false,
          "internalType": "uint256",
          "name": "price",
          "type": "uint256"
        },
        {
          "indexed": false,
          "internalType": "bool",
          "name": "",
          "type": "bool"
        }
      ],
      "name": "ItemCreated",
      "type": "event"
    },
    {
      "inputs": [
        {
          "internalType": "uint256",
          "name": "itemId",
          "type": "uint256"
        }
      ],
      "name": "cancelSell",
      "outputs": [],
      "stateMutability": "nonpayable",
      "type": "function"
    },
    {
      "inputs": [],
      "name": "cashOut",
      "outputs": [],
      "stateMutability": "nonpayable",
      "type": "function"
    },
    {
      "inputs": [
        {
          "internalType": "uint256",
          "name": "tokenId",
          "type": "uint256"
        }
      ],
      "name": "getGNFTItem",
      "outputs": [
        {
          "components": [
            {
              "internalType": "uint256",
              "name": "itemId",
              "type": "uint256"
            },
            {
              "internalType": "address",
              "name": "tokenContract",
              "type": "address"
            },
            {
              "internalType": "uint256",
              "name": "tokenId",
              "type": "uint256"
            },
            {
              "internalType": "address",
              "name": "artist",
              "type": "address"
            },
            {
              "internalType": "address",
              "name": "seller",
              "type": "address"
            },
            {
              "internalType": "address",
              "name": "owner",
              "type": "address"
            },
            {
              "internalType": "uint256",
              "name": "price",
              "type": "uint256"
            },
            {
              "internalType": "bool",
              "name": "sold",
              "type": "bool"
            }
          ],
          "internalType": "struct GNFTMarket.Item",
          "name": "",
          "type": "tuple"
        }
      ],
      "stateMutability": "view",
      "type": "function"
    },
    {
      "inputs": [],
      "name": "getItems",
      "outputs": [
        {
          "components": [
            {
              "internalType": "uint256",
              "name": "itemId",
              "type": "uint256"
            },
            {
              "internalType": "address",
              "name": "tokenContract",
              "type": "address"
            },
            {
              "internalType": "uint256",
              "name": "tokenId",
              "type": "uint256"
            },
            {
              "internalType": "address",
              "name": "artist",
              "type": "address"
            },
            {
              "internalType": "address",
              "name": "seller",
              "type": "address"
            },
            {
              "internalType": "address",
              "name": "owner",
              "type": "address"
            },
            {
              "internalType": "uint256",
              "name": "price",
              "type": "uint256"
            },
            {
              "internalType": "bool",
              "name": "sold",
              "type": "bool"
            }
          ],
          "internalType": "struct GNFTMarket.Item[]",
          "name": "",
          "type": "tuple[]"
        }
      ],
      "stateMutability": "view",
      "type": "function"
    },
    {
      "inputs": [],
      "name": "getMarketOwner",
      "outputs": [
        {
          "internalType": "address",
          "name": "",
          "type": "address"
        }
      ],
      "stateMutability": "view",
      "type": "function"
    },
    {
      "inputs": [],
      "name": "getTotalUnsoldItems",
      "outputs": [
        {
          "internalType": "uint256",
          "name": "",
          "type": "uint256"
        }
      ],
      "stateMutability": "view",
      "type": "function"
    },
    {
      "inputs": [
        {
          "internalType": "uint256",
          "name": "idx",
          "type": "uint256"
        }
      ],
      "name": "getUnsoldItemByIndex",
      "outputs": [
        {
          "internalType": "uint256",
          "name": "",
          "type": "uint256"
        }
      ],
      "stateMutability": "view",
      "type": "function"
    },
    {
      "inputs": [
        {
          "internalType": "address",
          "name": "tokenContract",
          "type": "address"
        },
        {
          "internalType": "uint256",
          "name": "tokenId",
          "type": "uint256"
        },
        {
          "internalType": "uint256",
          "name": "price",
          "type": "uint256"
        }
      ],
      "name": "listItem",
      "outputs": [],
      "stateMutability": "nonpayable",
      "type": "function"
    },
    {
      "inputs": [
        {
          "internalType": "uint256",
          "name": "itemId",
          "type": "uint256"
        }
      ],
      "name": "purchaseItem",
      "outputs": [],
      "stateMutability": "payable",
      "type": "function"
    }
  ],
  "bytecode": "0x608060405234801561001057600080fd5b50600160008190555033600360006101000a81548173ffffffffffffffffffffffffffffffffffffffff021916908373ffffffffffffffffffffffffffffffffffffffff1602179055506125b6806100696000396000f3fe6080604052600436106100865760003560e01c80638966dcc2116100595780638966dcc21461012157806389bfd38f1461015e5780639c9a6a4414610187578063d38ea5bf146101c4578063e20f807b146101e057610086565b806307c9cd451461008b578063410d59cc146100b4578063451e9cf0146100df578063793cd71e1461010a575b600080fd5b34801561009757600080fd5b506100b260048036038101906100ad9190611962565b61020b565b005b3480156100c057600080fd5b506100c961051c565b6040516100d69190611de9565b60405180910390f35b3480156100eb57600080fd5b506100f4610852565b6040516101019190611d44565b60405180910390f35b34801561011657600080fd5b5061011f61087c565b005b34801561012d57600080fd5b5061014860048036038101906101439190611962565b610977565b6040516101559190611f8b565b60405180910390f35b34801561016a57600080fd5b5061018560048036038101906101809190611913565b610bfd565b005b34801561019357600080fd5b506101ae60048036038101906101a99190611962565b611172565b6040516101bb9190611fa7565b60405180910390f35b6101de60048036038101906101d99190611962565b6111f3565b005b3480156101ec57600080fd5b506101f56116f6565b6040516102029190611fa7565b60405180910390f35b60026000541415610251576040517f08c379a000000000000000000000000000000000000000000000000000000000815260040161024890611f6b565b60405180910390fd5b6002600081905550610263600161171b565b8111156102a5576040517f08c379a000000000000000000000000000000000000000000000000000000000815260040161029c90611e8b565b60405180910390fd5b6004600082815260200190815260200160002060070160009054906101000a900460ff1615610309576040517f08c379a000000000000000000000000000000000000000000000000000000000815260040161030090611f0b565b60405180910390fd5b60006004600083815260200190815260200160002060040160009054906101000a900473ffffffffffffffffffffffffffffffffffffffff1690508073ffffffffffffffffffffffffffffffffffffffff163373ffffffffffffffffffffffffffffffffffffffff16146103b2576040517f08c379a00000000000000000000000000000000000000000000000000000000081526004016103a990611f4b565b60405180910390fd5b60006004600084815260200190815260200160002060020154905060006004600085815260200190815260200160002060010160009054906101000a900473ffffffffffffffffffffffffffffffffffffffff1690508073ffffffffffffffffffffffffffffffffffffffff166323b872dd3033856040518463ffffffff1660e01b815260040161044593929190611db2565b600060405180830381600087803b15801561045f57600080fd5b505af1158015610473573d6000803e3d6000fd5b50505050336004600086815260200190815260200160002060050160006101000a81548173ffffffffffffffffffffffffffffffffffffffff021916908373ffffffffffffffffffffffffffffffffffffffff16021790555060016004600086815260200190815260200160002060070160006101000a81548160ff0219169083151502179055506105056002611729565b61050e8461173f565b505050600160008190555050565b6060600061052a600161171b565b90506000610538600261171b565b8261054391906120ed565b905060008167ffffffffffffffff811115610587577f4e487b7100000000000000000000000000000000000000000000000000000000600052604160045260246000fd5b6040519080825280602002602001820160405280156105c057816020015b6105ad61180c565b8152602001906001900390816105a55790505b50905060008060005b85821080156105d757508481105b1561084657600460006001846105ed919061200c565b815260200190815260200160002060070160009054906101000a900460ff1661082557600060046000600185610623919061200c565b815260200190815260200160002090508060405180610100016040529081600082015481526020016001820160009054906101000a900473ffffffffffffffffffffffffffffffffffffffff1673ffffffffffffffffffffffffffffffffffffffff1673ffffffffffffffffffffffffffffffffffffffff168152602001600282015481526020016003820160009054906101000a900473ffffffffffffffffffffffffffffffffffffffff1673ffffffffffffffffffffffffffffffffffffffff1673ffffffffffffffffffffffffffffffffffffffff1681526020016004820160009054906101000a900473ffffffffffffffffffffffffffffffffffffffff1673ffffffffffffffffffffffffffffffffffffffff1673ffffffffffffffffffffffffffffffffffffffff1681526020016005820160009054906101000a900473ffffffffffffffffffffffffffffffffffffffff1673ffffffffffffffffffffffffffffffffffffffff1673ffffffffffffffffffffffffffffffffffffffff168152602001600682015481526020016007820160009054906101000a900460ff16151515158152505085858151811061080a577f4e487b7100000000000000000000000000000000000000000000000000000000600052603260045260246000fd5b6020026020010181905250838061082090612169565b945050505b818061083090612169565b925050808061083e90612169565b9150506105c9565b83965050505050505090565b6000600360009054906101000a900473ffffffffffffffffffffffffffffffffffffffff16905090565b600360009054906101000a900473ffffffffffffffffffffffffffffffffffffffff1673ffffffffffffffffffffffffffffffffffffffff163373ffffffffffffffffffffffffffffffffffffffff161461090c576040517f08c379a000000000000000000000000000000000000000000000000000000000815260040161090390611e4b565b60405180910390fd5b600360009054906101000a900473ffffffffffffffffffffffffffffffffffffffff1673ffffffffffffffffffffffffffffffffffffffff166108fc479081150290604051600060405180830381858888f19350505050158015610974573d6000803e3d6000fd5b50565b61097f61180c565b6000600760008481526020019081526020016000205490506000811415610a445760405180610100016040528060008152602001600073ffffffffffffffffffffffffffffffffffffffff16815260200160008152602001600073ffffffffffffffffffffffffffffffffffffffff168152602001600073ffffffffffffffffffffffffffffffffffffffff168152602001600073ffffffffffffffffffffffffffffffffffffffff1681526020016000815260200160001515815250915050610bf8565b6004600082815260200190815260200160002060405180610100016040529081600082015481526020016001820160009054906101000a900473ffffffffffffffffffffffffffffffffffffffff1673ffffffffffffffffffffffffffffffffffffffff1673ffffffffffffffffffffffffffffffffffffffff168152602001600282015481526020016003820160009054906101000a900473ffffffffffffffffffffffffffffffffffffffff1673ffffffffffffffffffffffffffffffffffffffff1673ffffffffffffffffffffffffffffffffffffffff1681526020016004820160009054906101000a900473ffffffffffffffffffffffffffffffffffffffff1673ffffffffffffffffffffffffffffffffffffffff1673ffffffffffffffffffffffffffffffffffffffff1681526020016005820160009054906101000a900473ffffffffffffffffffffffffffffffffffffffff1673ffffffffffffffffffffffffffffffffffffffff1673ffffffffffffffffffffffffffffffffffffffff168152602001600682015481526020016007820160009054906101000a900460ff1615151515815250509150505b919050565b60026000541415610c43576040517f08c379a0000000000000000000000000000000000000000000000000000000008152600401610c3a90611f6b565b60405180910390fd5b600260008190555060008111610c8e576040517f08c379a0000000000000000000000000000000000000000000000000000000008152600401610c8590611f2b565b60405180910390fd5b3373ffffffffffffffffffffffffffffffffffffffff168373ffffffffffffffffffffffffffffffffffffffff16636352211e846040518263ffffffff1660e01b8152600401610cde9190611fa7565b60206040518083038186803b158015610cf657600080fd5b505afa158015610d0a573d6000803e3d6000fd5b505050506040513d601f19601f82011682018060405250810190610d2e91906118ea565b73ffffffffffffffffffffffffffffffffffffffff1614610d84576040517f08c379a0000000000000000000000000000000000000000000000000000000008152600401610d7b90611e0b565b60405180910390fd5b6000610d90600261171b565b610d9a600161171b565b610da491906120ed565b9050610db06001611729565b6000610dbc600161171b565b905060008573ffffffffffffffffffffffffffffffffffffffff1663757d0537866040518263ffffffff1660e01b8152600401610df99190611fa7565b60206040518083038186803b158015610e1157600080fd5b505afa158015610e25573d6000803e3d6000fd5b505050506040513d601f19601f82011682018060405250810190610e4991906118ea565b90506040518061010001604052808381526020018773ffffffffffffffffffffffffffffffffffffffff1681526020018681526020018273ffffffffffffffffffffffffffffffffffffffff1681526020013373ffffffffffffffffffffffffffffffffffffffff168152602001600073ffffffffffffffffffffffffffffffffffffffff16815260200185815260200160001515815250600460008481526020019081526020016000206000820151816000015560208201518160010160006101000a81548173ffffffffffffffffffffffffffffffffffffffff021916908373ffffffffffffffffffffffffffffffffffffffff1602179055506040820151816002015560608201518160030160006101000a81548173ffffffffffffffffffffffffffffffffffffffff021916908373ffffffffffffffffffffffffffffffffffffffff16021790555060808201518160040160006101000a81548173ffffffffffffffffffffffffffffffffffffffff021916908373ffffffffffffffffffffffffffffffffffffffff16021790555060a08201518160050160006101000a81548173ffffffffffffffffffffffffffffffffffffffff021916908373ffffffffffffffffffffffffffffffffffffffff16021790555060c0820151816006015560e08201518160070160006101000a81548160ff0219169083151502179055509050508160076000878152602001908152602001600020819055508260066000878152602001908152602001600020819055508160056000858152602001908152602001600020819055508573ffffffffffffffffffffffffffffffffffffffff166323b872dd3330886040518463ffffffff1660e01b81526004016110d693929190611db2565b600060405180830381600087803b1580156110f057600080fd5b505af1158015611104573d6000803e3d6000fd5b50505050848673ffffffffffffffffffffffffffffffffffffffff16837f591fed4983f2ff2b12e8ddb870a112e77ea0fbad747ac7a6b1b209e68e32a78e843360008a600060405161115a959493929190611d5f565b60405180910390a45050506001600081905550505050565b60008061117f600261171b565b611189600161171b565b61119391906120ed565b90508083106111d7576040517f08c379a00000000000000000000000000000000000000000000000000000000081526004016111ce90611e6b565b60405180910390fd5b6005600084815260200190815260200160002054915050919050565b60026000541415611239576040517f08c379a000000000000000000000000000000000000000000000000000000000815260040161123090611f6b565b60405180910390fd5b600260008190555061124b600161171b565b81111561128d576040517f08c379a000000000000000000000000000000000000000000000000000000000815260040161128490611e2b565b60405180910390fd5b6004600082815260200190815260200160002060070160009054906101000a900460ff16156112f1576040517f08c379a00000000000000000000000000000000000000000000000000000000081526004016112e890611ecb565b60405180910390fd5b60006004600083815260200190815260200160002060040160009054906101000a900473ffffffffffffffffffffffffffffffffffffffff1690506000600460008481526020019081526020016000206006015490508173ffffffffffffffffffffffffffffffffffffffff163373ffffffffffffffffffffffffffffffffffffffff1614156113b6576040517f08c379a00000000000000000000000000000000000000000000000000000000081526004016113ad90611eab565b60405180910390fd5b8034146113f8576040517f08c379a00000000000000000000000000000000000000000000000000000000081526004016113ef90611eeb565b60405180910390fd5b60006004600085815260200190815260200160002060020154905060006004600086815260200190815260200160002060010160009054906101000a900473ffffffffffffffffffffffffffffffffffffffff16905060006004600087815260200190815260200160002060030160009054906101000a900473ffffffffffffffffffffffffffffffffffffffff1690508073ffffffffffffffffffffffffffffffffffffffff168573ffffffffffffffffffffffffffffffffffffffff161415611521578473ffffffffffffffffffffffffffffffffffffffff166108fc60646062346114e69190612093565b6114f09190612062565b9081150290604051600060405180830381858888f1935050505015801561151b573d6000803e3d6000fd5b506115e0565b8073ffffffffffffffffffffffffffffffffffffffff166108fc606460143461154a9190612093565b6115549190612062565b9081150290604051600060405180830381858888f1935050505015801561157f573d6000803e3d6000fd5b508473ffffffffffffffffffffffffffffffffffffffff166108fc6064604e346115a99190612093565b6115b39190612062565b9081150290604051600060405180830381858888f193505050501580156115de573d6000803e3d6000fd5b505b8173ffffffffffffffffffffffffffffffffffffffff166323b872dd3033866040518463ffffffff1660e01b815260040161161d93929190611db2565b600060405180830381600087803b15801561163757600080fd5b505af115801561164b573d6000803e3d6000fd5b50505050336004600088815260200190815260200160002060050160006101000a81548173ffffffffffffffffffffffffffffffffffffffff021916908373ffffffffffffffffffffffffffffffffffffffff16021790555060016004600088815260200190815260200160002060070160006101000a81548160ff0219169083151502179055506116dd6002611729565b6116e68661173f565b5050505050600160008190555050565b6000611702600261171b565b61170c600161171b565b61171691906120ed565b905090565b600081600001549050919050565b6001816000016000828254019250508190555050565b600061174b600261171b565b611755600161171b565b61175f91906120ed565b905060006006600084815260200190815260200160002054905060006005600084815260200190815260200160002054905060056000848152602001908152602001600020546005600084815260200190815260200160002081905550600060056000858152602001908152602001600020819055506000600660008681526020019081526020016000208190555081600660008381526020019081526020016000208190555050505050565b60405180610100016040528060008152602001600073ffffffffffffffffffffffffffffffffffffffff16815260200160008152602001600073ffffffffffffffffffffffffffffffffffffffff168152602001600073ffffffffffffffffffffffffffffffffffffffff168152602001600073ffffffffffffffffffffffffffffffffffffffff168152602001600081526020016000151581525090565b6000813590506118ba81612552565b92915050565b6000815190506118cf81612552565b92915050565b6000813590506118e481612569565b92915050565b6000602082840312156118fc57600080fd5b600061190a848285016118c0565b91505092915050565b60008060006060848603121561192857600080fd5b6000611936868287016118ab565b9350506020611947868287016118d5565b9250506040611958868287016118d5565b9150509250925092565b60006020828403121561197457600080fd5b6000611982848285016118d5565b91505092915050565b60006119978383611be2565b6101008301905092915050565b6119ad81612121565b82525050565b6119bc81612121565b82525050565b60006119cd82611fd2565b6119d78185611fea565b93506119e283611fc2565b8060005b83811015611a135781516119fa888261198b565b9750611a0583611fdd565b9250506001810190506119e6565b5085935050505092915050565b611a2981612133565b82525050565b611a3881612133565b82525050565b6000611a4b602e83611ffb565b9150611a5682612210565b604082019050919050565b6000611a6e603083611ffb565b9150611a798261225f565b604082019050919050565b6000611a91602583611ffb565b9150611a9c826122ae565b604082019050919050565b6000611ab4601f83611ffb565b9150611abf826122fd565b602082019050919050565b6000611ad7603683611ffb565b9150611ae282612326565b604082019050919050565b6000611afa602283611ffb565b9150611b0582612375565b604082019050919050565b6000611b1d603183611ffb565b9150611b28826123c4565b604082019050919050565b6000611b40602183611ffb565b9150611b4b82612413565b604082019050919050565b6000611b63603883611ffb565b9150611b6e82612462565b604082019050919050565b6000611b86601d83611ffb565b9150611b91826124b1565b602082019050919050565b6000611ba9602183611ffb565b9150611bb4826124da565b604082019050919050565b6000611bcc601f83611ffb565b9150611bd782612529565b602082019050919050565b61010082016000820151611bf96000850182611d26565b506020820151611c0c60208501826119a4565b506040820151611c1f6040850182611d26565b506060820151611c3260608501826119a4565b506080820151611c4560808501826119a4565b5060a0820151611c5860a08501826119a4565b5060c0820151611c6b60c0850182611d26565b5060e0820151611c7e60e0850182611a20565b50505050565b61010082016000820151611c9b6000850182611d26565b506020820151611cae60208501826119a4565b506040820151611cc16040850182611d26565b506060820151611cd460608501826119a4565b506080820151611ce760808501826119a4565b5060a0820151611cfa60a08501826119a4565b5060c0820151611d0d60c0850182611d26565b5060e0820151611d2060e0850182611a20565b50505050565b611d2f8161215f565b82525050565b611d3e8161215f565b82525050565b6000602082019050611d5960008301846119b3565b92915050565b600060a082019050611d7460008301886119b3565b611d8160208301876119b3565b611d8e60408301866119b3565b611d9b6060830185611d35565b611da86080830184611a2f565b9695505050505050565b6000606082019050611dc760008301866119b3565b611dd460208301856119b3565b611de16040830184611d35565b949350505050565b60006020820190508181036000830152611e0381846119c2565b905092915050565b60006020820190508181036000830152611e2481611a3e565b9050919050565b60006020820190508181036000830152611e4481611a61565b9050919050565b60006020820190508181036000830152611e6481611a84565b9050919050565b60006020820190508181036000830152611e8481611aa7565b9050919050565b60006020820190508181036000830152611ea481611aca565b9050919050565b60006020820190508181036000830152611ec481611aed565b9050919050565b60006020820190508181036000830152611ee481611b10565b9050919050565b60006020820190508181036000830152611f0481611b33565b9050919050565b60006020820190508181036000830152611f2481611b56565b9050919050565b60006020820190508181036000830152611f4481611b79565b9050919050565b60006020820190508181036000830152611f6481611b9c565b9050919050565b60006020820190508181036000830152611f8481611bbf565b9050919050565b600061010082019050611fa16000830184611c84565b92915050565b6000602082019050611fbc6000830184611d35565b92915050565b6000819050602082019050919050565b600081519050919050565b6000602082019050919050565b600082825260208201905092915050565b600082825260208201905092915050565b60006120178261215f565b91506120228361215f565b9250827fffffffffffffffffffffffffffffffffffffffffffffffffffffffffffffffff03821115612057576120566121b2565b5b828201905092915050565b600061206d8261215f565b91506120788361215f565b925082612088576120876121e1565b5b828204905092915050565b600061209e8261215f565b91506120a98361215f565b9250817fffffffffffffffffffffffffffffffffffffffffffffffffffffffffffffffff04831182151516156120e2576120e16121b2565b5b828202905092915050565b60006120f88261215f565b91506121038361215f565b925082821015612116576121156121b2565b5b828203905092915050565b600061212c8261213f565b9050919050565b60008115159050919050565b600073ffffffffffffffffffffffffffffffffffffffff82169050919050565b6000819050919050565b60006121748261215f565b91507fffffffffffffffffffffffffffffffffffffffffffffffffffffffffffffffff8214156121a7576121a66121b2565b5b600182019050919050565b7f4e487b7100000000000000000000000000000000000000000000000000000000600052601160045260246000fd5b7f4e487b7100000000000000000000000000000000000000000000000000000000600052601260045260246000fd5b7f596f75206d757374206f776e2074686520746f6b656e20796f7520617265207460008201527f7279696e6720746f2073656c6c2e000000000000000000000000000000000000602082015250565b7f596f752063616e6e6f7420707572636861736520616e206974656d207468617460008201527f20646f6573206e6f742065786973742e00000000000000000000000000000000602082015250565b7f4f6e6c7920746865206f776e65722063616e20636173686f757420746865206d60008201527f61726b6574000000000000000000000000000000000000000000000000000000602082015250565b7f756e736f6c64206974656d20696e646578206f7574206f6620626f756e647300600082015250565b7f43616e6e6f742063616e63656c207468652073656c6c206f6620616e2069746560008201527f6d207468617420646f6573206e6f742065786973742e00000000000000000000602082015250565b7f596f752063616e6e6f7420707572636861736520796f7572206f776e2069746560008201527f6d2e000000000000000000000000000000000000000000000000000000000000602082015250565b7f596f752063616e6e6f7420707572636861736520616e206974656d207468617460008201527f206973206e6f7420666f722073656c6c2e000000000000000000000000000000602082015250565b7f596f75206d757374207375626d6974207468652061736b696e6720707269636560008201527f2e00000000000000000000000000000000000000000000000000000000000000602082015250565b7f43616e6e6f742063616e63656c207468652073656c6c206f6620616e2069746560008201527f6d20746861742068617320616c726561647920736f6c642e0000000000000000602082015250565b7f5072696365206d7573742062652067726561746572207468616e20302e000000600082015250565b7f4f6e6c79207468652073656c6c65722063616e2063616e63656c20612073656c60008201527f6c00000000000000000000000000000000000000000000000000000000000000602082015250565b7f5265656e7472616e637947756172643a207265656e7472616e742063616c6c00600082015250565b61255b81612121565b811461256657600080fd5b50565b6125728161215f565b811461257d57600080fd5b5056fea264697066735822122010c0e2901bb655b8ee02e063ab1d0a56bebc5e6bb828c07c730596b432efb94b64736f6c63430008040033",
  "linkReferences": {},
  "deployedLinkReferences": {}
}