{
  "_format": "hh-sol-artifact-1",
  "contractName": "GNFT",
  "sourceName": "contracts/GNFT.sol",
  "abi": [
    {
      "inputs": [],
      "stateMutability": "nonpayable",
      "type": "constructor"
    },
    {
      "anonymous": false,
      "inputs": [
        {
          "indexed": true,
          "internalType": "address",
          "name": "owner",
          "type": "address"
        },
        {
          "indexed": true,
          "internalType": "address",
          "name": "approved",
          "type": "address"
        },
        {
          "indexed": true,
          "internalType": "uint256",
          "name": "tokenId",
          "type": "uint256"
        }
      ],
      "name": "Approval",
      "type": "event"
    },
    {
      "anonymous": false,
      "inputs": [
        {
          "indexed": true,
          "internalType": "address",
          "name": "owner",
          "type": "address"
        },
        {
          "indexed": true,
          "internalType": "address",
          "name": "operator",
          "type": "address"
        },
        {
          "indexed": false,
          "internalType": "bool",
          "name": "approved",
          "type": "bool"
        }
      ],
      "name": "ApprovalForAll",
      "type": "event"
    },
    {
      "anonymous": false,
      "inputs": [
        {
          "indexed": true,
          "internalType": "address",
          "name": "from",
          "type": "address"
        },
        {
          "indexed": true,
          "internalType": "address",
          "name": "to",
          "type": "address"
        },
        {
          "indexed": true,
          "internalType": "uint256",
          "name": "tokenId",
          "type": "uint256"
        }
      ],
      "name": "Transfer",
      "type": "event"
    },
    {
      "inputs": [
        {
          "internalType": "address",
          "name": "to",
          "type": "address"
        },
        {
          "internalType": "uint256",
          "name": "tokenId",
          "type": "uint256"
        }
      ],
      "name": "approve",
      "outputs": [],
      "stateMutability": "nonpayable",
      "type": "function"
    },
    {
      "inputs": [
        {
          "internalType": "address",
          "name": "owner",
          "type": "address"
        }
      ],
      "name": "balanceOf",
      "outputs": [
        {
          "internalType": "uint256",
          "name": "",
          "type": "uint256"
        }
      ],
      "stateMutability": "view",
      "type": "function"
    },
    {
      "inputs": [
        {
          "internalType": "uint256",
          "name": "tokenId",
          "type": "uint256"
        }
      ],
      "name": "getApproved",
      "outputs": [
        {
          "internalType": "address",
          "name": "",
          "type": "address"
        }
      ],
      "stateMutability": "view",
      "type": "function"
    },
    {
      "inputs": [
        {
          "internalType": "uint256",
          "name": "id",
          "type": "uint256"
        }
      ],
      "name": "getArtistOf",
      "outputs": [
        {
          "internalType": "address",
          "name": "",
          "type": "address"
        }
      ],
      "stateMutability": "view",
      "type": "function"
    },
    {
      "inputs": [
        {
          "internalType": "address",
          "name": "owner",
          "type": "address"
        },
        {
          "internalType": "address",
          "name": "operator",
          "type": "address"
        }
      ],
      "name": "isApprovedForAll",
      "outputs": [
        {
          "internalType": "bool",
          "name": "",
          "type": "bool"
        }
      ],
      "stateMutability": "view",
      "type": "function"
    },
    {
      "inputs": [
        {
          "internalType": "string",
          "name": "_tokenURI",
          "type": "string"
        }
      ],
      "name": "mintToken",
      "outputs": [
        {
          "internalType": "uint256",
          "name": "",
          "type": "uint256"
        }
      ],
      "stateMutability": "nonpayable",
      "type": "function"
    },
    {
      "inputs": [],
      "name": "name",
      "outputs": [
        {
          "internalType": "string",
          "name": "",
          "type": "string"
        }
      ],
      "stateMutability": "view",
      "type": "function"
    },
    {
      "inputs": [
        {
          "internalType": "uint256",
          "name": "tokenId",
          "type": "uint256"
        }
      ],
      "name": "ownerOf",
      "outputs": [
        {
          "internalType": "address",
          "name": "",
          "type": "address"
        }
      ],
      "stateMutability": "view",
      "type": "function"
    },
    {
      "inputs": [
        {
          "internalType": "address",
          "name": "from",
          "type": "address"
        },
        {
          "internalType": "address",
          "name": "to",
          "type": "address"
        },
        {
          "internalType": "uint256",
          "name": "tokenId",
          "type": "uint256"
        }
      ],
      "name": "safeTransferFrom",
      "outputs": [],
      "stateMutability": "nonpayable",
      "type": "function"
    },
    {
      "inputs": [
        {
          "internalType": "address",
          "name": "from",
          "type": "address"
        },
        {
          "internalType": "address",
          "name": "to",
          "type": "address"
        },
        {
          "internalType": "uint256",
          "name": "tokenId",
          "type": "uint256"
        },
        {
          "internalType": "bytes",
          "name": "_data",
          "type": "bytes"
        }
      ],
      "name": "safeTransferFrom",
      "outputs": [],
      "stateMutability": "nonpayable",
      "type": "function"
    },
    {
      "inputs": [
        {
          "internalType": "address",
          "name": "operator",
          "type": "address"
        },
        {
          "internalType": "bool",
          "name": "approved",
          "type": "bool"
        }
      ],
      "name": "setApprovalForAll",
      "outputs": [],
      "stateMutability": "nonpayable",
      "type": "function"
    },
    {
      "inputs": [
        {
          "internalType": "bytes4",
          "name": "interfaceId",
          "type": "bytes4"
        }
      ],
      "name": "supportsInterface",
      "outputs": [
        {
          "internalType": "bool",
          "name": "",
          "type": "bool"
        }
      ],
      "stateMutability": "view",
      "type": "function"
    },
    {
      "inputs": [],
      "name": "symbol",
      "outputs": [
        {
          "internalType": "string",
          "name": "",
          "type": "string"
        }
      ],
      "stateMutability": "view",
      "type": "function"
    },
    {
      "inputs": [
        {
          "internalType": "uint256",
          "name": "index",
          "type": "uint256"
        }
      ],
      "name": "tokenByIndex",
      "outputs": [
        {
          "internalType": "uint256",
          "name": "",
          "type": "uint256"
        }
      ],
      "stateMutability": "view",
      "type": "function"
    },
    {
      "inputs": [
        {
          "internalType": "address",
          "name": "owner",
          "type": "address"
        },
        {
          "internalType": "uint256",
          "name": "index",
          "type": "uint256"
        }
      ],
      "name": "tokenOfOwnerByIndex",
      "outputs": [
        {
          "internalType": "uint256",
          "name": "",
          "type": "uint256"
        }
      ],
      "stateMutability": "view",
      "type": "function"
    },
    {
      "inputs": [
        {
          "internalType": "uint256",
          "name": "id",
          "type": "uint256"
        }
      ],
      "name": "tokenURI",
      "outputs": [
        {
          "internalType": "string",
          "name": "",
          "type": "string"
        }
      ],
      "stateMutability": "view",
      "type": "function"
    },
    {
      "inputs": [],
      "name": "totalSupply",
      "outputs": [
        {
          "internalType": "uint256",
          "name": "",
          "type": "uint256"
        }
      ],
      "stateMutability": "view",
      "type": "function"
    },
    {
      "inputs": [
        {
          "internalType": "address",
          "name": "from",
          "type": "address"
        },
        {
          "internalType": "address",
          "name": "to",
          "type": "address"
        },
        {
          "internalType": "uint256",
          "name": "tokenId",
          "type": "uint256"
        }
      ],
      "name": "transferFrom",
      "outputs": [],
      "stateMutability": "nonpayable",
      "type": "function"
    }
  ],
  "bytecode": "0x60806040523480156200001157600080fd5b506040518060400160405280600581526020017f47654e46540000000000000000000000000000000000000000000000000000008152506040518060400160405280600481526020017f474e465400000000000000000000000000000000000000000000000000000000815250816000908051906020019062000096929190620000b8565b508060019080519060200190620000af929190620000b8565b505050620001cd565b828054620000c69062000168565b90600052602060002090601f016020900481019282620000ea576000855562000136565b82601f106200010557805160ff191683800117855562000136565b8280016001018555821562000136579182015b828111156200013557825182559160200191906001019062000118565b5b50905062000145919062000149565b5090565b5b80821115620001645760008160009055506001016200014a565b5090565b600060028204905060018216806200018157607f821691505b602082108114156200019857620001976200019e565b5b50919050565b7f4e487b7100000000000000000000000000000000000000000000000000000000600052602260045260246000fd5b6134f180620001dd6000396000f3fe608060405234801561001057600080fd5b50600436106101165760003560e01c80634f6ccce7116100a257806395d89b411161007157806395d89b411461032b578063a22cb46514610349578063b88d4fde14610365578063c87b56dd14610381578063e985e9c5146103b157610116565b80634f6ccce71461026b5780636352211e1461029b57806370a08231146102cb578063757d0537146102fb57610116565b806318160ddd116100e957806318160ddd146101b557806323b872dd146101d35780632f745c59146101ef57806333eba49a1461021f57806342842e0e1461024f57610116565b806301ffc9a71461011b57806306fdde031461014b578063081812fc14610169578063095ea7b314610199575b600080fd5b61013560048036038101906101309190612439565b6103e1565b60405161014291906128c6565b60405180910390f35b6101536103f3565b60405161016091906128e1565b60405180910390f35b610183600480360381019061017e91906124cc565b610485565b604051610190919061285f565b60405180910390f35b6101b360048036038101906101ae91906123fd565b61050a565b005b6101bd610622565b6040516101ca9190612b43565b60405180910390f35b6101ed60048036038101906101e891906122f7565b61062f565b005b610209600480360381019061020491906123fd565b61068f565b6040516102169190612b43565b60405180910390f35b6102396004803603810190610234919061248b565b610734565b6040516102469190612b43565b60405180910390f35b610269600480360381019061026491906122f7565b610775565b005b610285600480360381019061028091906124cc565b610795565b6040516102929190612b43565b60405180910390f35b6102b560048036038101906102b091906124cc565b61082c565b6040516102c2919061285f565b60405180910390f35b6102e560048036038101906102e09190612292565b6108de565b6040516102f29190612b43565b60405180910390f35b610315600480360381019061031091906124cc565b610996565b604051610322919061285f565b60405180910390f35b6103336109d3565b60405161034091906128e1565b60405180910390f35b610363600480360381019061035e91906123c1565b610a65565b005b61037f600480360381019061037a9190612346565b610a7b565b005b61039b600480360381019061039691906124cc565b610add565b6040516103a891906128e1565b60405180910390f35b6103cb60048036038101906103c691906122bb565b610aef565b6040516103d891906128c6565b60405180910390f35b60006103ec82610b83565b9050919050565b60606000805461040290612d99565b80601f016020809104026020016040519081016040528092919081815260200182805461042e90612d99565b801561047b5780601f106104505761010080835404028352916020019161047b565b820191906000526020600020905b81548152906001019060200180831161045e57829003601f168201915b5050505050905090565b600061049082610bfd565b6104cf576040517f08c379a00000000000000000000000000000000000000000000000000000000081526004016104c690612a83565b60405180910390fd5b6004600083815260200190815260200160002060009054906101000a900473ffffffffffffffffffffffffffffffffffffffff169050919050565b60006105158261082c565b90508073ffffffffffffffffffffffffffffffffffffffff168373ffffffffffffffffffffffffffffffffffffffff161415610586576040517f08c379a000000000000000000000000000000000000000000000000000000000815260040161057d90612ae3565b60405180910390fd5b8073ffffffffffffffffffffffffffffffffffffffff166105a5610c69565b73ffffffffffffffffffffffffffffffffffffffff1614806105d457506105d3816105ce610c69565b610aef565b5b610613576040517f08c379a000000000000000000000000000000000000000000000000000000000815260040161060a906129c3565b60405180910390fd5b61061d8383610c71565b505050565b6000600880549050905090565b61064061063a610c69565b82610d2a565b61067f576040517f08c379a000000000000000000000000000000000000000000000000000000000815260040161067690612b03565b60405180910390fd5b61068a838383610e08565b505050565b600061069a836108de565b82106106db576040517f08c379a00000000000000000000000000000000000000000000000000000000081526004016106d290612903565b60405180910390fd5b600660008473ffffffffffffffffffffffffffffffffffffffff1673ffffffffffffffffffffffffffffffffffffffff168152602001908152602001600020600083815260200190815260200160002054905092915050565b6000610740600b611064565b600061074c600b61107a565b90506107583382611088565b61076281846110a6565b61076c813361111a565b80915050919050565b61079083838360405180602001604052806000815250610a7b565b505050565b600061079f610622565b82106107e0576040517f08c379a00000000000000000000000000000000000000000000000000000000081526004016107d790612b23565b60405180910390fd5b6008828154811061081a577f4e487b7100000000000000000000000000000000000000000000000000000000600052603260045260246000fd5b90600052602060002001549050919050565b6000806002600084815260200190815260200160002060009054906101000a900473ffffffffffffffffffffffffffffffffffffffff169050600073ffffffffffffffffffffffffffffffffffffffff168173ffffffffffffffffffffffffffffffffffffffff1614156108d5576040517f08c379a00000000000000000000000000000000000000000000000000000000081526004016108cc90612a03565b60405180910390fd5b80915050919050565b60008073ffffffffffffffffffffffffffffffffffffffff168273ffffffffffffffffffffffffffffffffffffffff16141561094f576040517f08c379a0000000000000000000000000000000000000000000000000000000008152600401610946906129e3565b60405180910390fd5b600360008373ffffffffffffffffffffffffffffffffffffffff1673ffffffffffffffffffffffffffffffffffffffff168152602001908152602001600020549050919050565b6000600c600083815260200190815260200160002060009054906101000a900473ffffffffffffffffffffffffffffffffffffffff169050919050565b6060600180546109e290612d99565b80601f0160208091040260200160405190810160405280929190818152602001828054610a0e90612d99565b8015610a5b5780601f10610a3057610100808354040283529160200191610a5b565b820191906000526020600020905b815481529060010190602001808311610a3e57829003601f168201915b5050505050905090565b610a77610a70610c69565b8383611170565b5050565b610a8c610a86610c69565b83610d2a565b610acb576040517f08c379a0000000000000000000000000000000000000000000000000000000008152600401610ac290612b03565b60405180910390fd5b610ad7848484846112dd565b50505050565b6060610ae882611339565b9050919050565b6000600560008473ffffffffffffffffffffffffffffffffffffffff1673ffffffffffffffffffffffffffffffffffffffff16815260200190815260200160002060008373ffffffffffffffffffffffffffffffffffffffff1673ffffffffffffffffffffffffffffffffffffffff16815260200190815260200160002060009054906101000a900460ff16905092915050565b60007f780e9d63000000000000000000000000000000000000000000000000000000007bffffffffffffffffffffffffffffffffffffffffffffffffffffffff1916827bffffffffffffffffffffffffffffffffffffffffffffffffffffffff19161480610bf65750610bf58261148b565b5b9050919050565b60008073ffffffffffffffffffffffffffffffffffffffff166002600084815260200190815260200160002060009054906101000a900473ffffffffffffffffffffffffffffffffffffffff1673ffffffffffffffffffffffffffffffffffffffff1614159050919050565b600033905090565b816004600083815260200190815260200160002060006101000a81548173ffffffffffffffffffffffffffffffffffffffff021916908373ffffffffffffffffffffffffffffffffffffffff160217905550808273ffffffffffffffffffffffffffffffffffffffff16610ce48361082c565b73ffffffffffffffffffffffffffffffffffffffff167f8c5be1e5ebec7d5bd14f71427d1e84f3dd0314c0f7b2291e5b200ac8c7c3b92560405160405180910390a45050565b6000610d3582610bfd565b610d74576040517f08c379a0000000000000000000000000000000000000000000000000000000008152600401610d6b906129a3565b60405180910390fd5b6000610d7f8361082c565b90508073ffffffffffffffffffffffffffffffffffffffff168473ffffffffffffffffffffffffffffffffffffffff161480610dee57508373ffffffffffffffffffffffffffffffffffffffff16610dd684610485565b73ffffffffffffffffffffffffffffffffffffffff16145b80610dff5750610dfe8185610aef565b5b91505092915050565b8273ffffffffffffffffffffffffffffffffffffffff16610e288261082c565b73ffffffffffffffffffffffffffffffffffffffff1614610e7e576040517f08c379a0000000000000000000000000000000000000000000000000000000008152600401610e7590612aa3565b60405180910390fd5b600073ffffffffffffffffffffffffffffffffffffffff168273ffffffffffffffffffffffffffffffffffffffff161415610eee576040517f08c379a0000000000000000000000000000000000000000000000000000000008152600401610ee590612963565b60405180910390fd5b610ef983838361156d565b610f04600082610c71565b6001600360008573ffffffffffffffffffffffffffffffffffffffff1673ffffffffffffffffffffffffffffffffffffffff1681526020019081526020016000206000828254610f549190612caf565b925050819055506001600360008473ffffffffffffffffffffffffffffffffffffffff1673ffffffffffffffffffffffffffffffffffffffff1681526020019081526020016000206000828254610fab9190612c28565b92505081905550816002600083815260200190815260200160002060006101000a81548173ffffffffffffffffffffffffffffffffffffffff021916908373ffffffffffffffffffffffffffffffffffffffff160217905550808273ffffffffffffffffffffffffffffffffffffffff168473ffffffffffffffffffffffffffffffffffffffff167fddf252ad1be2c89b69c2b068fc378daa952ba7f163c4a11628f55a4df523b3ef60405160405180910390a4505050565b6001816000016000828254019250508190555050565b600081600001549050919050565b6110a282826040518060200160405280600081525061157d565b5050565b6110af82610bfd565b6110ee576040517f08c379a00000000000000000000000000000000000000000000000000000000081526004016110e590612a23565b60405180910390fd5b80600a600084815260200190815260200160002090805190602001906111159291906120b6565b505050565b80600c600084815260200190815260200160002060006101000a81548173ffffffffffffffffffffffffffffffffffffffff021916908373ffffffffffffffffffffffffffffffffffffffff1602179055505050565b8173ffffffffffffffffffffffffffffffffffffffff168373ffffffffffffffffffffffffffffffffffffffff1614156111df576040517f08c379a00000000000000000000000000000000000000000000000000000000081526004016111d690612983565b60405180910390fd5b80600560008573ffffffffffffffffffffffffffffffffffffffff1673ffffffffffffffffffffffffffffffffffffffff16815260200190815260200160002060008473ffffffffffffffffffffffffffffffffffffffff1673ffffffffffffffffffffffffffffffffffffffff16815260200190815260200160002060006101000a81548160ff0219169083151502179055508173ffffffffffffffffffffffffffffffffffffffff168373ffffffffffffffffffffffffffffffffffffffff167f17307eab39ab6107e8899845ad3d59bd9653f200f220920489ca2b5937696c31836040516112d091906128c6565b60405180910390a3505050565b6112e8848484610e08565b6112f4848484846115d8565b611333576040517f08c379a000000000000000000000000000000000000000000000000000000000815260040161132a90612923565b60405180910390fd5b50505050565b606061134482610bfd565b611383576040517f08c379a000000000000000000000000000000000000000000000000000000000815260040161137a90612a63565b60405180910390fd5b6000600a600084815260200190815260200160002080546113a390612d99565b80601f01602080910402602001604051908101604052809291908181526020018280546113cf90612d99565b801561141c5780601f106113f15761010080835404028352916020019161141c565b820191906000526020600020905b8154815290600101906020018083116113ff57829003601f168201915b50505050509050600061142d61176f565b9050600081511415611443578192505050611486565b60008251111561147857808260405160200161146092919061283b565b60405160208183030381529060405292505050611486565b61148184611786565b925050505b919050565b60007f80ac58cd000000000000000000000000000000000000000000000000000000007bffffffffffffffffffffffffffffffffffffffffffffffffffffffff1916827bffffffffffffffffffffffffffffffffffffffffffffffffffffffff1916148061155657507f5b5e139f000000000000000000000000000000000000000000000000000000007bffffffffffffffffffffffffffffffffffffffffffffffffffffffff1916827bffffffffffffffffffffffffffffffffffffffffffffffffffffffff1916145b8061156657506115658261182d565b5b9050919050565b611578838383611897565b505050565b61158783836119ab565b61159460008484846115d8565b6115d3576040517f08c379a00000000000000000000000000000000000000000000000000000000081526004016115ca90612923565b60405180910390fd5b505050565b60006115f98473ffffffffffffffffffffffffffffffffffffffff16611b79565b15611762578373ffffffffffffffffffffffffffffffffffffffff1663150b7a02611622610c69565b8786866040518563ffffffff1660e01b8152600401611644949392919061287a565b602060405180830381600087803b15801561165e57600080fd5b505af192505050801561168f57506040513d601f19601f8201168201806040525081019061168c9190612462565b60015b611712573d80600081146116bf576040519150601f19603f3d011682016040523d82523d6000602084013e6116c4565b606091505b5060008151141561170a576040517f08c379a000000000000000000000000000000000000000000000000000000000815260040161170190612923565b60405180910390fd5b805181602001fd5b63150b7a0260e01b7bffffffffffffffffffffffffffffffffffffffffffffffffffffffff1916817bffffffffffffffffffffffffffffffffffffffffffffffffffffffff191614915050611767565b600190505b949350505050565b606060405180602001604052806000815250905090565b606061179182610bfd565b6117d0576040517f08c379a00000000000000000000000000000000000000000000000000000000081526004016117c790612ac3565b60405180910390fd5b60006117da61176f565b905060008151116117fa5760405180602001604052806000815250611825565b8061180484611b8c565b60405160200161181592919061283b565b6040516020818303038152906040525b915050919050565b60007f01ffc9a7000000000000000000000000000000000000000000000000000000007bffffffffffffffffffffffffffffffffffffffffffffffffffffffff1916827bffffffffffffffffffffffffffffffffffffffffffffffffffffffff1916149050919050565b6118a2838383611d39565b600073ffffffffffffffffffffffffffffffffffffffff168373ffffffffffffffffffffffffffffffffffffffff1614156118e5576118e081611d3e565b611924565b8173ffffffffffffffffffffffffffffffffffffffff168373ffffffffffffffffffffffffffffffffffffffff1614611923576119228382611d87565b5b5b600073ffffffffffffffffffffffffffffffffffffffff168273ffffffffffffffffffffffffffffffffffffffff1614156119675761196281611ef4565b6119a6565b8273ffffffffffffffffffffffffffffffffffffffff168273ffffffffffffffffffffffffffffffffffffffff16146119a5576119a48282612037565b5b5b505050565b600073ffffffffffffffffffffffffffffffffffffffff168273ffffffffffffffffffffffffffffffffffffffff161415611a1b576040517f08c379a0000000000000000000000000000000000000000000000000000000008152600401611a1290612a43565b60405180910390fd5b611a2481610bfd565b15611a64576040517f08c379a0000000000000000000000000000000000000000000000000000000008152600401611a5b90612943565b60405180910390fd5b611a706000838361156d565b6001600360008473ffffffffffffffffffffffffffffffffffffffff1673ffffffffffffffffffffffffffffffffffffffff1681526020019081526020016000206000828254611ac09190612c28565b92505081905550816002600083815260200190815260200160002060006101000a81548173ffffffffffffffffffffffffffffffffffffffff021916908373ffffffffffffffffffffffffffffffffffffffff160217905550808273ffffffffffffffffffffffffffffffffffffffff16600073ffffffffffffffffffffffffffffffffffffffff167fddf252ad1be2c89b69c2b068fc378daa952ba7f163c4a11628f55a4df523b3ef60405160405180910390a45050565b600080823b905060008111915050919050565b60606000821415611bd4576040518060400160405280600181526020017f30000000000000000000000000000000000000000000000000000000000000008152509050611d34565b600082905060005b60008214611c06578080611bef90612dfc565b915050600a82611bff9190612c7e565b9150611bdc565b60008167ffffffffffffffff811115611c48577f4e487b7100000000000000000000000000000000000000000000000000000000600052604160045260246000fd5b6040519080825280601f01601f191660200182016040528015611c7a5781602001600182028036833780820191505090505b5090505b60008514611d2d57600182611c939190612caf565b9150600a85611ca29190612e45565b6030611cae9190612c28565b60f81b818381518110611cea577f4e487b7100000000000000000000000000000000000000000000000000000000600052603260045260246000fd5b60200101907effffffffffffffffffffffffffffffffffffffffffffffffffffffffffffff1916908160001a905350600a85611d269190612c7e565b9450611c7e565b8093505050505b919050565b505050565b6008805490506009600083815260200190815260200160002081905550600881908060018154018082558091505060019003906000526020600020016000909190919091505550565b60006001611d94846108de565b611d9e9190612caf565b9050600060076000848152602001908152602001600020549050818114611e83576000600660008673ffffffffffffffffffffffffffffffffffffffff1673ffffffffffffffffffffffffffffffffffffffff168152602001908152602001600020600084815260200190815260200160002054905080600660008773ffffffffffffffffffffffffffffffffffffffff1673ffffffffffffffffffffffffffffffffffffffff168152602001908152602001600020600084815260200190815260200160002081905550816007600083815260200190815260200160002081905550505b6007600084815260200190815260200160002060009055600660008573ffffffffffffffffffffffffffffffffffffffff1673ffffffffffffffffffffffffffffffffffffffff16815260200190815260200160002060008381526020019081526020016000206000905550505050565b60006001600880549050611f089190612caf565b9050600060096000848152602001908152602001600020549050600060088381548110611f5e577f4e487b7100000000000000000000000000000000000000000000000000000000600052603260045260246000fd5b906000526020600020015490508060088381548110611fa6577f4e487b7100000000000000000000000000000000000000000000000000000000600052603260045260246000fd5b90600052602060002001819055508160096000838152602001908152602001600020819055506009600085815260200190815260200160002060009055600880548061201b577f4e487b7100000000000000000000000000000000000000000000000000000000600052603160045260246000fd5b6001900381819060005260206000200160009055905550505050565b6000612042836108de565b905081600660008573ffffffffffffffffffffffffffffffffffffffff1673ffffffffffffffffffffffffffffffffffffffff168152602001908152602001600020600083815260200190815260200160002081905550806007600084815260200190815260200160002081905550505050565b8280546120c290612d99565b90600052602060002090601f0160209004810192826120e4576000855561212b565b82601f106120fd57805160ff191683800117855561212b565b8280016001018555821561212b579182015b8281111561212a57825182559160200191906001019061210f565b5b509050612138919061213c565b5090565b5b8082111561215557600081600090555060010161213d565b5090565b600061216c61216784612b83565b612b5e565b90508281526020810184848401111561218457600080fd5b61218f848285612d57565b509392505050565b60006121aa6121a584612bb4565b612b5e565b9050828152602081018484840111156121c257600080fd5b6121cd848285612d57565b509392505050565b6000813590506121e48161345f565b92915050565b6000813590506121f981613476565b92915050565b60008135905061220e8161348d565b92915050565b6000815190506122238161348d565b92915050565b600082601f83011261223a57600080fd5b813561224a848260208601612159565b91505092915050565b600082601f83011261226457600080fd5b8135612274848260208601612197565b91505092915050565b60008135905061228c816134a4565b92915050565b6000602082840312156122a457600080fd5b60006122b2848285016121d5565b91505092915050565b600080604083850312156122ce57600080fd5b60006122dc858286016121d5565b92505060206122ed858286016121d5565b9150509250929050565b60008060006060848603121561230c57600080fd5b600061231a868287016121d5565b935050602061232b868287016121d5565b925050604061233c8682870161227d565b9150509250925092565b6000806000806080858703121561235c57600080fd5b600061236a878288016121d5565b945050602061237b878288016121d5565b935050604061238c8782880161227d565b925050606085013567ffffffffffffffff8111156123a957600080fd5b6123b587828801612229565b91505092959194509250565b600080604083850312156123d457600080fd5b60006123e2858286016121d5565b92505060206123f3858286016121ea565b9150509250929050565b6000806040838503121561241057600080fd5b600061241e858286016121d5565b925050602061242f8582860161227d565b9150509250929050565b60006020828403121561244b57600080fd5b6000612459848285016121ff565b91505092915050565b60006020828403121561247457600080fd5b600061248284828501612214565b91505092915050565b60006020828403121561249d57600080fd5b600082013567ffffffffffffffff8111156124b757600080fd5b6124c384828501612253565b91505092915050565b6000602082840312156124de57600080fd5b60006124ec8482850161227d565b91505092915050565b6124fe81612ce3565b82525050565b61250d81612cf5565b82525050565b600061251e82612be5565b6125288185612bfb565b9350612538818560208601612d66565b61254181612f32565b840191505092915050565b600061255782612bf0565b6125618185612c0c565b9350612571818560208601612d66565b61257a81612f32565b840191505092915050565b600061259082612bf0565b61259a8185612c1d565b93506125aa818560208601612d66565b80840191505092915050565b60006125c3602b83612c0c565b91506125ce82612f43565b604082019050919050565b60006125e6603283612c0c565b91506125f182612f92565b604082019050919050565b6000612609601c83612c0c565b915061261482612fe1565b602082019050919050565b600061262c602483612c0c565b91506126378261300a565b604082019050919050565b600061264f601983612c0c565b915061265a82613059565b602082019050919050565b6000612672602c83612c0c565b915061267d82613082565b604082019050919050565b6000612695603883612c0c565b91506126a0826130d1565b604082019050919050565b60006126b8602a83612c0c565b91506126c382613120565b604082019050919050565b60006126db602983612c0c565b91506126e68261316f565b604082019050919050565b60006126fe602e83612c0c565b9150612709826131be565b604082019050919050565b6000612721602083612c0c565b915061272c8261320d565b602082019050919050565b6000612744603183612c0c565b915061274f82613236565b604082019050919050565b6000612767602c83612c0c565b915061277282613285565b604082019050919050565b600061278a602983612c0c565b9150612795826132d4565b604082019050919050565b60006127ad602f83612c0c565b91506127b882613323565b604082019050919050565b60006127d0602183612c0c565b91506127db82613372565b604082019050919050565b60006127f3603183612c0c565b91506127fe826133c1565b604082019050919050565b6000612816602c83612c0c565b915061282182613410565b604082019050919050565b61283581612d4d565b82525050565b60006128478285612585565b91506128538284612585565b91508190509392505050565b600060208201905061287460008301846124f5565b92915050565b600060808201905061288f60008301876124f5565b61289c60208301866124f5565b6128a9604083018561282c565b81810360608301526128bb8184612513565b905095945050505050565b60006020820190506128db6000830184612504565b92915050565b600060208201905081810360008301526128fb818461254c565b905092915050565b6000602082019050818103600083015261291c816125b6565b9050919050565b6000602082019050818103600083015261293c816125d9565b9050919050565b6000602082019050818103600083015261295c816125fc565b9050919050565b6000602082019050818103600083015261297c8161261f565b9050919050565b6000602082019050818103600083015261299c81612642565b9050919050565b600060208201905081810360008301526129bc81612665565b9050919050565b600060208201905081810360008301526129dc81612688565b9050919050565b600060208201905081810360008301526129fc816126ab565b9050919050565b60006020820190508181036000830152612a1c816126ce565b9050919050565b60006020820190508181036000830152612a3c816126f1565b9050919050565b60006020820190508181036000830152612a5c81612714565b9050919050565b60006020820190508181036000830152612a7c81612737565b9050919050565b60006020820190508181036000830152612a9c8161275a565b9050919050565b60006020820190508181036000830152612abc8161277d565b9050919050565b60006020820190508181036000830152612adc816127a0565b9050919050565b60006020820190508181036000830152612afc816127c3565b9050919050565b60006020820190508181036000830152612b1c816127e6565b9050919050565b60006020820190508181036000830152612b3c81612809565b9050919050565b6000602082019050612b58600083018461282c565b92915050565b6000612b68612b79565b9050612b748282612dcb565b919050565b6000604051905090565b600067ffffffffffffffff821115612b9e57612b9d612f03565b5b612ba782612f32565b9050602081019050919050565b600067ffffffffffffffff821115612bcf57612bce612f03565b5b612bd882612f32565b9050602081019050919050565b600081519050919050565b600081519050919050565b600082825260208201905092915050565b600082825260208201905092915050565b600081905092915050565b6000612c3382612d4d565b9150612c3e83612d4d565b9250827fffffffffffffffffffffffffffffffffffffffffffffffffffffffffffffffff03821115612c7357612c72612e76565b5b828201905092915050565b6000612c8982612d4d565b9150612c9483612d4d565b925082612ca457612ca3612ea5565b5b828204905092915050565b6000612cba82612d4d565b9150612cc583612d4d565b925082821015612cd857612cd7612e76565b5b828203905092915050565b6000612cee82612d2d565b9050919050565b60008115159050919050565b60007fffffffff0000000000000000000000000000000000000000000000000000000082169050919050565b600073ffffffffffffffffffffffffffffffffffffffff82169050919050565b6000819050919050565b82818337600083830152505050565b60005b83811015612d84578082015181840152602081019050612d69565b83811115612d93576000848401525b50505050565b60006002820490506001821680612db157607f821691505b60208210811415612dc557612dc4612ed4565b5b50919050565b612dd482612f32565b810181811067ffffffffffffffff82111715612df357612df2612f03565b5b80604052505050565b6000612e0782612d4d565b91507fffffffffffffffffffffffffffffffffffffffffffffffffffffffffffffffff821415612e3a57612e39612e76565b5b600182019050919050565b6000612e5082612d4d565b9150612e5b83612d4d565b925082612e6b57612e6a612ea5565b5b828206905092915050565b7f4e487b7100000000000000000000000000000000000000000000000000000000600052601160045260246000fd5b7f4e487b7100000000000000000000000000000000000000000000000000000000600052601260045260246000fd5b7f4e487b7100000000000000000000000000000000000000000000000000000000600052602260045260246000fd5b7f4e487b7100000000000000000000000000000000000000000000000000000000600052604160045260246000fd5b6000601f19601f8301169050919050565b7f455243373231456e756d657261626c653a206f776e657220696e646578206f7560008201527f74206f6620626f756e6473000000000000000000000000000000000000000000602082015250565b7f4552433732313a207472616e7366657220746f206e6f6e20455243373231526560008201527f63656976657220696d706c656d656e7465720000000000000000000000000000602082015250565b7f4552433732313a20746f6b656e20616c7265616479206d696e74656400000000600082015250565b7f4552433732313a207472616e7366657220746f20746865207a65726f2061646460008201527f7265737300000000000000000000000000000000000000000000000000000000602082015250565b7f4552433732313a20617070726f766520746f2063616c6c657200000000000000600082015250565b7f4552433732313a206f70657261746f7220717565727920666f72206e6f6e657860008201527f697374656e7420746f6b656e0000000000000000000000000000000000000000602082015250565b7f4552433732313a20617070726f76652063616c6c6572206973206e6f74206f7760008201527f6e6572206e6f7220617070726f76656420666f7220616c6c0000000000000000602082015250565b7f4552433732313a2062616c616e636520717565727920666f7220746865207a6560008201527f726f206164647265737300000000000000000000000000000000000000000000602082015250565b7f4552433732313a206f776e657220717565727920666f72206e6f6e657869737460008201527f656e7420746f6b656e0000000000000000000000000000000000000000000000602082015250565b7f45524337323155524953746f726167653a2055524920736574206f66206e6f6e60008201527f6578697374656e7420746f6b656e000000000000000000000000000000000000602082015250565b7f4552433732313a206d696e7420746f20746865207a65726f2061646472657373600082015250565b7f45524337323155524953746f726167653a2055524920717565727920666f722060008201527f6e6f6e6578697374656e7420746f6b656e000000000000000000000000000000602082015250565b7f4552433732313a20617070726f76656420717565727920666f72206e6f6e657860008201527f697374656e7420746f6b656e0000000000000000000000000000000000000000602082015250565b7f4552433732313a207472616e73666572206f6620746f6b656e2074686174206960008201527f73206e6f74206f776e0000000000000000000000000000000000000000000000602082015250565b7f4552433732314d657461646174613a2055524920717565727920666f72206e6f60008201527f6e6578697374656e7420746f6b656e0000000000000000000000000000000000602082015250565b7f4552433732313a20617070726f76616c20746f2063757272656e74206f776e6560008201527f7200000000000000000000000000000000000000000000000000000000000000602082015250565b7f4552433732313a207472616e736665722063616c6c6572206973206e6f74206f60008201527f776e6572206e6f7220617070726f766564000000000000000000000000000000602082015250565b7f455243373231456e756d657261626c653a20676c6f62616c20696e646578206f60008201527f7574206f6620626f756e64730000000000000000000000000000000000000000602082015250565b61346881612ce3565b811461347357600080fd5b50565b61347f81612cf5565b811461348a57600080fd5b50565b61349681612d01565b81146134a157600080fd5b50565b6134ad81612d4d565b81146134b857600080fd5b5056fea2646970667358221220f3d296e7602c18319dcc74826d77fa3277706e979283ae00690c4ac970ad1cf564736f6c63430008040033",
  "linkReferences": {},
  "deployedLinkReferences": {}
}