{
  "_format": "hh-sol-artifact-1",
  "contractName": "GNFT",
  "sourceName": "contracts/GNFT.sol",
  "abi": [
    {
      "inputs": [],
      "stateMutability": "nonpayable",
      "type": "constructor"
    },
    {
      "anonymous": false,
      "inputs": [
        {
          "indexed": true,
          "internalType": "address",
          "name": "owner",
          "type": "address"
        },
        {
          "indexed": true,
          "internalType": "address",
          "name": "approved",
          "type": "address"
        },
        {
          "indexed": true,
          "internalType": "uint256",
          "name": "tokenId",
          "type": "uint256"
        }
      ],
      "name": "Approval",
      "type": "event"
    },
    {
      "anonymous": false,
      "inputs": [
        {
          "indexed": true,
          "internalType": "address",
          "name": "owner",
          "type": "address"
        },
        {
          "indexed": true,
          "internalType": "address",
          "name": "operator",
          "type": "address"
        },
        {
          "indexed": false,
          "internalType": "bool",
          "name": "approved",
          "type": "bool"
        }
      ],
      "name": "ApprovalForAll",
      "type": "event"
    },
    {
      "anonymous": false,
      "inputs": [
        {
          "indexed": true,
          "internalType": "address",
          "name": "from",
          "type": "address"
        },
        {
          "indexed": true,
          "internalType": "address",
          "name": "to",
          "type": "address"
        },
        {
          "indexed": true,
          "internalType": "uint256",
          "name": "tokenId",
          "type": "uint256"
        }
      ],
      "name": "Transfer",
      "type": "event"
    },
    {
      "inputs": [
        {
          "internalType": "address",
          "name": "to",
          "type": "address"
        },
        {
          "internalType": "uint256",
          "name": "tokenId",
          "type": "uint256"
        }
      ],
      "name": "approve",
      "outputs": [],
      "stateMutability": "nonpayable",
      "type": "function"
    },
    {
      "inputs": [
        {
          "internalType": "address",
          "name": "owner",
          "type": "address"
        }
      ],
      "name": "balanceOf",
      "outputs": [
        {
          "internalType": "uint256",
          "name": "",
          "type": "uint256"
        }
      ],
      "stateMutability": "view",
      "type": "function"
    },
    {
      "inputs": [
        {
          "internalType": "uint256",
          "name": "id",
          "type": "uint256"
        }
      ],
      "name": "burn",
      "outputs": [],
      "stateMutability": "nonpayable",
      "type": "function"
    },
    {
      "inputs": [
        {
          "internalType": "uint256",
          "name": "tokenId",
          "type": "uint256"
        }
      ],
      "name": "getApproved",
      "outputs": [
        {
          "internalType": "address",
          "name": "",
          "type": "address"
        }
      ],
      "stateMutability": "view",
      "type": "function"
    },
    {
      "inputs": [
        {
          "internalType": "uint256",
          "name": "id",
          "type": "uint256"
        }
      ],
      "name": "getArtistOf",
      "outputs": [
        {
          "internalType": "address",
          "name": "",
          "type": "address"
        }
      ],
      "stateMutability": "view",
      "type": "function"
    },
    {
      "inputs": [
        {
          "internalType": "address",
          "name": "artist",
          "type": "address"
        }
      ],
      "name": "getCreatedBalanceOf",
      "outputs": [
        {
          "internalType": "uint256",
          "name": "",
          "type": "uint256"
        }
      ],
      "stateMutability": "view",
      "type": "function"
    },
    {
      "inputs": [
        {
          "internalType": "address",
          "name": "artist",
          "type": "address"
        },
        {
          "internalType": "uint256",
          "name": "idx",
          "type": "uint256"
        }
      ],
      "name": "getCreatedTokenByIndex",
      "outputs": [
        {
          "internalType": "uint256",
          "name": "",
          "type": "uint256"
        }
      ],
      "stateMutability": "view",
      "type": "function"
    },
    {
      "inputs": [
        {
          "internalType": "address",
          "name": "owner",
          "type": "address"
        },
        {
          "internalType": "address",
          "name": "operator",
          "type": "address"
        }
      ],
      "name": "isApprovedForAll",
      "outputs": [
        {
          "internalType": "bool",
          "name": "",
          "type": "bool"
        }
      ],
      "stateMutability": "view",
      "type": "function"
    },
    {
      "inputs": [
        {
          "internalType": "string",
          "name": "_tokenURI",
          "type": "string"
        }
      ],
      "name": "mintToken",
      "outputs": [
        {
          "internalType": "uint256",
          "name": "",
          "type": "uint256"
        }
      ],
      "stateMutability": "nonpayable",
      "type": "function"
    },
    {
      "inputs": [],
      "name": "name",
      "outputs": [
        {
          "internalType": "string",
          "name": "",
          "type": "string"
        }
      ],
      "stateMutability": "view",
      "type": "function"
    },
    {
      "inputs": [
        {
          "internalType": "uint256",
          "name": "tokenId",
          "type": "uint256"
        }
      ],
      "name": "ownerOf",
      "outputs": [
        {
          "internalType": "address",
          "name": "",
          "type": "address"
        }
      ],
      "stateMutability": "view",
      "type": "function"
    },
    {
      "inputs": [
        {
          "internalType": "address",
          "name": "from",
          "type": "address"
        },
        {
          "internalType": "address",
          "name": "to",
          "type": "address"
        },
        {
          "internalType": "uint256",
          "name": "tokenId",
          "type": "uint256"
        }
      ],
      "name": "safeTransferFrom",
      "outputs": [],
      "stateMutability": "nonpayable",
      "type": "function"
    },
    {
      "inputs": [
        {
          "internalType": "address",
          "name": "from",
          "type": "address"
        },
        {
          "internalType": "address",
          "name": "to",
          "type": "address"
        },
        {
          "internalType": "uint256",
          "name": "tokenId",
          "type": "uint256"
        },
        {
          "internalType": "bytes",
          "name": "_data",
          "type": "bytes"
        }
      ],
      "name": "safeTransferFrom",
      "outputs": [],
      "stateMutability": "nonpayable",
      "type": "function"
    },
    {
      "inputs": [
        {
          "internalType": "address",
          "name": "operator",
          "type": "address"
        },
        {
          "internalType": "bool",
          "name": "approved",
          "type": "bool"
        }
      ],
      "name": "setApprovalForAll",
      "outputs": [],
      "stateMutability": "nonpayable",
      "type": "function"
    },
    {
      "inputs": [
        {
          "internalType": "bytes4",
          "name": "interfaceId",
          "type": "bytes4"
        }
      ],
      "name": "supportsInterface",
      "outputs": [
        {
          "internalType": "bool",
          "name": "",
          "type": "bool"
        }
      ],
      "stateMutability": "view",
      "type": "function"
    },
    {
      "inputs": [],
      "name": "symbol",
      "outputs": [
        {
          "internalType": "string",
          "name": "",
          "type": "string"
        }
      ],
      "stateMutability": "view",
      "type": "function"
    },
    {
      "inputs": [
        {
          "internalType": "uint256",
          "name": "index",
          "type": "uint256"
        }
      ],
      "name": "tokenByIndex",
      "outputs": [
        {
          "internalType": "uint256",
          "name": "",
          "type": "uint256"
        }
      ],
      "stateMutability": "view",
      "type": "function"
    },
    {
      "inputs": [
        {
          "internalType": "address",
          "name": "owner",
          "type": "address"
        },
        {
          "internalType": "uint256",
          "name": "index",
          "type": "uint256"
        }
      ],
      "name": "tokenOfOwnerByIndex",
      "outputs": [
        {
          "internalType": "uint256",
          "name": "",
          "type": "uint256"
        }
      ],
      "stateMutability": "view",
      "type": "function"
    },
    {
      "inputs": [
        {
          "internalType": "uint256",
          "name": "id",
          "type": "uint256"
        }
      ],
      "name": "tokenURI",
      "outputs": [
        {
          "internalType": "string",
          "name": "",
          "type": "string"
        }
      ],
      "stateMutability": "view",
      "type": "function"
    },
    {
      "inputs": [],
      "name": "totalSupply",
      "outputs": [
        {
          "internalType": "uint256",
          "name": "",
          "type": "uint256"
        }
      ],
      "stateMutability": "view",
      "type": "function"
    },
    {
      "inputs": [
        {
          "internalType": "address",
          "name": "from",
          "type": "address"
        },
        {
          "internalType": "address",
          "name": "to",
          "type": "address"
        },
        {
          "internalType": "uint256",
          "name": "tokenId",
          "type": "uint256"
        }
      ],
      "name": "transferFrom",
      "outputs": [],
      "stateMutability": "nonpayable",
      "type": "function"
    }
  ],
  "bytecode": "0x60806040523480156200001157600080fd5b506040518060400160405280600581526020017f472d4e46540000000000000000000000000000000000000000000000000000008152506040518060400160405280600481526020017f474e465400000000000000000000000000000000000000000000000000000000815250816000908051906020019062000096929190620000b8565b508060019080519060200190620000af929190620000b8565b505050620001cd565b828054620000c69062000168565b90600052602060002090601f016020900481019282620000ea576000855562000136565b82601f106200010557805160ff191683800117855562000136565b8280016001018555821562000136579182015b828111156200013557825182559160200191906001019062000118565b5b50905062000145919062000149565b5090565b5b80821115620001645760008160009055506001016200014a565b5090565b600060028204905060018216806200018157607f821691505b602082108114156200019857620001976200019e565b5b50919050565b7f4e487b7100000000000000000000000000000000000000000000000000000000600052602260045260246000fd5b613dcf80620001dd6000396000f3fe608060405234801561001057600080fd5b50600436106101375760003560e01c806347b56bb4116100b857806395d89b411161007c57806395d89b4114610398578063a22cb465146103b6578063b88d4fde146103d2578063c3e121b5146103ee578063c87b56dd1461041e578063e985e9c51461044e57610137565b806347b56bb4146102a85780634f6ccce7146102d85780636352211e1461030857806370a0823114610338578063757d05371461036857610137565b806323b872dd116100ff57806323b872dd146101f45780632f745c591461021057806333eba49a1461024057806342842e0e1461027057806342966c681461028c57610137565b806301ffc9a71461013c57806306fdde031461016c578063081812fc1461018a578063095ea7b3146101ba57806318160ddd146101d6575b600080fd5b61015660048036038101906101519190612b87565b61047e565b604051610163919061307d565b60405180910390f35b610174610490565b6040516101819190613098565b60405180910390f35b6101a4600480360381019061019f9190612c1a565b610522565b6040516101b19190613016565b60405180910390f35b6101d460048036038101906101cf9190612b4b565b6105a7565b005b6101de6106bf565b6040516101eb919061335a565b60405180910390f35b61020e60048036038101906102099190612a45565b6106cc565b005b61022a60048036038101906102259190612b4b565b61072c565b604051610237919061335a565b60405180910390f35b61025a60048036038101906102559190612bd9565b6107d1565b604051610267919061335a565b60405180910390f35b61028a60048036038101906102859190612a45565b610812565b005b6102a660048036038101906102a19190612c1a565b610832565b005b6102c260048036038101906102bd9190612b4b565b610b3c565b6040516102cf919061335a565b60405180910390f35b6102f260048036038101906102ed9190612c1a565b610be1565b6040516102ff919061335a565b60405180910390f35b610322600480360381019061031d9190612c1a565b610c78565b60405161032f9190613016565b60405180910390f35b610352600480360381019061034d91906129e0565b610d2a565b60405161035f919061335a565b60405180910390f35b610382600480360381019061037d9190612c1a565b610de2565b60405161038f9190613016565b60405180910390f35b6103a0610e1f565b6040516103ad9190613098565b60405180910390f35b6103d060048036038101906103cb9190612b0f565b610eb1565b005b6103ec60048036038101906103e79190612a94565b610ec7565b005b610408600480360381019061040391906129e0565b610f29565b604051610415919061335a565b60405180910390f35b61043860048036038101906104339190612c1a565b610f72565b6040516104459190613098565b60405180910390f35b61046860048036038101906104639190612a09565b610f84565b604051610475919061307d565b60405180910390f35b600061048982611018565b9050919050565b60606000805461049f906135b0565b80601f01602080910402602001604051908101604052809291908181526020018280546104cb906135b0565b80156105185780601f106104ed57610100808354040283529160200191610518565b820191906000526020600020905b8154815290600101906020018083116104fb57829003601f168201915b5050505050905090565b600061052d82611092565b61056c576040517f08c379a00000000000000000000000000000000000000000000000000000000081526004016105639061325a565b60405180910390fd5b6004600083815260200190815260200160002060009054906101000a900473ffffffffffffffffffffffffffffffffffffffff169050919050565b60006105b282610c78565b90508073ffffffffffffffffffffffffffffffffffffffff168373ffffffffffffffffffffffffffffffffffffffff161415610623576040517f08c379a000000000000000000000000000000000000000000000000000000000815260040161061a906132da565b60405180910390fd5b8073ffffffffffffffffffffffffffffffffffffffff166106426110fe565b73ffffffffffffffffffffffffffffffffffffffff16148061067157506106708161066b6110fe565b610f84565b5b6106b0576040517f08c379a00000000000000000000000000000000000000000000000000000000081526004016106a79061319a565b60405180910390fd5b6106ba8383611106565b505050565b6000600880549050905090565b6106dd6106d76110fe565b826111bf565b61071c576040517f08c379a00000000000000000000000000000000000000000000000000000000081526004016107139061331a565b60405180910390fd5b61072783838361129d565b505050565b600061073783610d2a565b8210610778576040517f08c379a000000000000000000000000000000000000000000000000000000000815260040161076f906130ba565b60405180910390fd5b600660008473ffffffffffffffffffffffffffffffffffffffff1673ffffffffffffffffffffffffffffffffffffffff168152602001908152602001600020600083815260200190815260200160002054905092915050565b60006107dd600b6114f9565b60006107e9600b61150f565b90506107f5338261151d565b6107ff818461153b565b61080981336115af565b80915050919050565b61082d83838360405180602001604052806000815250610ec7565b505050565b600c600082815260200190815260200160002060009054906101000a900473ffffffffffffffffffffffffffffffffffffffff1673ffffffffffffffffffffffffffffffffffffffff163373ffffffffffffffffffffffffffffffffffffffff16146108d3576040517f08c379a00000000000000000000000000000000000000000000000000000000081526004016108ca906132fa565b60405180910390fd5b6108dc81610c78565b73ffffffffffffffffffffffffffffffffffffffff163373ffffffffffffffffffffffffffffffffffffffff1614610949576040517f08c379a00000000000000000000000000000000000000000000000000000000081526004016109409061327a565b60405180910390fd5b6001600d60003373ffffffffffffffffffffffffffffffffffffffff1673ffffffffffffffffffffffffffffffffffffffff168152602001908152602001600020600082825461099991906134c6565b925050819055506000600f60008381526020019081526020016000205490506000600d60003373ffffffffffffffffffffffffffffffffffffffff1673ffffffffffffffffffffffffffffffffffffffff1681526020019081526020016000205490506000600e60003373ffffffffffffffffffffffffffffffffffffffff1673ffffffffffffffffffffffffffffffffffffffff16815260200190815260200160002060008381526020019081526020016000205490506000600f60008681526020019081526020016000208190555082600f60008381526020019081526020016000208190555080600e60003373ffffffffffffffffffffffffffffffffffffffff1673ffffffffffffffffffffffffffffffffffffffff1681526020019081526020016000206000858152602001908152602001600020819055506000600e60003373ffffffffffffffffffffffffffffffffffffffff1673ffffffffffffffffffffffffffffffffffffffff168152602001908152602001600020600084815260200190815260200160002081905550610b368461170e565b50505050565b6000610b4783610f29565b8210610b88576040517f08c379a0000000000000000000000000000000000000000000000000000000008152600401610b7f906130fa565b60405180910390fd5b600e60008473ffffffffffffffffffffffffffffffffffffffff1673ffffffffffffffffffffffffffffffffffffffff168152602001908152602001600020600083815260200190815260200160002054905092915050565b6000610beb6106bf565b8210610c2c576040517f08c379a0000000000000000000000000000000000000000000000000000000008152600401610c239061333a565b60405180910390fd5b60088281548110610c66577f4e487b7100000000000000000000000000000000000000000000000000000000600052603260045260246000fd5b90600052602060002001549050919050565b6000806002600084815260200190815260200160002060009054906101000a900473ffffffffffffffffffffffffffffffffffffffff169050600073ffffffffffffffffffffffffffffffffffffffff168173ffffffffffffffffffffffffffffffffffffffff161415610d21576040517f08c379a0000000000000000000000000000000000000000000000000000000008152600401610d18906131da565b60405180910390fd5b80915050919050565b60008073ffffffffffffffffffffffffffffffffffffffff168273ffffffffffffffffffffffffffffffffffffffff161415610d9b576040517f08c379a0000000000000000000000000000000000000000000000000000000008152600401610d92906131ba565b60405180910390fd5b600360008373ffffffffffffffffffffffffffffffffffffffff1673ffffffffffffffffffffffffffffffffffffffff168152602001908152602001600020549050919050565b6000600c600083815260200190815260200160002060009054906101000a900473ffffffffffffffffffffffffffffffffffffffff169050919050565b606060018054610e2e906135b0565b80601f0160208091040260200160405190810160405280929190818152602001828054610e5a906135b0565b8015610ea75780601f10610e7c57610100808354040283529160200191610ea7565b820191906000526020600020905b815481529060010190602001808311610e8a57829003601f168201915b5050505050905090565b610ec3610ebc6110fe565b838361171a565b5050565b610ed8610ed26110fe565b836111bf565b610f17576040517f08c379a0000000000000000000000000000000000000000000000000000000008152600401610f0e9061331a565b60405180910390fd5b610f2384848484611887565b50505050565b6000600d60008373ffffffffffffffffffffffffffffffffffffffff1673ffffffffffffffffffffffffffffffffffffffff168152602001908152602001600020549050919050565b6060610f7d826118e3565b9050919050565b6000600560008473ffffffffffffffffffffffffffffffffffffffff1673ffffffffffffffffffffffffffffffffffffffff16815260200190815260200160002060008373ffffffffffffffffffffffffffffffffffffffff1673ffffffffffffffffffffffffffffffffffffffff16815260200190815260200160002060009054906101000a900460ff16905092915050565b60007f780e9d63000000000000000000000000000000000000000000000000000000007bffffffffffffffffffffffffffffffffffffffffffffffffffffffff1916827bffffffffffffffffffffffffffffffffffffffffffffffffffffffff1916148061108b575061108a82611a35565b5b9050919050565b60008073ffffffffffffffffffffffffffffffffffffffff166002600084815260200190815260200160002060009054906101000a900473ffffffffffffffffffffffffffffffffffffffff1673ffffffffffffffffffffffffffffffffffffffff1614159050919050565b600033905090565b816004600083815260200190815260200160002060006101000a81548173ffffffffffffffffffffffffffffffffffffffff021916908373ffffffffffffffffffffffffffffffffffffffff160217905550808273ffffffffffffffffffffffffffffffffffffffff1661117983610c78565b73ffffffffffffffffffffffffffffffffffffffff167f8c5be1e5ebec7d5bd14f71427d1e84f3dd0314c0f7b2291e5b200ac8c7c3b92560405160405180910390a45050565b60006111ca82611092565b611209576040517f08c379a00000000000000000000000000000000000000000000000000000000081526004016112009061317a565b60405180910390fd5b600061121483610c78565b90508073ffffffffffffffffffffffffffffffffffffffff168473ffffffffffffffffffffffffffffffffffffffff16148061128357508373ffffffffffffffffffffffffffffffffffffffff1661126b84610522565b73ffffffffffffffffffffffffffffffffffffffff16145b8061129457506112938185610f84565b5b91505092915050565b8273ffffffffffffffffffffffffffffffffffffffff166112bd82610c78565b73ffffffffffffffffffffffffffffffffffffffff1614611313576040517f08c379a000000000000000000000000000000000000000000000000000000000815260040161130a9061329a565b60405180910390fd5b600073ffffffffffffffffffffffffffffffffffffffff168273ffffffffffffffffffffffffffffffffffffffff161415611383576040517f08c379a000000000000000000000000000000000000000000000000000000000815260040161137a9061313a565b60405180910390fd5b61138e838383611b17565b611399600082611106565b6001600360008573ffffffffffffffffffffffffffffffffffffffff1673ffffffffffffffffffffffffffffffffffffffff16815260200190815260200160002060008282546113e991906134c6565b925050819055506001600360008473ffffffffffffffffffffffffffffffffffffffff1673ffffffffffffffffffffffffffffffffffffffff1681526020019081526020016000206000828254611440919061343f565b92505081905550816002600083815260200190815260200160002060006101000a81548173ffffffffffffffffffffffffffffffffffffffff021916908373ffffffffffffffffffffffffffffffffffffffff160217905550808273ffffffffffffffffffffffffffffffffffffffff168473ffffffffffffffffffffffffffffffffffffffff167fddf252ad1be2c89b69c2b068fc378daa952ba7f163c4a11628f55a4df523b3ef60405160405180910390a4505050565b6001816000016000828254019250508190555050565b600081600001549050919050565b611537828260405180602001604052806000815250611b27565b5050565b61154482611092565b611583576040517f08c379a000000000000000000000000000000000000000000000000000000000815260040161157a906131fa565b60405180910390fd5b80600a600084815260200190815260200160002090805190602001906115aa9291906127c4565b505050565b80600c600084815260200190815260200160002060006101000a81548173ffffffffffffffffffffffffffffffffffffffff021916908373ffffffffffffffffffffffffffffffffffffffff1602179055506000600d60008373ffffffffffffffffffffffffffffffffffffffff1673ffffffffffffffffffffffffffffffffffffffff1681526020019081526020016000205490506001600d60008473ffffffffffffffffffffffffffffffffffffffff1673ffffffffffffffffffffffffffffffffffffffff1681526020019081526020016000206000828254611695919061343f565b9250508190555082600e60008473ffffffffffffffffffffffffffffffffffffffff1673ffffffffffffffffffffffffffffffffffffffff16815260200190815260200160002060008381526020019081526020016000208190555080600f600085815260200190815260200160002081905550505050565b61171781611b82565b50565b8173ffffffffffffffffffffffffffffffffffffffff168373ffffffffffffffffffffffffffffffffffffffff161415611789576040517f08c379a00000000000000000000000000000000000000000000000000000000081526004016117809061315a565b60405180910390fd5b80600560008573ffffffffffffffffffffffffffffffffffffffff1673ffffffffffffffffffffffffffffffffffffffff16815260200190815260200160002060008473ffffffffffffffffffffffffffffffffffffffff1673ffffffffffffffffffffffffffffffffffffffff16815260200190815260200160002060006101000a81548160ff0219169083151502179055508173ffffffffffffffffffffffffffffffffffffffff168373ffffffffffffffffffffffffffffffffffffffff167f17307eab39ab6107e8899845ad3d59bd9653f200f220920489ca2b5937696c318360405161187a919061307d565b60405180910390a3505050565b61189284848461129d565b61189e84848484611bd5565b6118dd576040517f08c379a00000000000000000000000000000000000000000000000000000000081526004016118d4906130da565b60405180910390fd5b50505050565b60606118ee82611092565b61192d576040517f08c379a00000000000000000000000000000000000000000000000000000000081526004016119249061323a565b60405180910390fd5b6000600a6000848152602001908152602001600020805461194d906135b0565b80601f0160208091040260200160405190810160405280929190818152602001828054611979906135b0565b80156119c65780601f1061199b576101008083540402835291602001916119c6565b820191906000526020600020905b8154815290600101906020018083116119a957829003601f168201915b5050505050905060006119d7611d6c565b90506000815114156119ed578192505050611a30565b600082511115611a22578082604051602001611a0a929190612ff2565b60405160208183030381529060405292505050611a30565b611a2b84611d83565b925050505b919050565b60007f80ac58cd000000000000000000000000000000000000000000000000000000007bffffffffffffffffffffffffffffffffffffffffffffffffffffffff1916827bffffffffffffffffffffffffffffffffffffffffffffffffffffffff19161480611b0057507f5b5e139f000000000000000000000000000000000000000000000000000000007bffffffffffffffffffffffffffffffffffffffffffffffffffffffff1916827bffffffffffffffffffffffffffffffffffffffffffffffffffffffff1916145b80611b105750611b0f82611e2a565b5b9050919050565b611b22838383611e94565b505050565b611b318383611fa8565b611b3e6000848484611bd5565b611b7d576040517f08c379a0000000000000000000000000000000000000000000000000000000008152600401611b74906130da565b60405180910390fd5b505050565b611b8b81612176565b6000600a60008381526020019081526020016000208054611bab906135b0565b905014611bd257600a60008281526020019081526020016000206000611bd1919061284a565b5b50565b6000611bf68473ffffffffffffffffffffffffffffffffffffffff16612287565b15611d5f578373ffffffffffffffffffffffffffffffffffffffff1663150b7a02611c1f6110fe565b8786866040518563ffffffff1660e01b8152600401611c419493929190613031565b602060405180830381600087803b158015611c5b57600080fd5b505af1925050508015611c8c57506040513d601f19601f82011682018060405250810190611c899190612bb0565b60015b611d0f573d8060008114611cbc576040519150601f19603f3d011682016040523d82523d6000602084013e611cc1565b606091505b50600081511415611d07576040517f08c379a0000000000000000000000000000000000000000000000000000000008152600401611cfe906130da565b60405180910390fd5b805181602001fd5b63150b7a0260e01b7bffffffffffffffffffffffffffffffffffffffffffffffffffffffff1916817bffffffffffffffffffffffffffffffffffffffffffffffffffffffff191614915050611d64565b600190505b949350505050565b606060405180602001604052806000815250905090565b6060611d8e82611092565b611dcd576040517f08c379a0000000000000000000000000000000000000000000000000000000008152600401611dc4906132ba565b60405180910390fd5b6000611dd7611d6c565b90506000815111611df75760405180602001604052806000815250611e22565b80611e018461229a565b604051602001611e12929190612ff2565b6040516020818303038152906040525b915050919050565b60007f01ffc9a7000000000000000000000000000000000000000000000000000000007bffffffffffffffffffffffffffffffffffffffffffffffffffffffff1916827bffffffffffffffffffffffffffffffffffffffffffffffffffffffff1916149050919050565b611e9f838383612447565b600073ffffffffffffffffffffffffffffffffffffffff168373ffffffffffffffffffffffffffffffffffffffff161415611ee257611edd8161244c565b611f21565b8173ffffffffffffffffffffffffffffffffffffffff168373ffffffffffffffffffffffffffffffffffffffff1614611f2057611f1f8382612495565b5b5b600073ffffffffffffffffffffffffffffffffffffffff168273ffffffffffffffffffffffffffffffffffffffff161415611f6457611f5f81612602565b611fa3565b8273ffffffffffffffffffffffffffffffffffffffff168273ffffffffffffffffffffffffffffffffffffffff1614611fa257611fa18282612745565b5b5b505050565b600073ffffffffffffffffffffffffffffffffffffffff168273ffffffffffffffffffffffffffffffffffffffff161415612018576040517f08c379a000000000000000000000000000000000000000000000000000000000815260040161200f9061321a565b60405180910390fd5b61202181611092565b15612061576040517f08c379a00000000000000000000000000000000000000000000000000000000081526004016120589061311a565b60405180910390fd5b61206d60008383611b17565b6001600360008473ffffffffffffffffffffffffffffffffffffffff1673ffffffffffffffffffffffffffffffffffffffff16815260200190815260200160002060008282546120bd919061343f565b92505081905550816002600083815260200190815260200160002060006101000a81548173ffffffffffffffffffffffffffffffffffffffff021916908373ffffffffffffffffffffffffffffffffffffffff160217905550808273ffffffffffffffffffffffffffffffffffffffff16600073ffffffffffffffffffffffffffffffffffffffff167fddf252ad1be2c89b69c2b068fc378daa952ba7f163c4a11628f55a4df523b3ef60405160405180910390a45050565b600061218182610c78565b905061218f81600084611b17565b61219a600083611106565b6001600360008373ffffffffffffffffffffffffffffffffffffffff1673ffffffffffffffffffffffffffffffffffffffff16815260200190815260200160002060008282546121ea91906134c6565b925050819055506002600083815260200190815260200160002060006101000a81549073ffffffffffffffffffffffffffffffffffffffff021916905581600073ffffffffffffffffffffffffffffffffffffffff168273ffffffffffffffffffffffffffffffffffffffff167fddf252ad1be2c89b69c2b068fc378daa952ba7f163c4a11628f55a4df523b3ef60405160405180910390a45050565b600080823b905060008111915050919050565b606060008214156122e2576040518060400160405280600181526020017f30000000000000000000000000000000000000000000000000000000000000008152509050612442565b600082905060005b600082146123145780806122fd90613613565b915050600a8261230d9190613495565b91506122ea565b60008167ffffffffffffffff811115612356577f4e487b7100000000000000000000000000000000000000000000000000000000600052604160045260246000fd5b6040519080825280601f01601f1916602001820160405280156123885781602001600182028036833780820191505090505b5090505b6000851461243b576001826123a191906134c6565b9150600a856123b0919061365c565b60306123bc919061343f565b60f81b8183815181106123f8577f4e487b7100000000000000000000000000000000000000000000000000000000600052603260045260246000fd5b60200101907effffffffffffffffffffffffffffffffffffffffffffffffffffffffffffff1916908160001a905350600a856124349190613495565b945061238c565b8093505050505b919050565b505050565b6008805490506009600083815260200190815260200160002081905550600881908060018154018082558091505060019003906000526020600020016000909190919091505550565b600060016124a284610d2a565b6124ac91906134c6565b9050600060076000848152602001908152602001600020549050818114612591576000600660008673ffffffffffffffffffffffffffffffffffffffff1673ffffffffffffffffffffffffffffffffffffffff168152602001908152602001600020600084815260200190815260200160002054905080600660008773ffffffffffffffffffffffffffffffffffffffff1673ffffffffffffffffffffffffffffffffffffffff168152602001908152602001600020600084815260200190815260200160002081905550816007600083815260200190815260200160002081905550505b6007600084815260200190815260200160002060009055600660008573ffffffffffffffffffffffffffffffffffffffff1673ffffffffffffffffffffffffffffffffffffffff16815260200190815260200160002060008381526020019081526020016000206000905550505050565b6000600160088054905061261691906134c6565b905060006009600084815260200190815260200160002054905060006008838154811061266c577f4e487b7100000000000000000000000000000000000000000000000000000000600052603260045260246000fd5b9060005260206000200154905080600883815481106126b4577f4e487b7100000000000000000000000000000000000000000000000000000000600052603260045260246000fd5b906000526020600020018190555081600960008381526020019081526020016000208190555060096000858152602001908152602001600020600090556008805480612729577f4e487b7100000000000000000000000000000000000000000000000000000000600052603160045260246000fd5b6001900381819060005260206000200160009055905550505050565b600061275083610d2a565b905081600660008573ffffffffffffffffffffffffffffffffffffffff1673ffffffffffffffffffffffffffffffffffffffff168152602001908152602001600020600083815260200190815260200160002081905550806007600084815260200190815260200160002081905550505050565b8280546127d0906135b0565b90600052602060002090601f0160209004810192826127f25760008555612839565b82601f1061280b57805160ff1916838001178555612839565b82800160010185558215612839579182015b8281111561283857825182559160200191906001019061281d565b5b509050612846919061288a565b5090565b508054612856906135b0565b6000825580601f106128685750612887565b601f016020900490600052602060002090810190612886919061288a565b5b50565b5b808211156128a357600081600090555060010161288b565b5090565b60006128ba6128b58461339a565b613375565b9050828152602081018484840111156128d257600080fd5b6128dd84828561356e565b509392505050565b60006128f86128f3846133cb565b613375565b90508281526020810184848401111561291057600080fd5b61291b84828561356e565b509392505050565b60008135905061293281613d3d565b92915050565b60008135905061294781613d54565b92915050565b60008135905061295c81613d6b565b92915050565b60008151905061297181613d6b565b92915050565b600082601f83011261298857600080fd5b81356129988482602086016128a7565b91505092915050565b600082601f8301126129b257600080fd5b81356129c28482602086016128e5565b91505092915050565b6000813590506129da81613d82565b92915050565b6000602082840312156129f257600080fd5b6000612a0084828501612923565b91505092915050565b60008060408385031215612a1c57600080fd5b6000612a2a85828601612923565b9250506020612a3b85828601612923565b9150509250929050565b600080600060608486031215612a5a57600080fd5b6000612a6886828701612923565b9350506020612a7986828701612923565b9250506040612a8a868287016129cb565b9150509250925092565b60008060008060808587031215612aaa57600080fd5b6000612ab887828801612923565b9450506020612ac987828801612923565b9350506040612ada878288016129cb565b925050606085013567ffffffffffffffff811115612af757600080fd5b612b0387828801612977565b91505092959194509250565b60008060408385031215612b2257600080fd5b6000612b3085828601612923565b9250506020612b4185828601612938565b9150509250929050565b60008060408385031215612b5e57600080fd5b6000612b6c85828601612923565b9250506020612b7d858286016129cb565b9150509250929050565b600060208284031215612b9957600080fd5b6000612ba78482850161294d565b91505092915050565b600060208284031215612bc257600080fd5b6000612bd084828501612962565b91505092915050565b600060208284031215612beb57600080fd5b600082013567ffffffffffffffff811115612c0557600080fd5b612c11848285016129a1565b91505092915050565b600060208284031215612c2c57600080fd5b6000612c3a848285016129cb565b91505092915050565b612c4c816134fa565b82525050565b612c5b8161350c565b82525050565b6000612c6c826133fc565b612c768185613412565b9350612c8681856020860161357d565b612c8f81613749565b840191505092915050565b6000612ca582613407565b612caf8185613423565b9350612cbf81856020860161357d565b612cc881613749565b840191505092915050565b6000612cde82613407565b612ce88185613434565b9350612cf881856020860161357d565b80840191505092915050565b6000612d11602b83613423565b9150612d1c8261375a565b604082019050919050565b6000612d34603283613423565b9150612d3f826137a9565b604082019050919050565b6000612d57601a83613423565b9150612d62826137f8565b602082019050919050565b6000612d7a601c83613423565b9150612d8582613821565b602082019050919050565b6000612d9d602483613423565b9150612da88261384a565b604082019050919050565b6000612dc0601983613423565b9150612dcb82613899565b602082019050919050565b6000612de3602c83613423565b9150612dee826138c2565b604082019050919050565b6000612e06603883613423565b9150612e1182613911565b604082019050919050565b6000612e29602a83613423565b9150612e3482613960565b604082019050919050565b6000612e4c602983613423565b9150612e57826139af565b604082019050919050565b6000612e6f602e83613423565b9150612e7a826139fe565b604082019050919050565b6000612e92602083613423565b9150612e9d82613a4d565b602082019050919050565b6000612eb5603183613423565b9150612ec082613a76565b604082019050919050565b6000612ed8602c83613423565b9150612ee382613ac5565b604082019050919050565b6000612efb602683613423565b9150612f0682613b14565b604082019050919050565b6000612f1e602983613423565b9150612f2982613b63565b604082019050919050565b6000612f41602f83613423565b9150612f4c82613bb2565b604082019050919050565b6000612f64602183613423565b9150612f6f82613c01565b604082019050919050565b6000612f87602883613423565b9150612f9282613c50565b604082019050919050565b6000612faa603183613423565b9150612fb582613c9f565b604082019050919050565b6000612fcd602c83613423565b9150612fd882613cee565b604082019050919050565b612fec81613564565b82525050565b6000612ffe8285612cd3565b915061300a8284612cd3565b91508190509392505050565b600060208201905061302b6000830184612c43565b92915050565b60006080820190506130466000830187612c43565b6130536020830186612c43565b6130606040830185612fe3565b81810360608301526130728184612c61565b905095945050505050565b60006020820190506130926000830184612c52565b92915050565b600060208201905081810360008301526130b28184612c9a565b905092915050565b600060208201905081810360008301526130d381612d04565b9050919050565b600060208201905081810360008301526130f381612d27565b9050919050565b6000602082019050818103600083015261311381612d4a565b9050919050565b6000602082019050818103600083015261313381612d6d565b9050919050565b6000602082019050818103600083015261315381612d90565b9050919050565b6000602082019050818103600083015261317381612db3565b9050919050565b6000602082019050818103600083015261319381612dd6565b9050919050565b600060208201905081810360008301526131b381612df9565b9050919050565b600060208201905081810360008301526131d381612e1c565b9050919050565b600060208201905081810360008301526131f381612e3f565b9050919050565b6000602082019050818103600083015261321381612e62565b9050919050565b6000602082019050818103600083015261323381612e85565b9050919050565b6000602082019050818103600083015261325381612ea8565b9050919050565b6000602082019050818103600083015261327381612ecb565b9050919050565b6000602082019050818103600083015261329381612eee565b9050919050565b600060208201905081810360008301526132b381612f11565b9050919050565b600060208201905081810360008301526132d381612f34565b9050919050565b600060208201905081810360008301526132f381612f57565b9050919050565b6000602082019050818103600083015261331381612f7a565b9050919050565b6000602082019050818103600083015261333381612f9d565b9050919050565b6000602082019050818103600083015261335381612fc0565b9050919050565b600060208201905061336f6000830184612fe3565b92915050565b600061337f613390565b905061338b82826135e2565b919050565b6000604051905090565b600067ffffffffffffffff8211156133b5576133b461371a565b5b6133be82613749565b9050602081019050919050565b600067ffffffffffffffff8211156133e6576133e561371a565b5b6133ef82613749565b9050602081019050919050565b600081519050919050565b600081519050919050565b600082825260208201905092915050565b600082825260208201905092915050565b600081905092915050565b600061344a82613564565b915061345583613564565b9250827fffffffffffffffffffffffffffffffffffffffffffffffffffffffffffffffff0382111561348a5761348961368d565b5b828201905092915050565b60006134a082613564565b91506134ab83613564565b9250826134bb576134ba6136bc565b5b828204905092915050565b60006134d182613564565b91506134dc83613564565b9250828210156134ef576134ee61368d565b5b828203905092915050565b600061350582613544565b9050919050565b60008115159050919050565b60007fffffffff0000000000000000000000000000000000000000000000000000000082169050919050565b600073ffffffffffffffffffffffffffffffffffffffff82169050919050565b6000819050919050565b82818337600083830152505050565b60005b8381101561359b578082015181840152602081019050613580565b838111156135aa576000848401525b50505050565b600060028204905060018216806135c857607f821691505b602082108114156135dc576135db6136eb565b5b50919050565b6135eb82613749565b810181811067ffffffffffffffff8211171561360a5761360961371a565b5b80604052505050565b600061361e82613564565b91507fffffffffffffffffffffffffffffffffffffffffffffffffffffffffffffffff8214156136515761365061368d565b5b600182019050919050565b600061366782613564565b915061367283613564565b925082613682576136816136bc565b5b828206905092915050565b7f4e487b7100000000000000000000000000000000000000000000000000000000600052601160045260246000fd5b7f4e487b7100000000000000000000000000000000000000000000000000000000600052601260045260246000fd5b7f4e487b7100000000000000000000000000000000000000000000000000000000600052602260045260246000fd5b7f4e487b7100000000000000000000000000000000000000000000000000000000600052604160045260246000fd5b6000601f19601f8301169050919050565b7f455243373231456e756d657261626c653a206f776e657220696e646578206f7560008201527f74206f6620626f756e6473000000000000000000000000000000000000000000602082015250565b7f4552433732313a207472616e7366657220746f206e6f6e20455243373231526560008201527f63656976657220696d706c656d656e7465720000000000000000000000000000602082015250565b7f61727469737420696e646578206f7574206f6620626f756e6473000000000000600082015250565b7f4552433732313a20746f6b656e20616c7265616479206d696e74656400000000600082015250565b7f4552433732313a207472616e7366657220746f20746865207a65726f2061646460008201527f7265737300000000000000000000000000000000000000000000000000000000602082015250565b7f4552433732313a20617070726f766520746f2063616c6c657200000000000000600082015250565b7f4552433732313a206f70657261746f7220717565727920666f72206e6f6e657860008201527f697374656e7420746f6b656e0000000000000000000000000000000000000000602082015250565b7f4552433732313a20617070726f76652063616c6c6572206973206e6f74206f7760008201527f6e6572206e6f7220617070726f76656420666f7220616c6c0000000000000000602082015250565b7f4552433732313a2062616c616e636520717565727920666f7220746865207a6560008201527f726f206164647265737300000000000000000000000000000000000000000000602082015250565b7f4552433732313a206f776e657220717565727920666f72206e6f6e657869737460008201527f656e7420746f6b656e0000000000000000000000000000000000000000000000602082015250565b7f45524337323155524953746f726167653a2055524920736574206f66206e6f6e60008201527f6578697374656e7420746f6b656e000000000000000000000000000000000000602082015250565b7f4552433732313a206d696e7420746f20746865207a65726f2061646472657373600082015250565b7f45524337323155524953746f726167653a2055524920717565727920666f722060008201527f6e6f6e6578697374656e7420746f6b656e000000000000000000000000000000602082015250565b7f4552433732313a20617070726f76656420717565727920666f72206e6f6e657860008201527f697374656e7420746f6b656e0000000000000000000000000000000000000000602082015250565b7f4d75737420626520746865206f776e6572206f662074686520746f6b656e207460008201527f6f206275726e0000000000000000000000000000000000000000000000000000602082015250565b7f4552433732313a207472616e73666572206f6620746f6b656e2074686174206960008201527f73206e6f74206f776e0000000000000000000000000000000000000000000000602082015250565b7f4552433732314d657461646174613a2055524920717565727920666f72206e6f60008201527f6e6578697374656e7420746f6b656e0000000000000000000000000000000000602082015250565b7f4552433732313a20617070726f76616c20746f2063757272656e74206f776e6560008201527f7200000000000000000000000000000000000000000000000000000000000000602082015250565b7f4d757374206265207468652063726561746f72206f662074686520746f6b656e60008201527f20746f206275726e000000000000000000000000000000000000000000000000602082015250565b7f4552433732313a207472616e736665722063616c6c6572206973206e6f74206f60008201527f776e6572206e6f7220617070726f766564000000000000000000000000000000602082015250565b7f455243373231456e756d657261626c653a20676c6f62616c20696e646578206f60008201527f7574206f6620626f756e64730000000000000000000000000000000000000000602082015250565b613d46816134fa565b8114613d5157600080fd5b50565b613d5d8161350c565b8114613d6857600080fd5b50565b613d7481613518565b8114613d7f57600080fd5b50565b613d8b81613564565b8114613d9657600080fd5b5056fea264697066735822122036f006caaf6b6437ad8ecf84e29d701cd190efcc67f039eaf5d5c302f2649d9864736f6c63430008040033",
  "linkReferences": {},
  "deployedLinkReferences": {}
}