{
  "_format": "hh-sol-artifact-1",
  "contractName": "GNFT",
  "sourceName": "contracts/GNFT.sol",
  "abi": [
    {
      "inputs": [],
      "stateMutability": "nonpayable",
      "type": "constructor"
    },
    {
      "anonymous": false,
      "inputs": [
        {
          "indexed": true,
          "internalType": "address",
          "name": "owner",
          "type": "address"
        },
        {
          "indexed": true,
          "internalType": "address",
          "name": "approved",
          "type": "address"
        },
        {
          "indexed": true,
          "internalType": "uint256",
          "name": "tokenId",
          "type": "uint256"
        }
      ],
      "name": "Approval",
      "type": "event"
    },
    {
      "anonymous": false,
      "inputs": [
        {
          "indexed": true,
          "internalType": "address",
          "name": "owner",
          "type": "address"
        },
        {
          "indexed": true,
          "internalType": "address",
          "name": "operator",
          "type": "address"
        },
        {
          "indexed": false,
          "internalType": "bool",
          "name": "approved",
          "type": "bool"
        }
      ],
      "name": "ApprovalForAll",
      "type": "event"
    },
    {
      "anonymous": false,
      "inputs": [
        {
          "indexed": true,
          "internalType": "address",
          "name": "previousOwner",
          "type": "address"
        },
        {
          "indexed": true,
          "internalType": "address",
          "name": "newOwner",
          "type": "address"
        }
      ],
      "name": "OwnershipTransferred",
      "type": "event"
    },
    {
      "anonymous": false,
      "inputs": [
        {
          "indexed": true,
          "internalType": "address",
          "name": "from",
          "type": "address"
        },
        {
          "indexed": true,
          "internalType": "address",
          "name": "to",
          "type": "address"
        },
        {
          "indexed": true,
          "internalType": "uint256",
          "name": "tokenId",
          "type": "uint256"
        }
      ],
      "name": "Transfer",
      "type": "event"
    },
    {
      "inputs": [
        {
          "internalType": "address",
          "name": "to",
          "type": "address"
        },
        {
          "internalType": "uint256",
          "name": "tokenId",
          "type": "uint256"
        }
      ],
      "name": "approve",
      "outputs": [],
      "stateMutability": "nonpayable",
      "type": "function"
    },
    {
      "inputs": [
        {
          "internalType": "address",
          "name": "owner",
          "type": "address"
        }
      ],
      "name": "balanceOf",
      "outputs": [
        {
          "internalType": "uint256",
          "name": "",
          "type": "uint256"
        }
      ],
      "stateMutability": "view",
      "type": "function"
    },
    {
      "inputs": [
        {
          "internalType": "address",
          "name": "creator",
          "type": "address"
        }
      ],
      "name": "createdBalanceOf",
      "outputs": [
        {
          "internalType": "uint256",
          "name": "",
          "type": "uint256"
        }
      ],
      "stateMutability": "view",
      "type": "function"
    },
    {
      "inputs": [
        {
          "internalType": "uint256",
          "name": "id",
          "type": "uint256"
        }
      ],
      "name": "creatorOf",
      "outputs": [
        {
          "internalType": "address",
          "name": "",
          "type": "address"
        }
      ],
      "stateMutability": "view",
      "type": "function"
    },
    {
      "inputs": [
        {
          "internalType": "uint256",
          "name": "tokenId",
          "type": "uint256"
        }
      ],
      "name": "getApproved",
      "outputs": [
        {
          "internalType": "address",
          "name": "",
          "type": "address"
        }
      ],
      "stateMutability": "view",
      "type": "function"
    },
    {
      "inputs": [
        {
          "internalType": "address",
          "name": "owner",
          "type": "address"
        },
        {
          "internalType": "address",
          "name": "operator",
          "type": "address"
        }
      ],
      "name": "isApprovedForAll",
      "outputs": [
        {
          "internalType": "bool",
          "name": "",
          "type": "bool"
        }
      ],
      "stateMutability": "view",
      "type": "function"
    },
    {
      "inputs": [
        {
          "internalType": "string",
          "name": "_tokenURI",
          "type": "string"
        }
      ],
      "name": "mintToken",
      "outputs": [
        {
          "internalType": "uint256",
          "name": "",
          "type": "uint256"
        }
      ],
      "stateMutability": "nonpayable",
      "type": "function"
    },
    {
      "inputs": [],
      "name": "name",
      "outputs": [
        {
          "internalType": "string",
          "name": "",
          "type": "string"
        }
      ],
      "stateMutability": "view",
      "type": "function"
    },
    {
      "inputs": [],
      "name": "owner",
      "outputs": [
        {
          "internalType": "address",
          "name": "",
          "type": "address"
        }
      ],
      "stateMutability": "view",
      "type": "function"
    },
    {
      "inputs": [
        {
          "internalType": "uint256",
          "name": "tokenId",
          "type": "uint256"
        }
      ],
      "name": "ownerOf",
      "outputs": [
        {
          "internalType": "address",
          "name": "",
          "type": "address"
        }
      ],
      "stateMutability": "view",
      "type": "function"
    },
    {
      "inputs": [],
      "name": "renounceOwnership",
      "outputs": [],
      "stateMutability": "nonpayable",
      "type": "function"
    },
    {
      "inputs": [
        {
          "internalType": "address",
          "name": "from",
          "type": "address"
        },
        {
          "internalType": "address",
          "name": "to",
          "type": "address"
        },
        {
          "internalType": "uint256",
          "name": "tokenId",
          "type": "uint256"
        }
      ],
      "name": "safeTransferFrom",
      "outputs": [],
      "stateMutability": "nonpayable",
      "type": "function"
    },
    {
      "inputs": [
        {
          "internalType": "address",
          "name": "from",
          "type": "address"
        },
        {
          "internalType": "address",
          "name": "to",
          "type": "address"
        },
        {
          "internalType": "uint256",
          "name": "tokenId",
          "type": "uint256"
        },
        {
          "internalType": "bytes",
          "name": "_data",
          "type": "bytes"
        }
      ],
      "name": "safeTransferFrom",
      "outputs": [],
      "stateMutability": "nonpayable",
      "type": "function"
    },
    {
      "inputs": [
        {
          "internalType": "address",
          "name": "operator",
          "type": "address"
        },
        {
          "internalType": "bool",
          "name": "approved",
          "type": "bool"
        }
      ],
      "name": "setApprovalForAll",
      "outputs": [],
      "stateMutability": "nonpayable",
      "type": "function"
    },
    {
      "inputs": [
        {
          "internalType": "bytes4",
          "name": "interfaceId",
          "type": "bytes4"
        }
      ],
      "name": "supportsInterface",
      "outputs": [
        {
          "internalType": "bool",
          "name": "",
          "type": "bool"
        }
      ],
      "stateMutability": "view",
      "type": "function"
    },
    {
      "inputs": [],
      "name": "symbol",
      "outputs": [
        {
          "internalType": "string",
          "name": "",
          "type": "string"
        }
      ],
      "stateMutability": "view",
      "type": "function"
    },
    {
      "inputs": [
        {
          "internalType": "uint256",
          "name": "index",
          "type": "uint256"
        }
      ],
      "name": "tokenByIndex",
      "outputs": [
        {
          "internalType": "uint256",
          "name": "",
          "type": "uint256"
        }
      ],
      "stateMutability": "view",
      "type": "function"
    },
    {
      "inputs": [
        {
          "internalType": "address",
          "name": "creator",
          "type": "address"
        },
        {
          "internalType": "uint256",
          "name": "idx",
          "type": "uint256"
        }
      ],
      "name": "tokenOfCreatorByIndex",
      "outputs": [
        {
          "internalType": "uint256",
          "name": "",
          "type": "uint256"
        }
      ],
      "stateMutability": "view",
      "type": "function"
    },
    {
      "inputs": [
        {
          "internalType": "address",
          "name": "owner",
          "type": "address"
        },
        {
          "internalType": "uint256",
          "name": "index",
          "type": "uint256"
        }
      ],
      "name": "tokenOfOwnerByIndex",
      "outputs": [
        {
          "internalType": "uint256",
          "name": "",
          "type": "uint256"
        }
      ],
      "stateMutability": "view",
      "type": "function"
    },
    {
      "inputs": [
        {
          "internalType": "uint256",
          "name": "id",
          "type": "uint256"
        }
      ],
      "name": "tokenURI",
      "outputs": [
        {
          "internalType": "string",
          "name": "",
          "type": "string"
        }
      ],
      "stateMutability": "view",
      "type": "function"
    },
    {
      "inputs": [
        {
          "internalType": "address",
          "name": "creator",
          "type": "address"
        },
        {
          "internalType": "uint256",
          "name": "pageSize",
          "type": "uint256"
        },
        {
          "internalType": "uint256",
          "name": "page",
          "type": "uint256"
        }
      ],
      "name": "tokensOfCreatorByPage",
      "outputs": [
        {
          "components": [
            {
              "internalType": "uint256",
              "name": "id",
              "type": "uint256"
            },
            {
              "internalType": "string",
              "name": "tokenURI",
              "type": "string"
            },
            {
              "internalType": "address",
              "name": "owner",
              "type": "address"
            },
            {
              "internalType": "address",
              "name": "creator",
              "type": "address"
            }
          ],
          "internalType": "struct GNFT.TokenData[]",
          "name": "",
          "type": "tuple[]"
        }
      ],
      "stateMutability": "view",
      "type": "function"
    },
    {
      "inputs": [
        {
          "internalType": "address",
          "name": "owner",
          "type": "address"
        },
        {
          "internalType": "uint256",
          "name": "pageSize",
          "type": "uint256"
        },
        {
          "internalType": "uint256",
          "name": "page",
          "type": "uint256"
        }
      ],
      "name": "tokensOfOwnerByPage",
      "outputs": [
        {
          "components": [
            {
              "internalType": "uint256",
              "name": "id",
              "type": "uint256"
            },
            {
              "internalType": "string",
              "name": "tokenURI",
              "type": "string"
            },
            {
              "internalType": "address",
              "name": "owner",
              "type": "address"
            },
            {
              "internalType": "address",
              "name": "creator",
              "type": "address"
            }
          ],
          "internalType": "struct GNFT.TokenData[]",
          "name": "",
          "type": "tuple[]"
        }
      ],
      "stateMutability": "view",
      "type": "function"
    },
    {
      "inputs": [],
      "name": "totalSupply",
      "outputs": [
        {
          "internalType": "uint256",
          "name": "",
          "type": "uint256"
        }
      ],
      "stateMutability": "view",
      "type": "function"
    },
    {
      "inputs": [
        {
          "internalType": "address",
          "name": "from",
          "type": "address"
        },
        {
          "internalType": "address",
          "name": "to",
          "type": "address"
        },
        {
          "internalType": "uint256",
          "name": "tokenId",
          "type": "uint256"
        }
      ],
      "name": "transferFrom",
      "outputs": [],
      "stateMutability": "nonpayable",
      "type": "function"
    },
    {
      "inputs": [
        {
          "internalType": "address",
          "name": "newOwner",
          "type": "address"
        }
      ],
      "name": "transferOwnership",
      "outputs": [],
      "stateMutability": "nonpayable",
      "type": "function"
    }
  ],
  "bytecode": "0x60806040523480156200001157600080fd5b506040518060400160405280600581526020017f472d4e46540000000000000000000000000000000000000000000000000000008152506040518060400160405280600481526020017f474e465400000000000000000000000000000000000000000000000000000000815250816000908051906020019062000096929190620001a6565b508060019080519060200190620000af929190620001a6565b505050620000d2620000c6620000d860201b60201c565b620000e060201b60201c565b620002bb565b600033905090565b6000600b60009054906101000a900473ffffffffffffffffffffffffffffffffffffffff16905081600b60006101000a81548173ffffffffffffffffffffffffffffffffffffffff021916908373ffffffffffffffffffffffffffffffffffffffff1602179055508173ffffffffffffffffffffffffffffffffffffffff168173ffffffffffffffffffffffffffffffffffffffff167f8be0079c531659141344cd1fd0a4f28419497f9722a3daafe3b4186f6b6457e060405160405180910390a35050565b828054620001b49062000256565b90600052602060002090601f016020900481019282620001d8576000855562000224565b82601f10620001f357805160ff191683800117855562000224565b8280016001018555821562000224579182015b828111156200022357825182559160200191906001019062000206565b5b50905062000233919062000237565b5090565b5b808211156200025257600081600090555060010162000238565b5090565b600060028204905060018216806200026f57607f821691505b602082108114156200028657620002856200028c565b5b50919050565b7f4e487b7100000000000000000000000000000000000000000000000000000000600052602260045260246000fd5b61454880620002cb6000396000f3fe608060405234801561001057600080fd5b50600436106101735760003560e01c8063589a1743116100de57806395d89b4111610097578063b88d4fde11610071578063b88d4fde146104aa578063c87b56dd146104c6578063e985e9c5146104f6578063f2fde38b1461052657610173565b806395d89b4114610440578063a22cb4651461045e578063b82faed51461047a57610173565b8063589a1743146103585780636352211e146103885780636f7cce05146103b857806370a08231146103e8578063715018a6146104185780638da5cb5b1461042257610173565b806323b872dd1161013057806323b872dd146102605780632f745c591461027c57806333eba49a146102ac57806342842e0e146102dc5780634f6ccce7146102f85780634fc092751461032857610173565b806301ffc9a71461017857806302f24e7b146101a857806306fdde03146101d8578063081812fc146101f6578063095ea7b31461022657806318160ddd14610242575b600080fd5b610192600480360381019061018d9190613045565b610542565b60405161019f91906136e6565b60405180910390f35b6101c260048036038101906101bd9190612ff6565b610554565b6040516101cf91906136c4565b60405180910390f35b6101e0610830565b6040516101ed9190613701565b60405180910390f35b610210600480360381019061020b91906130d8565b6108c2565b60405161021d919061365d565b60405180910390f35b610240600480360381019061023b9190612fba565b610947565b005b61024a610a5f565b6040516102579190613a03565b60405180910390f35b61027a60048036038101906102759190612eb4565b610a6c565b005b61029660048036038101906102919190612fba565b610acc565b6040516102a39190613a03565b60405180910390f35b6102c660048036038101906102c19190613097565b610b71565b6040516102d39190613a03565b60405180910390f35b6102f660048036038101906102f19190612eb4565b610bb2565b005b610312600480360381019061030d91906130d8565b610bd2565b60405161031f9190613a03565b60405180910390f35b610342600480360381019061033d9190612fba565b610c69565b60405161034f9190613a03565b60405180910390f35b610372600480360381019061036d91906130d8565b610d0e565b60405161037f919061365d565b60405180910390f35b6103a2600480360381019061039d91906130d8565b610d4b565b6040516103af919061365d565b60405180910390f35b6103d260048036038101906103cd9190612ff6565b610dfd565b6040516103df91906136c4565b60405180910390f35b61040260048036038101906103fd9190612e4f565b6110c2565b60405161040f9190613a03565b60405180910390f35b61042061117a565b005b61042a611202565b604051610437919061365d565b60405180910390f35b61044861122c565b6040516104559190613701565b60405180910390f35b61047860048036038101906104739190612f7e565b6112be565b005b610494600480360381019061048f9190612e4f565b6112d4565b6040516104a19190613a03565b60405180910390f35b6104c460048036038101906104bf9190612f03565b61131d565b005b6104e060048036038101906104db91906130d8565b61137f565b6040516104ed9190613701565b60405180910390f35b610510600480360381019061050b9190612e78565b611391565b60405161051d91906136e6565b60405180910390f35b610540600480360381019061053b9190612e4f565b611425565b005b600061054d8261151d565b9050919050565b60606000831180156105665750606583105b6105a5576040517f08c379a000000000000000000000000000000000000000000000000000000000815260040161059c90613723565b60405180910390fd5b6000821180156105d357506105b9846110c2565b836001846105c79190613c13565b6105d19190613bb9565b105b610612576040517f08c379a000000000000000000000000000000000000000000000000000000000815260040161060990613923565b60405180910390fd5b6000836001846106229190613c13565b61062c9190613bb9565b905060006001858361063e9190613b32565b6106489190613c13565b6001610653886110c2565b61065d9190613c13565b1061067f57600185836106709190613b32565b61067a9190613c13565b610695565b600161068a876110c2565b6106949190613c13565b5b90506000600183836106a79190613c13565b6106b19190613b32565b905060008167ffffffffffffffff8111156106f5577f4e487b7100000000000000000000000000000000000000000000000000000000600052604160045260246000fd5b60405190808252806020026020018201604052801561072e57816020015b61071b612c1f565b8152602001906001900390816107135790505b50905060005b8281101561082157600061076a8a60018a61074f9190613c13565b8b61075a9190613bb9565b846107659190613b32565b610acc565b905060405180608001604052808281526020016107868361137f565b81526020018b73ffffffffffffffffffffffffffffffffffffffff1681526020016107b083610d0e565b73ffffffffffffffffffffffffffffffffffffffff16815250838381518110610802577f4e487b7100000000000000000000000000000000000000000000000000000000600052603260045260246000fd5b602002602001018190525050808061081990613d60565b915050610734565b50809450505050509392505050565b60606000805461083f90613cfd565b80601f016020809104026020016040519081016040528092919081815260200182805461086b90613cfd565b80156108b85780601f1061088d576101008083540402835291602001916108b8565b820191906000526020600020905b81548152906001019060200180831161089b57829003601f168201915b5050505050905090565b60006108cd82611597565b61090c576040517f08c379a000000000000000000000000000000000000000000000000000000000815260040161090390613903565b60405180910390fd5b6004600083815260200190815260200160002060009054906101000a900473ffffffffffffffffffffffffffffffffffffffff169050919050565b600061095282610d4b565b90508073ffffffffffffffffffffffffffffffffffffffff168373ffffffffffffffffffffffffffffffffffffffff1614156109c3576040517f08c379a00000000000000000000000000000000000000000000000000000000081526004016109ba906139a3565b60405180910390fd5b8073ffffffffffffffffffffffffffffffffffffffff166109e2611603565b73ffffffffffffffffffffffffffffffffffffffff161480610a115750610a1081610a0b611603565b611391565b5b610a50576040517f08c379a0000000000000000000000000000000000000000000000000000000008152600401610a4790613823565b60405180910390fd5b610a5a838361160b565b505050565b6000600880549050905090565b610a7d610a77611603565b826116c4565b610abc576040517f08c379a0000000000000000000000000000000000000000000000000000000008152600401610ab3906139c3565b60405180910390fd5b610ac78383836117a2565b505050565b6000610ad7836110c2565b8210610b18576040517f08c379a0000000000000000000000000000000000000000000000000000000008152600401610b0f90613743565b60405180910390fd5b600660008473ffffffffffffffffffffffffffffffffffffffff1673ffffffffffffffffffffffffffffffffffffffff168152602001908152602001600020600083815260200190815260200160002054905092915050565b6000610b7d60106119fe565b6000610b896010611a14565b9050610b953382611a22565b610b9f8184611a40565b610ba98133611ab4565b80915050919050565b610bcd8383836040518060200160405280600081525061131d565b505050565b6000610bdc610a5f565b8210610c1d576040517f08c379a0000000000000000000000000000000000000000000000000000000008152600401610c14906139e3565b60405180910390fd5b60088281548110610c57577f4e487b7100000000000000000000000000000000000000000000000000000000600052603260045260246000fd5b90600052602060002001549050919050565b6000610c74836112d4565b8210610cb5576040517f08c379a0000000000000000000000000000000000000000000000000000000008152600401610cac906138e3565b60405180910390fd5b600e60008473ffffffffffffffffffffffffffffffffffffffff1673ffffffffffffffffffffffffffffffffffffffff168152602001908152602001600020600083815260200190815260200160002054905092915050565b6000600c600083815260200190815260200160002060009054906101000a900473ffffffffffffffffffffffffffffffffffffffff169050919050565b6000806002600084815260200190815260200160002060009054906101000a900473ffffffffffffffffffffffffffffffffffffffff169050600073ffffffffffffffffffffffffffffffffffffffff168173ffffffffffffffffffffffffffffffffffffffff161415610df4576040517f08c379a0000000000000000000000000000000000000000000000000000000008152600401610deb90613863565b60405180910390fd5b80915050919050565b6060600083600184610e0f9190613c13565b610e199190613bb9565b9050600084118015610e2b5750606584105b610e6a576040517f08c379a0000000000000000000000000000000000000000000000000000000008152600401610e6190613723565b60405180910390fd5b600083118015610e815750610e7e856112d4565b81105b610ec0576040517f08c379a0000000000000000000000000000000000000000000000000000000008152600401610eb790613923565b60405180910390fd5b600060018583610ed09190613b32565b610eda9190613c13565b6001610ee5886112d4565b610eef9190613c13565b10610f115760018583610f029190613b32565b610f0c9190613c13565b610f27565b6001610f1c876112d4565b610f269190613c13565b5b9050600060018383610f399190613c13565b610f439190613b32565b905060008167ffffffffffffffff811115610f87577f4e487b7100000000000000000000000000000000000000000000000000000000600052604160045260246000fd5b604051908082528060200260200182016040528015610fc057816020015b610fad612c1f565b815260200190600190039081610fa55790505b50905060005b828110156110b3576000610ffc8a60018a610fe19190613c13565b8b610fec9190613bb9565b84610ff79190613b32565b610c69565b905060405180608001604052808281526020016110188361137f565b815260200161102683610d4b565b73ffffffffffffffffffffffffffffffffffffffff1681526020018b73ffffffffffffffffffffffffffffffffffffffff16815250838381518110611094577f4e487b7100000000000000000000000000000000000000000000000000000000600052603260045260246000fd5b60200260200101819052505080806110ab90613d60565b915050610fc6565b50809450505050509392505050565b60008073ffffffffffffffffffffffffffffffffffffffff168273ffffffffffffffffffffffffffffffffffffffff161415611133576040517f08c379a000000000000000000000000000000000000000000000000000000000815260040161112a90613843565b60405180910390fd5b600360008373ffffffffffffffffffffffffffffffffffffffff1673ffffffffffffffffffffffffffffffffffffffff168152602001908152602001600020549050919050565b611182611603565b73ffffffffffffffffffffffffffffffffffffffff166111a0611202565b73ffffffffffffffffffffffffffffffffffffffff16146111f6576040517f08c379a00000000000000000000000000000000000000000000000000000000081526004016111ed90613943565b60405180910390fd5b6112006000611c13565b565b6000600b60009054906101000a900473ffffffffffffffffffffffffffffffffffffffff16905090565b60606001805461123b90613cfd565b80601f016020809104026020016040519081016040528092919081815260200182805461126790613cfd565b80156112b45780601f10611289576101008083540402835291602001916112b4565b820191906000526020600020905b81548152906001019060200180831161129757829003601f168201915b5050505050905090565b6112d06112c9611603565b8383611cd9565b5050565b6000600d60008373ffffffffffffffffffffffffffffffffffffffff1673ffffffffffffffffffffffffffffffffffffffff168152602001908152602001600020549050919050565b61132e611328611603565b836116c4565b61136d576040517f08c379a0000000000000000000000000000000000000000000000000000000008152600401611364906139c3565b60405180910390fd5b61137984848484611e46565b50505050565b606061138a82611ea2565b9050919050565b6000600560008473ffffffffffffffffffffffffffffffffffffffff1673ffffffffffffffffffffffffffffffffffffffff16815260200190815260200160002060008373ffffffffffffffffffffffffffffffffffffffff1673ffffffffffffffffffffffffffffffffffffffff16815260200190815260200160002060009054906101000a900460ff16905092915050565b61142d611603565b73ffffffffffffffffffffffffffffffffffffffff1661144b611202565b73ffffffffffffffffffffffffffffffffffffffff16146114a1576040517f08c379a000000000000000000000000000000000000000000000000000000000815260040161149890613943565b60405180910390fd5b600073ffffffffffffffffffffffffffffffffffffffff168173ffffffffffffffffffffffffffffffffffffffff161415611511576040517f08c379a000000000000000000000000000000000000000000000000000000000815260040161150890613783565b60405180910390fd5b61151a81611c13565b50565b60007f780e9d63000000000000000000000000000000000000000000000000000000007bffffffffffffffffffffffffffffffffffffffffffffffffffffffff1916827bffffffffffffffffffffffffffffffffffffffffffffffffffffffff19161480611590575061158f82611ff4565b5b9050919050565b60008073ffffffffffffffffffffffffffffffffffffffff166002600084815260200190815260200160002060009054906101000a900473ffffffffffffffffffffffffffffffffffffffff1673ffffffffffffffffffffffffffffffffffffffff1614159050919050565b600033905090565b816004600083815260200190815260200160002060006101000a81548173ffffffffffffffffffffffffffffffffffffffff021916908373ffffffffffffffffffffffffffffffffffffffff160217905550808273ffffffffffffffffffffffffffffffffffffffff1661167e83610d4b565b73ffffffffffffffffffffffffffffffffffffffff167f8c5be1e5ebec7d5bd14f71427d1e84f3dd0314c0f7b2291e5b200ac8c7c3b92560405160405180910390a45050565b60006116cf82611597565b61170e576040517f08c379a000000000000000000000000000000000000000000000000000000000815260040161170590613803565b60405180910390fd5b600061171983610d4b565b90508073ffffffffffffffffffffffffffffffffffffffff168473ffffffffffffffffffffffffffffffffffffffff16148061178857508373ffffffffffffffffffffffffffffffffffffffff16611770846108c2565b73ffffffffffffffffffffffffffffffffffffffff16145b8061179957506117988185611391565b5b91505092915050565b8273ffffffffffffffffffffffffffffffffffffffff166117c282610d4b565b73ffffffffffffffffffffffffffffffffffffffff1614611818576040517f08c379a000000000000000000000000000000000000000000000000000000000815260040161180f90613963565b60405180910390fd5b600073ffffffffffffffffffffffffffffffffffffffff168273ffffffffffffffffffffffffffffffffffffffff161415611888576040517f08c379a000000000000000000000000000000000000000000000000000000000815260040161187f906137c3565b60405180910390fd5b6118938383836120d6565b61189e60008261160b565b6001600360008573ffffffffffffffffffffffffffffffffffffffff1673ffffffffffffffffffffffffffffffffffffffff16815260200190815260200160002060008282546118ee9190613c13565b925050819055506001600360008473ffffffffffffffffffffffffffffffffffffffff1673ffffffffffffffffffffffffffffffffffffffff16815260200190815260200160002060008282546119459190613b32565b92505081905550816002600083815260200190815260200160002060006101000a81548173ffffffffffffffffffffffffffffffffffffffff021916908373ffffffffffffffffffffffffffffffffffffffff160217905550808273ffffffffffffffffffffffffffffffffffffffff168473ffffffffffffffffffffffffffffffffffffffff167fddf252ad1be2c89b69c2b068fc378daa952ba7f163c4a11628f55a4df523b3ef60405160405180910390a4505050565b6001816000016000828254019250508190555050565b600081600001549050919050565b611a3c8282604051806020016040528060008152506120e6565b5050565b611a4982611597565b611a88576040517f08c379a0000000000000000000000000000000000000000000000000000000008152600401611a7f90613883565b60405180910390fd5b80600a60008481526020019081526020016000209080519060200190611aaf929190612c73565b505050565b80600c600084815260200190815260200160002060006101000a81548173ffffffffffffffffffffffffffffffffffffffff021916908373ffffffffffffffffffffffffffffffffffffffff1602179055506000600d60008373ffffffffffffffffffffffffffffffffffffffff1673ffffffffffffffffffffffffffffffffffffffff1681526020019081526020016000205490506001600d60008473ffffffffffffffffffffffffffffffffffffffff1673ffffffffffffffffffffffffffffffffffffffff1681526020019081526020016000206000828254611b9a9190613b32565b9250508190555082600e60008473ffffffffffffffffffffffffffffffffffffffff1673ffffffffffffffffffffffffffffffffffffffff16815260200190815260200160002060008381526020019081526020016000208190555080600f600085815260200190815260200160002081905550505050565b6000600b60009054906101000a900473ffffffffffffffffffffffffffffffffffffffff16905081600b60006101000a81548173ffffffffffffffffffffffffffffffffffffffff021916908373ffffffffffffffffffffffffffffffffffffffff1602179055508173ffffffffffffffffffffffffffffffffffffffff168173ffffffffffffffffffffffffffffffffffffffff167f8be0079c531659141344cd1fd0a4f28419497f9722a3daafe3b4186f6b6457e060405160405180910390a35050565b8173ffffffffffffffffffffffffffffffffffffffff168373ffffffffffffffffffffffffffffffffffffffff161415611d48576040517f08c379a0000000000000000000000000000000000000000000000000000000008152600401611d3f906137e3565b60405180910390fd5b80600560008573ffffffffffffffffffffffffffffffffffffffff1673ffffffffffffffffffffffffffffffffffffffff16815260200190815260200160002060008473ffffffffffffffffffffffffffffffffffffffff1673ffffffffffffffffffffffffffffffffffffffff16815260200190815260200160002060006101000a81548160ff0219169083151502179055508173ffffffffffffffffffffffffffffffffffffffff168373ffffffffffffffffffffffffffffffffffffffff167f17307eab39ab6107e8899845ad3d59bd9653f200f220920489ca2b5937696c3183604051611e3991906136e6565b60405180910390a3505050565b611e518484846117a2565b611e5d84848484612141565b611e9c576040517f08c379a0000000000000000000000000000000000000000000000000000000008152600401611e9390613763565b60405180910390fd5b50505050565b6060611ead82611597565b611eec576040517f08c379a0000000000000000000000000000000000000000000000000000000008152600401611ee3906138c3565b60405180910390fd5b6000600a60008481526020019081526020016000208054611f0c90613cfd565b80601f0160208091040260200160405190810160405280929190818152602001828054611f3890613cfd565b8015611f855780601f10611f5a57610100808354040283529160200191611f85565b820191906000526020600020905b815481529060010190602001808311611f6857829003601f168201915b505050505090506000611f966122d8565b9050600081511415611fac578192505050611fef565b600082511115611fe1578082604051602001611fc9929190613639565b60405160208183030381529060405292505050611fef565b611fea846122ef565b925050505b919050565b60007f80ac58cd000000000000000000000000000000000000000000000000000000007bffffffffffffffffffffffffffffffffffffffffffffffffffffffff1916827bffffffffffffffffffffffffffffffffffffffffffffffffffffffff191614806120bf57507f5b5e139f000000000000000000000000000000000000000000000000000000007bffffffffffffffffffffffffffffffffffffffffffffffffffffffff1916827bffffffffffffffffffffffffffffffffffffffffffffffffffffffff1916145b806120cf57506120ce82612396565b5b9050919050565b6120e1838383612400565b505050565b6120f08383612514565b6120fd6000848484612141565b61213c576040517f08c379a000000000000000000000000000000000000000000000000000000000815260040161213390613763565b60405180910390fd5b505050565b60006121628473ffffffffffffffffffffffffffffffffffffffff166126e2565b156122cb578373ffffffffffffffffffffffffffffffffffffffff1663150b7a0261218b611603565b8786866040518563ffffffff1660e01b81526004016121ad9493929190613678565b602060405180830381600087803b1580156121c757600080fd5b505af19250505080156121f857506040513d601f19601f820116820180604052508101906121f5919061306e565b60015b61227b573d8060008114612228576040519150601f19603f3d011682016040523d82523d6000602084013e61222d565b606091505b50600081511415612273576040517f08c379a000000000000000000000000000000000000000000000000000000000815260040161226a90613763565b60405180910390fd5b805181602001fd5b63150b7a0260e01b7bffffffffffffffffffffffffffffffffffffffffffffffffffffffff1916817bffffffffffffffffffffffffffffffffffffffffffffffffffffffff1916149150506122d0565b600190505b949350505050565b606060405180602001604052806000815250905090565b60606122fa82611597565b612339576040517f08c379a000000000000000000000000000000000000000000000000000000000815260040161233090613983565b60405180910390fd5b60006123436122d8565b90506000815111612363576040518060200160405280600081525061238e565b8061236d846126f5565b60405160200161237e929190613639565b6040516020818303038152906040525b915050919050565b60007f01ffc9a7000000000000000000000000000000000000000000000000000000007bffffffffffffffffffffffffffffffffffffffffffffffffffffffff1916827bffffffffffffffffffffffffffffffffffffffffffffffffffffffff1916149050919050565b61240b8383836128a2565b600073ffffffffffffffffffffffffffffffffffffffff168373ffffffffffffffffffffffffffffffffffffffff16141561244e57612449816128a7565b61248d565b8173ffffffffffffffffffffffffffffffffffffffff168373ffffffffffffffffffffffffffffffffffffffff161461248c5761248b83826128f0565b5b5b600073ffffffffffffffffffffffffffffffffffffffff168273ffffffffffffffffffffffffffffffffffffffff1614156124d0576124cb81612a5d565b61250f565b8273ffffffffffffffffffffffffffffffffffffffff168273ffffffffffffffffffffffffffffffffffffffff161461250e5761250d8282612ba0565b5b5b505050565b600073ffffffffffffffffffffffffffffffffffffffff168273ffffffffffffffffffffffffffffffffffffffff161415612584576040517f08c379a000000000000000000000000000000000000000000000000000000000815260040161257b906138a3565b60405180910390fd5b61258d81611597565b156125cd576040517f08c379a00000000000000000000000000000000000000000000000000000000081526004016125c4906137a3565b60405180910390fd5b6125d9600083836120d6565b6001600360008473ffffffffffffffffffffffffffffffffffffffff1673ffffffffffffffffffffffffffffffffffffffff16815260200190815260200160002060008282546126299190613b32565b92505081905550816002600083815260200190815260200160002060006101000a81548173ffffffffffffffffffffffffffffffffffffffff021916908373ffffffffffffffffffffffffffffffffffffffff160217905550808273ffffffffffffffffffffffffffffffffffffffff16600073ffffffffffffffffffffffffffffffffffffffff167fddf252ad1be2c89b69c2b068fc378daa952ba7f163c4a11628f55a4df523b3ef60405160405180910390a45050565b600080823b905060008111915050919050565b6060600082141561273d576040518060400160405280600181526020017f3000000000000000000000000000000000000000000000000000000000000000815250905061289d565b600082905060005b6000821461276f57808061275890613d60565b915050600a826127689190613b88565b9150612745565b60008167ffffffffffffffff8111156127b1577f4e487b7100000000000000000000000000000000000000000000000000000000600052604160045260246000fd5b6040519080825280601f01601f1916602001820160405280156127e35781602001600182028036833780820191505090505b5090505b60008514612896576001826127fc9190613c13565b9150600a8561280b9190613da9565b60306128179190613b32565b60f81b818381518110612853577f4e487b7100000000000000000000000000000000000000000000000000000000600052603260045260246000fd5b60200101907effffffffffffffffffffffffffffffffffffffffffffffffffffffffffffff1916908160001a905350600a8561288f9190613b88565b94506127e7565b8093505050505b919050565b505050565b6008805490506009600083815260200190815260200160002081905550600881908060018154018082558091505060019003906000526020600020016000909190919091505550565b600060016128fd846110c2565b6129079190613c13565b90506000600760008481526020019081526020016000205490508181146129ec576000600660008673ffffffffffffffffffffffffffffffffffffffff1673ffffffffffffffffffffffffffffffffffffffff168152602001908152602001600020600084815260200190815260200160002054905080600660008773ffffffffffffffffffffffffffffffffffffffff1673ffffffffffffffffffffffffffffffffffffffff168152602001908152602001600020600084815260200190815260200160002081905550816007600083815260200190815260200160002081905550505b6007600084815260200190815260200160002060009055600660008573ffffffffffffffffffffffffffffffffffffffff1673ffffffffffffffffffffffffffffffffffffffff16815260200190815260200160002060008381526020019081526020016000206000905550505050565b60006001600880549050612a719190613c13565b9050600060096000848152602001908152602001600020549050600060088381548110612ac7577f4e487b7100000000000000000000000000000000000000000000000000000000600052603260045260246000fd5b906000526020600020015490508060088381548110612b0f577f4e487b7100000000000000000000000000000000000000000000000000000000600052603260045260246000fd5b906000526020600020018190555081600960008381526020019081526020016000208190555060096000858152602001908152602001600020600090556008805480612b84577f4e487b7100000000000000000000000000000000000000000000000000000000600052603160045260246000fd5b6001900381819060005260206000200160009055905550505050565b6000612bab836110c2565b905081600660008573ffffffffffffffffffffffffffffffffffffffff1673ffffffffffffffffffffffffffffffffffffffff168152602001908152602001600020600083815260200190815260200160002081905550806007600084815260200190815260200160002081905550505050565b60405180608001604052806000815260200160608152602001600073ffffffffffffffffffffffffffffffffffffffff168152602001600073ffffffffffffffffffffffffffffffffffffffff1681525090565b828054612c7f90613cfd565b90600052602060002090601f016020900481019282612ca15760008555612ce8565b82601f10612cba57805160ff1916838001178555612ce8565b82800160010185558215612ce8579182015b82811115612ce7578251825591602001919060010190612ccc565b5b509050612cf59190612cf9565b5090565b5b80821115612d12576000816000905550600101612cfa565b5090565b6000612d29612d2484613a43565b613a1e565b905082815260208101848484011115612d4157600080fd5b612d4c848285613cbb565b509392505050565b6000612d67612d6284613a74565b613a1e565b905082815260208101848484011115612d7f57600080fd5b612d8a848285613cbb565b509392505050565b600081359050612da1816144b6565b92915050565b600081359050612db6816144cd565b92915050565b600081359050612dcb816144e4565b92915050565b600081519050612de0816144e4565b92915050565b600082601f830112612df757600080fd5b8135612e07848260208601612d16565b91505092915050565b600082601f830112612e2157600080fd5b8135612e31848260208601612d54565b91505092915050565b600081359050612e49816144fb565b92915050565b600060208284031215612e6157600080fd5b6000612e6f84828501612d92565b91505092915050565b60008060408385031215612e8b57600080fd5b6000612e9985828601612d92565b9250506020612eaa85828601612d92565b9150509250929050565b600080600060608486031215612ec957600080fd5b6000612ed786828701612d92565b9350506020612ee886828701612d92565b9250506040612ef986828701612e3a565b9150509250925092565b60008060008060808587031215612f1957600080fd5b6000612f2787828801612d92565b9450506020612f3887828801612d92565b9350506040612f4987828801612e3a565b925050606085013567ffffffffffffffff811115612f6657600080fd5b612f7287828801612de6565b91505092959194509250565b60008060408385031215612f9157600080fd5b6000612f9f85828601612d92565b9250506020612fb085828601612da7565b9150509250929050565b60008060408385031215612fcd57600080fd5b6000612fdb85828601612d92565b9250506020612fec85828601612e3a565b9150509250929050565b60008060006060848603121561300b57600080fd5b600061301986828701612d92565b935050602061302a86828701612e3a565b925050604061303b86828701612e3a565b9150509250925092565b60006020828403121561305757600080fd5b600061306584828501612dbc565b91505092915050565b60006020828403121561308057600080fd5b600061308e84828501612dd1565b91505092915050565b6000602082840312156130a957600080fd5b600082013567ffffffffffffffff8111156130c357600080fd5b6130cf84828501612e10565b91505092915050565b6000602082840312156130ea57600080fd5b60006130f884828501612e3a565b91505092915050565b600061310d83836135b8565b905092915050565b61311e81613c47565b82525050565b61312d81613c47565b82525050565b600061313e82613ab5565b6131488185613ae3565b93508360208202850161315a85613aa5565b8060005b8581101561319657848403895281516131778582613101565b945061318283613ad6565b925060208a0199505060018101905061315e565b50829750879550505050505092915050565b6131b181613c59565b82525050565b60006131c282613ac0565b6131cc8185613af4565b93506131dc818560208601613cca565b6131e581613e96565b840191505092915050565b60006131fb82613acb565b6132058185613b05565b9350613215818560208601613cca565b61321e81613e96565b840191505092915050565b600061323482613acb565b61323e8185613b16565b935061324e818560208601613cca565b61325781613e96565b840191505092915050565b600061326d82613acb565b6132778185613b27565b9350613287818560208601613cca565b80840191505092915050565b60006132a0601783613b16565b91506132ab82613ea7565b602082019050919050565b60006132c3602b83613b16565b91506132ce82613ed0565b604082019050919050565b60006132e6603283613b16565b91506132f182613f1f565b604082019050919050565b6000613309602683613b16565b915061331482613f6e565b604082019050919050565b600061332c601c83613b16565b915061333782613fbd565b602082019050919050565b600061334f602483613b16565b915061335a82613fe6565b604082019050919050565b6000613372601983613b16565b915061337d82614035565b602082019050919050565b6000613395602c83613b16565b91506133a08261405e565b604082019050919050565b60006133b8603883613b16565b91506133c3826140ad565b604082019050919050565b60006133db602a83613b16565b91506133e6826140fc565b604082019050919050565b60006133fe602983613b16565b91506134098261414b565b604082019050919050565b6000613421602e83613b16565b915061342c8261419a565b604082019050919050565b6000613444602083613b16565b915061344f826141e9565b602082019050919050565b6000613467603183613b16565b915061347282614212565b604082019050919050565b600061348a601b83613b16565b915061349582614261565b602082019050919050565b60006134ad602c83613b16565b91506134b88261428a565b604082019050919050565b60006134d0601283613b16565b91506134db826142d9565b602082019050919050565b60006134f3602083613b16565b91506134fe82614302565b602082019050919050565b6000613516602983613b16565b91506135218261432b565b604082019050919050565b6000613539602f83613b16565b91506135448261437a565b604082019050919050565b600061355c602183613b16565b9150613567826143c9565b604082019050919050565b600061357f603183613b16565b915061358a82614418565b604082019050919050565b60006135a2602c83613b16565b91506135ad82614467565b604082019050919050565b60006080830160008301516135d0600086018261361b565b50602083015184820360208601526135e882826131f0565b91505060408301516135fd6040860182613115565b5060608301516136106060860182613115565b508091505092915050565b61362481613cb1565b82525050565b61363381613cb1565b82525050565b60006136458285613262565b91506136518284613262565b91508190509392505050565b60006020820190506136726000830184613124565b92915050565b600060808201905061368d6000830187613124565b61369a6020830186613124565b6136a7604083018561362a565b81810360608301526136b981846131b7565b905095945050505050565b600060208201905081810360008301526136de8184613133565b905092915050565b60006020820190506136fb60008301846131a8565b92915050565b6000602082019050818103600083015261371b8184613229565b905092915050565b6000602082019050818103600083015261373c81613293565b9050919050565b6000602082019050818103600083015261375c816132b6565b9050919050565b6000602082019050818103600083015261377c816132d9565b9050919050565b6000602082019050818103600083015261379c816132fc565b9050919050565b600060208201905081810360008301526137bc8161331f565b9050919050565b600060208201905081810360008301526137dc81613342565b9050919050565b600060208201905081810360008301526137fc81613365565b9050919050565b6000602082019050818103600083015261381c81613388565b9050919050565b6000602082019050818103600083015261383c816133ab565b9050919050565b6000602082019050818103600083015261385c816133ce565b9050919050565b6000602082019050818103600083015261387c816133f1565b9050919050565b6000602082019050818103600083015261389c81613414565b9050919050565b600060208201905081810360008301526138bc81613437565b9050919050565b600060208201905081810360008301526138dc8161345a565b9050919050565b600060208201905081810360008301526138fc8161347d565b9050919050565b6000602082019050818103600083015261391c816134a0565b9050919050565b6000602082019050818103600083015261393c816134c3565b9050919050565b6000602082019050818103600083015261395c816134e6565b9050919050565b6000602082019050818103600083015261397c81613509565b9050919050565b6000602082019050818103600083015261399c8161352c565b9050919050565b600060208201905081810360008301526139bc8161354f565b9050919050565b600060208201905081810360008301526139dc81613572565b9050919050565b600060208201905081810360008301526139fc81613595565b9050919050565b6000602082019050613a18600083018461362a565b92915050565b6000613a28613a39565b9050613a348282613d2f565b919050565b6000604051905090565b600067ffffffffffffffff821115613a5e57613a5d613e67565b5b613a6782613e96565b9050602081019050919050565b600067ffffffffffffffff821115613a8f57613a8e613e67565b5b613a9882613e96565b9050602081019050919050565b6000819050602082019050919050565b600081519050919050565b600081519050919050565b600081519050919050565b6000602082019050919050565b600082825260208201905092915050565b600082825260208201905092915050565b600082825260208201905092915050565b600082825260208201905092915050565b600081905092915050565b6000613b3d82613cb1565b9150613b4883613cb1565b9250827fffffffffffffffffffffffffffffffffffffffffffffffffffffffffffffffff03821115613b7d57613b7c613dda565b5b828201905092915050565b6000613b9382613cb1565b9150613b9e83613cb1565b925082613bae57613bad613e09565b5b828204905092915050565b6000613bc482613cb1565b9150613bcf83613cb1565b9250817fffffffffffffffffffffffffffffffffffffffffffffffffffffffffffffffff0483118215151615613c0857613c07613dda565b5b828202905092915050565b6000613c1e82613cb1565b9150613c2983613cb1565b925082821015613c3c57613c3b613dda565b5b828203905092915050565b6000613c5282613c91565b9050919050565b60008115159050919050565b60007fffffffff0000000000000000000000000000000000000000000000000000000082169050919050565b600073ffffffffffffffffffffffffffffffffffffffff82169050919050565b6000819050919050565b82818337600083830152505050565b60005b83811015613ce8578082015181840152602081019050613ccd565b83811115613cf7576000848401525b50505050565b60006002820490506001821680613d1557607f821691505b60208210811415613d2957613d28613e38565b5b50919050565b613d3882613e96565b810181811067ffffffffffffffff82111715613d5757613d56613e67565b5b80604052505050565b6000613d6b82613cb1565b91507fffffffffffffffffffffffffffffffffffffffffffffffffffffffffffffffff821415613d9e57613d9d613dda565b5b600182019050919050565b6000613db482613cb1565b9150613dbf83613cb1565b925082613dcf57613dce613e09565b5b828206905092915050565b7f4e487b7100000000000000000000000000000000000000000000000000000000600052601160045260246000fd5b7f4e487b7100000000000000000000000000000000000000000000000000000000600052601260045260246000fd5b7f4e487b7100000000000000000000000000000000000000000000000000000000600052602260045260246000fd5b7f4e487b7100000000000000000000000000000000000000000000000000000000600052604160045260246000fd5b6000601f19601f8301169050919050565b7f706167652073697a65206f7574206f6620626f756e6473000000000000000000600082015250565b7f455243373231456e756d657261626c653a206f776e657220696e646578206f7560008201527f74206f6620626f756e6473000000000000000000000000000000000000000000602082015250565b7f4552433732313a207472616e7366657220746f206e6f6e20455243373231526560008201527f63656976657220696d706c656d656e7465720000000000000000000000000000602082015250565b7f4f776e61626c653a206e6577206f776e657220697320746865207a65726f206160008201527f6464726573730000000000000000000000000000000000000000000000000000602082015250565b7f4552433732313a20746f6b656e20616c7265616479206d696e74656400000000600082015250565b7f4552433732313a207472616e7366657220746f20746865207a65726f2061646460008201527f7265737300000000000000000000000000000000000000000000000000000000602082015250565b7f4552433732313a20617070726f766520746f2063616c6c657200000000000000600082015250565b7f4552433732313a206f70657261746f7220717565727920666f72206e6f6e657860008201527f697374656e7420746f6b656e0000000000000000000000000000000000000000602082015250565b7f4552433732313a20617070726f76652063616c6c6572206973206e6f74206f7760008201527f6e6572206e6f7220617070726f76656420666f7220616c6c0000000000000000602082015250565b7f4552433732313a2062616c616e636520717565727920666f7220746865207a6560008201527f726f206164647265737300000000000000000000000000000000000000000000602082015250565b7f4552433732313a206f776e657220717565727920666f72206e6f6e657869737460008201527f656e7420746f6b656e0000000000000000000000000000000000000000000000602082015250565b7f45524337323155524953746f726167653a2055524920736574206f66206e6f6e60008201527f6578697374656e7420746f6b656e000000000000000000000000000000000000602082015250565b7f4552433732313a206d696e7420746f20746865207a65726f2061646472657373600082015250565b7f45524337323155524953746f726167653a2055524920717565727920666f722060008201527f6e6f6e6578697374656e7420746f6b656e000000000000000000000000000000602082015250565b7f63726561746f7220696e646578206f7574206f6620626f756e64730000000000600082015250565b7f4552433732313a20617070726f76656420717565727920666f72206e6f6e657860008201527f697374656e7420746f6b656e0000000000000000000000000000000000000000602082015250565b7f70616765206f7574206f6620626f756e64730000000000000000000000000000600082015250565b7f4f776e61626c653a2063616c6c6572206973206e6f7420746865206f776e6572600082015250565b7f4552433732313a207472616e73666572206f6620746f6b656e2074686174206960008201527f73206e6f74206f776e0000000000000000000000000000000000000000000000602082015250565b7f4552433732314d657461646174613a2055524920717565727920666f72206e6f60008201527f6e6578697374656e7420746f6b656e0000000000000000000000000000000000602082015250565b7f4552433732313a20617070726f76616c20746f2063757272656e74206f776e6560008201527f7200000000000000000000000000000000000000000000000000000000000000602082015250565b7f4552433732313a207472616e736665722063616c6c6572206973206e6f74206f60008201527f776e6572206e6f7220617070726f766564000000000000000000000000000000602082015250565b7f455243373231456e756d657261626c653a20676c6f62616c20696e646578206f60008201527f7574206f6620626f756e64730000000000000000000000000000000000000000602082015250565b6144bf81613c47565b81146144ca57600080fd5b50565b6144d681613c59565b81146144e157600080fd5b50565b6144ed81613c65565b81146144f857600080fd5b50565b61450481613cb1565b811461450f57600080fd5b5056fea2646970667358221220d3cacf6ba21b4738b6b3d2fa0766334e53c293cb8d6c06a3ff35895bd8656d9a64736f6c63430008040033",
  "linkReferences": {},
  "deployedLinkReferences": {}
}