{
  "_format": "hh-sol-artifact-1",
  "contractName": "GNFT",
  "sourceName": "contracts/GNFT.sol",
  "abi": [
    {
      "inputs": [],
      "stateMutability": "nonpayable",
      "type": "constructor"
    },
    {
      "anonymous": false,
      "inputs": [
        {
          "indexed": true,
          "internalType": "address",
          "name": "owner",
          "type": "address"
        },
        {
          "indexed": true,
          "internalType": "address",
          "name": "approved",
          "type": "address"
        },
        {
          "indexed": true,
          "internalType": "uint256",
          "name": "tokenId",
          "type": "uint256"
        }
      ],
      "name": "Approval",
      "type": "event"
    },
    {
      "anonymous": false,
      "inputs": [
        {
          "indexed": true,
          "internalType": "address",
          "name": "owner",
          "type": "address"
        },
        {
          "indexed": true,
          "internalType": "address",
          "name": "operator",
          "type": "address"
        },
        {
          "indexed": false,
          "internalType": "bool",
          "name": "approved",
          "type": "bool"
        }
      ],
      "name": "ApprovalForAll",
      "type": "event"
    },
    {
      "anonymous": false,
      "inputs": [
        {
          "indexed": true,
          "internalType": "address",
          "name": "previousOwner",
          "type": "address"
        },
        {
          "indexed": true,
          "internalType": "address",
          "name": "newOwner",
          "type": "address"
        }
      ],
      "name": "OwnershipTransferred",
      "type": "event"
    },
    {
      "anonymous": false,
      "inputs": [
        {
          "indexed": false,
          "internalType": "string",
          "name": "_value",
          "type": "string"
        },
        {
          "indexed": true,
          "internalType": "uint256",
          "name": "_id",
          "type": "uint256"
        }
      ],
      "name": "PermanentURI",
      "type": "event"
    },
    {
      "anonymous": false,
      "inputs": [
        {
          "indexed": true,
          "internalType": "address",
          "name": "from",
          "type": "address"
        },
        {
          "indexed": true,
          "internalType": "address",
          "name": "to",
          "type": "address"
        },
        {
          "indexed": true,
          "internalType": "uint256",
          "name": "tokenId",
          "type": "uint256"
        }
      ],
      "name": "Transfer",
      "type": "event"
    },
    {
      "inputs": [
        {
          "internalType": "address",
          "name": "to",
          "type": "address"
        },
        {
          "internalType": "uint256",
          "name": "tokenId",
          "type": "uint256"
        }
      ],
      "name": "approve",
      "outputs": [],
      "stateMutability": "nonpayable",
      "type": "function"
    },
    {
      "inputs": [
        {
          "internalType": "address",
          "name": "owner",
          "type": "address"
        }
      ],
      "name": "balanceOf",
      "outputs": [
        {
          "internalType": "uint256",
          "name": "",
          "type": "uint256"
        }
      ],
      "stateMutability": "view",
      "type": "function"
    },
    {
      "inputs": [
        {
          "internalType": "uint256",
          "name": "id",
          "type": "uint256"
        }
      ],
      "name": "burn",
      "outputs": [],
      "stateMutability": "nonpayable",
      "type": "function"
    },
    {
      "inputs": [],
      "name": "contractURI",
      "outputs": [
        {
          "internalType": "string",
          "name": "",
          "type": "string"
        }
      ],
      "stateMutability": "pure",
      "type": "function"
    },
    {
      "inputs": [
        {
          "internalType": "address",
          "name": "creator",
          "type": "address"
        }
      ],
      "name": "createdBalanceOf",
      "outputs": [
        {
          "internalType": "uint256",
          "name": "",
          "type": "uint256"
        }
      ],
      "stateMutability": "view",
      "type": "function"
    },
    {
      "inputs": [
        {
          "internalType": "uint256",
          "name": "id",
          "type": "uint256"
        }
      ],
      "name": "creatorOf",
      "outputs": [
        {
          "internalType": "address",
          "name": "",
          "type": "address"
        }
      ],
      "stateMutability": "view",
      "type": "function"
    },
    {
      "inputs": [
        {
          "internalType": "uint256",
          "name": "tokenId",
          "type": "uint256"
        }
      ],
      "name": "getApproved",
      "outputs": [
        {
          "internalType": "address",
          "name": "",
          "type": "address"
        }
      ],
      "stateMutability": "view",
      "type": "function"
    },
    {
      "inputs": [
        {
          "internalType": "address",
          "name": "owner",
          "type": "address"
        },
        {
          "internalType": "address",
          "name": "operator",
          "type": "address"
        }
      ],
      "name": "isApprovedForAll",
      "outputs": [
        {
          "internalType": "bool",
          "name": "",
          "type": "bool"
        }
      ],
      "stateMutability": "view",
      "type": "function"
    },
    {
      "inputs": [
        {
          "internalType": "string",
          "name": "_tokenURI",
          "type": "string"
        }
      ],
      "name": "mintToken",
      "outputs": [
        {
          "internalType": "uint256",
          "name": "",
          "type": "uint256"
        }
      ],
      "stateMutability": "nonpayable",
      "type": "function"
    },
    {
      "inputs": [],
      "name": "name",
      "outputs": [
        {
          "internalType": "string",
          "name": "",
          "type": "string"
        }
      ],
      "stateMutability": "view",
      "type": "function"
    },
    {
      "inputs": [],
      "name": "owner",
      "outputs": [
        {
          "internalType": "address",
          "name": "",
          "type": "address"
        }
      ],
      "stateMutability": "view",
      "type": "function"
    },
    {
      "inputs": [
        {
          "internalType": "uint256",
          "name": "tokenId",
          "type": "uint256"
        }
      ],
      "name": "ownerOf",
      "outputs": [
        {
          "internalType": "address",
          "name": "",
          "type": "address"
        }
      ],
      "stateMutability": "view",
      "type": "function"
    },
    {
      "inputs": [],
      "name": "renounceOwnership",
      "outputs": [],
      "stateMutability": "nonpayable",
      "type": "function"
    },
    {
      "inputs": [
        {
          "internalType": "address",
          "name": "from",
          "type": "address"
        },
        {
          "internalType": "address",
          "name": "to",
          "type": "address"
        },
        {
          "internalType": "uint256",
          "name": "tokenId",
          "type": "uint256"
        }
      ],
      "name": "safeTransferFrom",
      "outputs": [],
      "stateMutability": "nonpayable",
      "type": "function"
    },
    {
      "inputs": [
        {
          "internalType": "address",
          "name": "from",
          "type": "address"
        },
        {
          "internalType": "address",
          "name": "to",
          "type": "address"
        },
        {
          "internalType": "uint256",
          "name": "tokenId",
          "type": "uint256"
        },
        {
          "internalType": "bytes",
          "name": "_data",
          "type": "bytes"
        }
      ],
      "name": "safeTransferFrom",
      "outputs": [],
      "stateMutability": "nonpayable",
      "type": "function"
    },
    {
      "inputs": [
        {
          "internalType": "address",
          "name": "operator",
          "type": "address"
        },
        {
          "internalType": "bool",
          "name": "approved",
          "type": "bool"
        }
      ],
      "name": "setApprovalForAll",
      "outputs": [],
      "stateMutability": "nonpayable",
      "type": "function"
    },
    {
      "inputs": [
        {
          "internalType": "bytes4",
          "name": "interfaceId",
          "type": "bytes4"
        }
      ],
      "name": "supportsInterface",
      "outputs": [
        {
          "internalType": "bool",
          "name": "",
          "type": "bool"
        }
      ],
      "stateMutability": "view",
      "type": "function"
    },
    {
      "inputs": [],
      "name": "symbol",
      "outputs": [
        {
          "internalType": "string",
          "name": "",
          "type": "string"
        }
      ],
      "stateMutability": "view",
      "type": "function"
    },
    {
      "inputs": [
        {
          "internalType": "uint256",
          "name": "index",
          "type": "uint256"
        }
      ],
      "name": "tokenByIndex",
      "outputs": [
        {
          "internalType": "uint256",
          "name": "",
          "type": "uint256"
        }
      ],
      "stateMutability": "view",
      "type": "function"
    },
    {
      "inputs": [
        {
          "internalType": "address",
          "name": "creator",
          "type": "address"
        },
        {
          "internalType": "uint256",
          "name": "idx",
          "type": "uint256"
        }
      ],
      "name": "tokenOfCreatorByIndex",
      "outputs": [
        {
          "internalType": "uint256",
          "name": "",
          "type": "uint256"
        }
      ],
      "stateMutability": "view",
      "type": "function"
    },
    {
      "inputs": [
        {
          "internalType": "address",
          "name": "owner",
          "type": "address"
        },
        {
          "internalType": "uint256",
          "name": "index",
          "type": "uint256"
        }
      ],
      "name": "tokenOfOwnerByIndex",
      "outputs": [
        {
          "internalType": "uint256",
          "name": "",
          "type": "uint256"
        }
      ],
      "stateMutability": "view",
      "type": "function"
    },
    {
      "inputs": [
        {
          "internalType": "uint256",
          "name": "id",
          "type": "uint256"
        }
      ],
      "name": "tokenURI",
      "outputs": [
        {
          "internalType": "string",
          "name": "",
          "type": "string"
        }
      ],
      "stateMutability": "view",
      "type": "function"
    },
    {
      "inputs": [
        {
          "internalType": "address",
          "name": "creator",
          "type": "address"
        },
        {
          "internalType": "uint256",
          "name": "pageSize",
          "type": "uint256"
        },
        {
          "internalType": "uint256",
          "name": "page",
          "type": "uint256"
        }
      ],
      "name": "tokensOfCreatorByPage",
      "outputs": [
        {
          "components": [
            {
              "internalType": "uint256",
              "name": "id",
              "type": "uint256"
            },
            {
              "internalType": "string",
              "name": "tokenURI",
              "type": "string"
            },
            {
              "internalType": "address",
              "name": "owner",
              "type": "address"
            }
          ],
          "internalType": "struct GNFT.TokenData[]",
          "name": "",
          "type": "tuple[]"
        }
      ],
      "stateMutability": "view",
      "type": "function"
    },
    {
      "inputs": [
        {
          "internalType": "address",
          "name": "owner",
          "type": "address"
        },
        {
          "internalType": "uint256",
          "name": "pageSize",
          "type": "uint256"
        },
        {
          "internalType": "uint256",
          "name": "page",
          "type": "uint256"
        }
      ],
      "name": "tokensOfOwnerByPage",
      "outputs": [
        {
          "components": [
            {
              "internalType": "uint256",
              "name": "id",
              "type": "uint256"
            },
            {
              "internalType": "string",
              "name": "tokenURI",
              "type": "string"
            },
            {
              "internalType": "address",
              "name": "owner",
              "type": "address"
            }
          ],
          "internalType": "struct GNFT.TokenData[]",
          "name": "",
          "type": "tuple[]"
        }
      ],
      "stateMutability": "view",
      "type": "function"
    },
    {
      "inputs": [],
      "name": "totalSupply",
      "outputs": [
        {
          "internalType": "uint256",
          "name": "",
          "type": "uint256"
        }
      ],
      "stateMutability": "view",
      "type": "function"
    },
    {
      "inputs": [
        {
          "internalType": "address",
          "name": "from",
          "type": "address"
        },
        {
          "internalType": "address",
          "name": "to",
          "type": "address"
        },
        {
          "internalType": "uint256",
          "name": "tokenId",
          "type": "uint256"
        }
      ],
      "name": "transferFrom",
      "outputs": [],
      "stateMutability": "nonpayable",
      "type": "function"
    },
    {
      "inputs": [
        {
          "internalType": "address",
          "name": "newOwner",
          "type": "address"
        }
      ],
      "name": "transferOwnership",
      "outputs": [],
      "stateMutability": "nonpayable",
      "type": "function"
    }
  ],
  "bytecode": "0x60806040523480156200001157600080fd5b506040518060400160405280600581526020017f472d4e46540000000000000000000000000000000000000000000000000000008152506040518060400160405280600481526020017f474e465400000000000000000000000000000000000000000000000000000000815250816000908051906020019062000096929190620001a6565b508060019080519060200190620000af929190620001a6565b505050620000d2620000c6620000d860201b60201c565b620000e060201b60201c565b620002bb565b600033905090565b6000600b60009054906101000a900473ffffffffffffffffffffffffffffffffffffffff16905081600b60006101000a81548173ffffffffffffffffffffffffffffffffffffffff021916908373ffffffffffffffffffffffffffffffffffffffff1602179055508173ffffffffffffffffffffffffffffffffffffffff168173ffffffffffffffffffffffffffffffffffffffff167f8be0079c531659141344cd1fd0a4f28419497f9722a3daafe3b4186f6b6457e060405160405180910390a35050565b828054620001b49062000256565b90600052602060002090601f016020900481019282620001d8576000855562000224565b82601f10620001f357805160ff191683800117855562000224565b8280016001018555821562000224579182015b828111156200022357825182559160200191906001019062000206565b5b50905062000233919062000237565b5090565b5b808211156200025257600081600090555060010162000238565b5090565b600060028204905060018216806200026f57607f821691505b602082108114156200028657620002856200028c565b5b50919050565b7f4e487b7100000000000000000000000000000000000000000000000000000000600052602260045260246000fd5b614bf880620002cb6000396000f3fe608060405234801561001057600080fd5b50600436106101a95760003560e01c8063589a1743116100f9578063a22cb46511610097578063c87b56dd11610071578063c87b56dd14610518578063e8a3d48514610548578063e985e9c514610566578063f2fde38b14610596576101a9565b8063a22cb465146104b0578063b82faed5146104cc578063b88d4fde146104fc576101a9565b806370a08231116100d357806370a082311461043a578063715018a61461046a5780638da5cb5b1461047457806395d89b4114610492576101a9565b8063589a1743146103aa5780636352211e146103da5780636f7cce051461040a576101a9565b806323b872dd1161016657806342842e0e1161014057806342842e0e1461031257806342966c681461032e5780634f6ccce71461034a5780634fc092751461037a576101a9565b806323b872dd146102965780632f745c59146102b257806333eba49a146102e2576101a9565b806301ffc9a7146101ae57806302f24e7b146101de57806306fdde031461020e578063081812fc1461022c578063095ea7b31461025c57806318160ddd14610278575b600080fd5b6101c860048036038101906101c3919061359a565b6105b2565b6040516101d59190613c6e565b60405180910390f35b6101f860048036038101906101f3919061354b565b6105c4565b6040516102059190613c4c565b60405180910390f35b61021661087c565b6040516102239190613c89565b60405180910390f35b6102466004803603810190610241919061362d565b61090e565b6040516102539190613be5565b60405180910390f35b6102766004803603810190610271919061350f565b610993565b005b610280610aab565b60405161028d9190613fcb565b60405180910390f35b6102b060048036038101906102ab9190613409565b610ab8565b005b6102cc60048036038101906102c7919061350f565b610b18565b6040516102d99190613fcb565b60405180910390f35b6102fc60048036038101906102f791906135ec565b610bbd565b6040516103099190613fcb565b60405180910390f35b61032c60048036038101906103279190613409565b610c36565b005b6103486004803603810190610343919061362d565b610c56565b005b610364600480360381019061035f919061362d565b610d4e565b6040516103719190613fcb565b60405180910390f35b610394600480360381019061038f919061350f565b610de5565b6040516103a19190613fcb565b60405180910390f35b6103c460048036038101906103bf919061362d565b610e8a565b6040516103d19190613be5565b60405180910390f35b6103f460048036038101906103ef919061362d565b610ec7565b6040516104019190613be5565b60405180910390f35b610424600480360381019061041f919061354b565b610f79565b6040516104319190613c4c565b60405180910390f35b610454600480360381019061044f91906133a4565b611239565b6040516104619190613fcb565b60405180910390f35b6104726112f1565b005b61047c611379565b6040516104899190613be5565b60405180910390f35b61049a6113a3565b6040516104a79190613c89565b60405180910390f35b6104ca60048036038101906104c591906134d3565b611435565b005b6104e660048036038101906104e191906133a4565b61144b565b6040516104f39190613fcb565b60405180910390f35b61051660048036038101906105119190613458565b611494565b005b610532600480360381019061052d919061362d565b6114f6565b60405161053f9190613c89565b60405180910390f35b610550611508565b60405161055d9190613c89565b60405180910390f35b610580600480360381019061057b91906133cd565b611528565b60405161058d9190613c6e565b60405180910390f35b6105b060048036038101906105ab91906133a4565b6115bc565b005b60006105bd826116b4565b9050919050565b60606000831180156105d65750606583105b610615576040517f08c379a000000000000000000000000000000000000000000000000000000000815260040161060c90613cab565b60405180910390fd5b600082118015610643575061062984611239565b8360018461063791906141db565b6106419190614181565b105b610682576040517f08c379a000000000000000000000000000000000000000000000000000000000815260040161067990613eab565b60405180910390fd5b60008360018461069291906141db565b61069c9190614181565b90506000600185836106ae91906140fa565b6106b891906141db565b60016106c388611239565b6106cd91906141db565b106106ef57600185836106e091906140fa565b6106ea91906141db565b610705565b60016106fa87611239565b61070491906141db565b5b905060006001838361071791906141db565b61072191906140fa565b905060008167ffffffffffffffff811115610765577f4e487b7100000000000000000000000000000000000000000000000000000000600052604160045260246000fd5b60405190808252806020026020018201604052801561079e57816020015b61078b613151565b8152602001906001900390816107835790505b50905060005b8281101561086d5760006107da8a60018a6107bf91906141db565b8b6107ca9190614181565b846107d591906140fa565b610b18565b905060405180606001604052808281526020016107f6836114f6565b81526020018b73ffffffffffffffffffffffffffffffffffffffff1681525083838151811061084e577f4e487b7100000000000000000000000000000000000000000000000000000000600052603260045260246000fd5b602002602001018190525050808061086590614328565b9150506107a4565b50809450505050509392505050565b60606000805461088b906142c5565b80601f01602080910402602001604051908101604052809291908181526020018280546108b7906142c5565b80156109045780601f106108d957610100808354040283529160200191610904565b820191906000526020600020905b8154815290600101906020018083116108e757829003601f168201915b5050505050905090565b60006109198261172e565b610958576040517f08c379a000000000000000000000000000000000000000000000000000000000815260040161094f90613e8b565b60405180910390fd5b6004600083815260200190815260200160002060009054906101000a900473ffffffffffffffffffffffffffffffffffffffff169050919050565b600061099e82610ec7565b90508073ffffffffffffffffffffffffffffffffffffffff168373ffffffffffffffffffffffffffffffffffffffff161415610a0f576040517f08c379a0000000000000000000000000000000000000000000000000000000008152600401610a0690613f4b565b60405180910390fd5b8073ffffffffffffffffffffffffffffffffffffffff16610a2e61179a565b73ffffffffffffffffffffffffffffffffffffffff161480610a5d5750610a5c81610a5761179a565b611528565b5b610a9c576040517f08c379a0000000000000000000000000000000000000000000000000000000008152600401610a9390613dab565b60405180910390fd5b610aa683836117a2565b505050565b6000600880549050905090565b610ac9610ac361179a565b8261185b565b610b08576040517f08c379a0000000000000000000000000000000000000000000000000000000008152600401610aff90613f8b565b60405180910390fd5b610b13838383611939565b505050565b6000610b2383611239565b8210610b64576040517f08c379a0000000000000000000000000000000000000000000000000000000008152600401610b5b90613ccb565b60405180910390fd5b600660008473ffffffffffffffffffffffffffffffffffffffff1673ffffffffffffffffffffffffffffffffffffffff168152602001908152602001600020600083815260200190815260200160002054905092915050565b6000610bc96010611b95565b6000610bd56010611bab565b9050610be13382611bb9565b610beb8184611bd7565b610bf58133611c4b565b807fa109ba539900bf1b633f956d63c96fc89b814c7287f7aa50a9216d0b5565720784604051610c259190613c89565b60405180910390a280915050919050565b610c5183838360405180602001604052806000815250611494565b505050565b610c5f81610e8a565b73ffffffffffffffffffffffffffffffffffffffff163373ffffffffffffffffffffffffffffffffffffffff1614610ccc576040517f08c379a0000000000000000000000000000000000000000000000000000000008152600401610cc390613f6b565b60405180910390fd5b610cd581610ec7565b73ffffffffffffffffffffffffffffffffffffffff163373ffffffffffffffffffffffffffffffffffffffff1614610d42576040517f08c379a0000000000000000000000000000000000000000000000000000000008152600401610d3990613eeb565b60405180910390fd5b610d4b81611daa565b50565b6000610d58610aab565b8210610d99576040517f08c379a0000000000000000000000000000000000000000000000000000000008152600401610d9090613fab565b60405180910390fd5b60088281548110610dd3577f4e487b7100000000000000000000000000000000000000000000000000000000600052603260045260246000fd5b90600052602060002001549050919050565b6000610df08361144b565b8210610e31576040517f08c379a0000000000000000000000000000000000000000000000000000000008152600401610e2890613e6b565b60405180910390fd5b600e60008473ffffffffffffffffffffffffffffffffffffffff1673ffffffffffffffffffffffffffffffffffffffff168152602001908152602001600020600083815260200190815260200160002054905092915050565b6000600c600083815260200190815260200160002060009054906101000a900473ffffffffffffffffffffffffffffffffffffffff169050919050565b6000806002600084815260200190815260200160002060009054906101000a900473ffffffffffffffffffffffffffffffffffffffff169050600073ffffffffffffffffffffffffffffffffffffffff168173ffffffffffffffffffffffffffffffffffffffff161415610f70576040517f08c379a0000000000000000000000000000000000000000000000000000000008152600401610f6790613deb565b60405180910390fd5b80915050919050565b6060600083118015610f8b5750606583105b610fca576040517f08c379a0000000000000000000000000000000000000000000000000000000008152600401610fc190613cab565b60405180910390fd5b600082118015610ff85750610fde8461144b565b83600184610fec91906141db565b610ff69190614181565b105b611037576040517f08c379a000000000000000000000000000000000000000000000000000000000815260040161102e90613eab565b60405180910390fd5b60008360018461104791906141db565b6110519190614181565b905060006001858361106391906140fa565b61106d91906141db565b60016110788861144b565b61108291906141db565b106110a4576001858361109591906140fa565b61109f91906141db565b6110ba565b60016110af8761144b565b6110b991906141db565b5b90506000600183836110cc91906141db565b6110d691906140fa565b905060008167ffffffffffffffff81111561111a577f4e487b7100000000000000000000000000000000000000000000000000000000600052604160045260246000fd5b60405190808252806020026020018201604052801561115357816020015b611140613151565b8152602001906001900390816111385790505b50905060005b8281101561122a57600061118f8a60018a61117491906141db565b8b61117f9190614181565b8461118a91906140fa565b610de5565b905060405180606001604052808281526020016111ab836114f6565b81526020016111b983610ec7565b73ffffffffffffffffffffffffffffffffffffffff1681525083838151811061120b577f4e487b7100000000000000000000000000000000000000000000000000000000600052603260045260246000fd5b602002602001018190525050808061122290614328565b915050611159565b50809450505050509392505050565b60008073ffffffffffffffffffffffffffffffffffffffff168273ffffffffffffffffffffffffffffffffffffffff1614156112aa576040517f08c379a00000000000000000000000000000000000000000000000000000000081526004016112a190613dcb565b60405180910390fd5b600360008373ffffffffffffffffffffffffffffffffffffffff1673ffffffffffffffffffffffffffffffffffffffff168152602001908152602001600020549050919050565b6112f961179a565b73ffffffffffffffffffffffffffffffffffffffff16611317611379565b73ffffffffffffffffffffffffffffffffffffffff161461136d576040517f08c379a000000000000000000000000000000000000000000000000000000000815260040161136490613ecb565b60405180910390fd5b6113776000611db6565b565b6000600b60009054906101000a900473ffffffffffffffffffffffffffffffffffffffff16905090565b6060600180546113b2906142c5565b80601f01602080910402602001604051908101604052809291908181526020018280546113de906142c5565b801561142b5780601f106114005761010080835404028352916020019161142b565b820191906000526020600020905b81548152906001019060200180831161140e57829003601f168201915b5050505050905090565b61144761144061179a565b8383611e7c565b5050565b6000600d60008373ffffffffffffffffffffffffffffffffffffffff1673ffffffffffffffffffffffffffffffffffffffff168152602001908152602001600020549050919050565b6114a561149f61179a565b8361185b565b6114e4576040517f08c379a00000000000000000000000000000000000000000000000000000000081526004016114db90613f8b565b60405180910390fd5b6114f084848484611fe9565b50505050565b606061150182612045565b9050919050565b60606040518060800160405280604a8152602001614b79604a9139905090565b6000600560008473ffffffffffffffffffffffffffffffffffffffff1673ffffffffffffffffffffffffffffffffffffffff16815260200190815260200160002060008373ffffffffffffffffffffffffffffffffffffffff1673ffffffffffffffffffffffffffffffffffffffff16815260200190815260200160002060009054906101000a900460ff16905092915050565b6115c461179a565b73ffffffffffffffffffffffffffffffffffffffff166115e2611379565b73ffffffffffffffffffffffffffffffffffffffff1614611638576040517f08c379a000000000000000000000000000000000000000000000000000000000815260040161162f90613ecb565b60405180910390fd5b600073ffffffffffffffffffffffffffffffffffffffff168173ffffffffffffffffffffffffffffffffffffffff1614156116a8576040517f08c379a000000000000000000000000000000000000000000000000000000000815260040161169f90613d0b565b60405180910390fd5b6116b181611db6565b50565b60007f780e9d63000000000000000000000000000000000000000000000000000000007bffffffffffffffffffffffffffffffffffffffffffffffffffffffff1916827bffffffffffffffffffffffffffffffffffffffffffffffffffffffff19161480611727575061172682612197565b5b9050919050565b60008073ffffffffffffffffffffffffffffffffffffffff166002600084815260200190815260200160002060009054906101000a900473ffffffffffffffffffffffffffffffffffffffff1673ffffffffffffffffffffffffffffffffffffffff1614159050919050565b600033905090565b816004600083815260200190815260200160002060006101000a81548173ffffffffffffffffffffffffffffffffffffffff021916908373ffffffffffffffffffffffffffffffffffffffff160217905550808273ffffffffffffffffffffffffffffffffffffffff1661181583610ec7565b73ffffffffffffffffffffffffffffffffffffffff167f8c5be1e5ebec7d5bd14f71427d1e84f3dd0314c0f7b2291e5b200ac8c7c3b92560405160405180910390a45050565b60006118668261172e565b6118a5576040517f08c379a000000000000000000000000000000000000000000000000000000000815260040161189c90613d8b565b60405180910390fd5b60006118b083610ec7565b90508073ffffffffffffffffffffffffffffffffffffffff168473ffffffffffffffffffffffffffffffffffffffff16148061191f57508373ffffffffffffffffffffffffffffffffffffffff166119078461090e565b73ffffffffffffffffffffffffffffffffffffffff16145b80611930575061192f8185611528565b5b91505092915050565b8273ffffffffffffffffffffffffffffffffffffffff1661195982610ec7565b73ffffffffffffffffffffffffffffffffffffffff16146119af576040517f08c379a00000000000000000000000000000000000000000000000000000000081526004016119a690613f0b565b60405180910390fd5b600073ffffffffffffffffffffffffffffffffffffffff168273ffffffffffffffffffffffffffffffffffffffff161415611a1f576040517f08c379a0000000000000000000000000000000000000000000000000000000008152600401611a1690613d4b565b60405180910390fd5b611a2a838383612279565b611a356000826117a2565b6001600360008573ffffffffffffffffffffffffffffffffffffffff1673ffffffffffffffffffffffffffffffffffffffff1681526020019081526020016000206000828254611a8591906141db565b925050819055506001600360008473ffffffffffffffffffffffffffffffffffffffff1673ffffffffffffffffffffffffffffffffffffffff1681526020019081526020016000206000828254611adc91906140fa565b92505081905550816002600083815260200190815260200160002060006101000a81548173ffffffffffffffffffffffffffffffffffffffff021916908373ffffffffffffffffffffffffffffffffffffffff160217905550808273ffffffffffffffffffffffffffffffffffffffff168473ffffffffffffffffffffffffffffffffffffffff167fddf252ad1be2c89b69c2b068fc378daa952ba7f163c4a11628f55a4df523b3ef60405160405180910390a4505050565b6001816000016000828254019250508190555050565b600081600001549050919050565b611bd38282604051806020016040528060008152506122c9565b5050565b611be08261172e565b611c1f576040517f08c379a0000000000000000000000000000000000000000000000000000000008152600401611c1690613e0b565b60405180910390fd5b80600a60008481526020019081526020016000209080519060200190611c46929190613188565b505050565b80600c600084815260200190815260200160002060006101000a81548173ffffffffffffffffffffffffffffffffffffffff021916908373ffffffffffffffffffffffffffffffffffffffff1602179055506000600d60008373ffffffffffffffffffffffffffffffffffffffff1673ffffffffffffffffffffffffffffffffffffffff1681526020019081526020016000205490506001600d60008473ffffffffffffffffffffffffffffffffffffffff1673ffffffffffffffffffffffffffffffffffffffff1681526020019081526020016000206000828254611d3191906140fa565b9250508190555082600e60008473ffffffffffffffffffffffffffffffffffffffff1673ffffffffffffffffffffffffffffffffffffffff16815260200190815260200160002060008381526020019081526020016000208190555080600f600085815260200190815260200160002081905550505050565b611db381612324565b50565b6000600b60009054906101000a900473ffffffffffffffffffffffffffffffffffffffff16905081600b60006101000a81548173ffffffffffffffffffffffffffffffffffffffff021916908373ffffffffffffffffffffffffffffffffffffffff1602179055508173ffffffffffffffffffffffffffffffffffffffff168173ffffffffffffffffffffffffffffffffffffffff167f8be0079c531659141344cd1fd0a4f28419497f9722a3daafe3b4186f6b6457e060405160405180910390a35050565b8173ffffffffffffffffffffffffffffffffffffffff168373ffffffffffffffffffffffffffffffffffffffff161415611eeb576040517f08c379a0000000000000000000000000000000000000000000000000000000008152600401611ee290613d6b565b60405180910390fd5b80600560008573ffffffffffffffffffffffffffffffffffffffff1673ffffffffffffffffffffffffffffffffffffffff16815260200190815260200160002060008473ffffffffffffffffffffffffffffffffffffffff1673ffffffffffffffffffffffffffffffffffffffff16815260200190815260200160002060006101000a81548160ff0219169083151502179055508173ffffffffffffffffffffffffffffffffffffffff168373ffffffffffffffffffffffffffffffffffffffff167f17307eab39ab6107e8899845ad3d59bd9653f200f220920489ca2b5937696c3183604051611fdc9190613c6e565b60405180910390a3505050565b611ff4848484611939565b61200084848484612377565b61203f576040517f08c379a000000000000000000000000000000000000000000000000000000000815260040161203690613ceb565b60405180910390fd5b50505050565b60606120508261172e565b61208f576040517f08c379a000000000000000000000000000000000000000000000000000000000815260040161208690613e4b565b60405180910390fd5b6000600a600084815260200190815260200160002080546120af906142c5565b80601f01602080910402602001604051908101604052809291908181526020018280546120db906142c5565b80156121285780601f106120fd57610100808354040283529160200191612128565b820191906000526020600020905b81548152906001019060200180831161210b57829003601f168201915b50505050509050600061213961250e565b905060008151141561214f578192505050612192565b60008251111561218457808260405160200161216c929190613bc1565b60405160208183030381529060405292505050612192565b61218d84612525565b925050505b919050565b60007f80ac58cd000000000000000000000000000000000000000000000000000000007bffffffffffffffffffffffffffffffffffffffffffffffffffffffff1916827bffffffffffffffffffffffffffffffffffffffffffffffffffffffff1916148061226257507f5b5e139f000000000000000000000000000000000000000000000000000000007bffffffffffffffffffffffffffffffffffffffffffffffffffffffff1916827bffffffffffffffffffffffffffffffffffffffffffffffffffffffff1916145b806122725750612271826125cc565b5b9050919050565b600073ffffffffffffffffffffffffffffffffffffffff168273ffffffffffffffffffffffffffffffffffffffff1614156122b9576122b88382612636565b5b6122c4838383612821565b505050565b6122d38383612935565b6122e06000848484612377565b61231f576040517f08c379a000000000000000000000000000000000000000000000000000000000815260040161231690613ceb565b60405180910390fd5b505050565b61232d81612b03565b6000600a6000838152602001908152602001600020805461234d906142c5565b90501461237457600a60008281526020019081526020016000206000612373919061320e565b5b50565b60006123988473ffffffffffffffffffffffffffffffffffffffff16612c14565b15612501578373ffffffffffffffffffffffffffffffffffffffff1663150b7a026123c161179a565b8786866040518563ffffffff1660e01b81526004016123e39493929190613c00565b602060405180830381600087803b1580156123fd57600080fd5b505af192505050801561242e57506040513d601f19601f8201168201806040525081019061242b91906135c3565b60015b6124b1573d806000811461245e576040519150601f19603f3d011682016040523d82523d6000602084013e612463565b606091505b506000815114156124a9576040517f08c379a00000000000000000000000000000000000000000000000000000000081526004016124a090613ceb565b60405180910390fd5b805181602001fd5b63150b7a0260e01b7bffffffffffffffffffffffffffffffffffffffffffffffffffffffff1916817bffffffffffffffffffffffffffffffffffffffffffffffffffffffff191614915050612506565b600190505b949350505050565b606060405180602001604052806000815250905090565b60606125308261172e565b61256f576040517f08c379a000000000000000000000000000000000000000000000000000000000815260040161256690613f2b565b60405180910390fd5b600061257961250e565b9050600081511161259957604051806020016040528060008152506125c4565b806125a384612c27565b6040516020016125b4929190613bc1565b6040516020818303038152906040525b915050919050565b60007f01ffc9a7000000000000000000000000000000000000000000000000000000007bffffffffffffffffffffffffffffffffffffffffffffffffffffffff1916827bffffffffffffffffffffffffffffffffffffffffffffffffffffffff1916149050919050565b6001600d60008473ffffffffffffffffffffffffffffffffffffffff1673ffffffffffffffffffffffffffffffffffffffff168152602001908152602001600020600082825461268691906141db565b925050819055506000600f60008381526020019081526020016000205490506000600d60008573ffffffffffffffffffffffffffffffffffffffff1673ffffffffffffffffffffffffffffffffffffffff1681526020019081526020016000205490506000600e60008673ffffffffffffffffffffffffffffffffffffffff1673ffffffffffffffffffffffffffffffffffffffff16815260200190815260200160002060008381526020019081526020016000205490506000600f60008681526020019081526020016000208190555082600f60008381526020019081526020016000208190555080600e60008773ffffffffffffffffffffffffffffffffffffffff1673ffffffffffffffffffffffffffffffffffffffff1681526020019081526020016000206000858152602001908152602001600020819055506000600e60008773ffffffffffffffffffffffffffffffffffffffff1673ffffffffffffffffffffffffffffffffffffffff1681526020019081526020016000206000848152602001908152602001600020819055505050505050565b61282c838383612dd4565b600073ffffffffffffffffffffffffffffffffffffffff168373ffffffffffffffffffffffffffffffffffffffff16141561286f5761286a81612dd9565b6128ae565b8173ffffffffffffffffffffffffffffffffffffffff168373ffffffffffffffffffffffffffffffffffffffff16146128ad576128ac8382612e22565b5b5b600073ffffffffffffffffffffffffffffffffffffffff168273ffffffffffffffffffffffffffffffffffffffff1614156128f1576128ec81612f8f565b612930565b8273ffffffffffffffffffffffffffffffffffffffff168273ffffffffffffffffffffffffffffffffffffffff161461292f5761292e82826130d2565b5b5b505050565b600073ffffffffffffffffffffffffffffffffffffffff168273ffffffffffffffffffffffffffffffffffffffff1614156129a5576040517f08c379a000000000000000000000000000000000000000000000000000000000815260040161299c90613e2b565b60405180910390fd5b6129ae8161172e565b156129ee576040517f08c379a00000000000000000000000000000000000000000000000000000000081526004016129e590613d2b565b60405180910390fd5b6129fa60008383612279565b6001600360008473ffffffffffffffffffffffffffffffffffffffff1673ffffffffffffffffffffffffffffffffffffffff1681526020019081526020016000206000828254612a4a91906140fa565b92505081905550816002600083815260200190815260200160002060006101000a81548173ffffffffffffffffffffffffffffffffffffffff021916908373ffffffffffffffffffffffffffffffffffffffff160217905550808273ffffffffffffffffffffffffffffffffffffffff16600073ffffffffffffffffffffffffffffffffffffffff167fddf252ad1be2c89b69c2b068fc378daa952ba7f163c4a11628f55a4df523b3ef60405160405180910390a45050565b6000612b0e82610ec7565b9050612b1c81600084612279565b612b276000836117a2565b6001600360008373ffffffffffffffffffffffffffffffffffffffff1673ffffffffffffffffffffffffffffffffffffffff1681526020019081526020016000206000828254612b7791906141db565b925050819055506002600083815260200190815260200160002060006101000a81549073ffffffffffffffffffffffffffffffffffffffff021916905581600073ffffffffffffffffffffffffffffffffffffffff168273ffffffffffffffffffffffffffffffffffffffff167fddf252ad1be2c89b69c2b068fc378daa952ba7f163c4a11628f55a4df523b3ef60405160405180910390a45050565b600080823b905060008111915050919050565b60606000821415612c6f576040518060400160405280600181526020017f30000000000000000000000000000000000000000000000000000000000000008152509050612dcf565b600082905060005b60008214612ca1578080612c8a90614328565b915050600a82612c9a9190614150565b9150612c77565b60008167ffffffffffffffff811115612ce3577f4e487b7100000000000000000000000000000000000000000000000000000000600052604160045260246000fd5b6040519080825280601f01601f191660200182016040528015612d155781602001600182028036833780820191505090505b5090505b60008514612dc857600182612d2e91906141db565b9150600a85612d3d9190614371565b6030612d4991906140fa565b60f81b818381518110612d85577f4e487b7100000000000000000000000000000000000000000000000000000000600052603260045260246000fd5b60200101907effffffffffffffffffffffffffffffffffffffffffffffffffffffffffffff1916908160001a905350600a85612dc19190614150565b9450612d19565b8093505050505b919050565b505050565b6008805490506009600083815260200190815260200160002081905550600881908060018154018082558091505060019003906000526020600020016000909190919091505550565b60006001612e2f84611239565b612e3991906141db565b9050600060076000848152602001908152602001600020549050818114612f1e576000600660008673ffffffffffffffffffffffffffffffffffffffff1673ffffffffffffffffffffffffffffffffffffffff168152602001908152602001600020600084815260200190815260200160002054905080600660008773ffffffffffffffffffffffffffffffffffffffff1673ffffffffffffffffffffffffffffffffffffffff168152602001908152602001600020600084815260200190815260200160002081905550816007600083815260200190815260200160002081905550505b6007600084815260200190815260200160002060009055600660008573ffffffffffffffffffffffffffffffffffffffff1673ffffffffffffffffffffffffffffffffffffffff16815260200190815260200160002060008381526020019081526020016000206000905550505050565b60006001600880549050612fa391906141db565b9050600060096000848152602001908152602001600020549050600060088381548110612ff9577f4e487b7100000000000000000000000000000000000000000000000000000000600052603260045260246000fd5b906000526020600020015490508060088381548110613041577f4e487b7100000000000000000000000000000000000000000000000000000000600052603260045260246000fd5b9060005260206000200181905550816009600083815260200190815260200160002081905550600960008581526020019081526020016000206000905560088054806130b6577f4e487b7100000000000000000000000000000000000000000000000000000000600052603160045260246000fd5b6001900381819060005260206000200160009055905550505050565b60006130dd83611239565b905081600660008573ffffffffffffffffffffffffffffffffffffffff1673ffffffffffffffffffffffffffffffffffffffff168152602001908152602001600020600083815260200190815260200160002081905550806007600084815260200190815260200160002081905550505050565b60405180606001604052806000815260200160608152602001600073ffffffffffffffffffffffffffffffffffffffff1681525090565b828054613194906142c5565b90600052602060002090601f0160209004810192826131b657600085556131fd565b82601f106131cf57805160ff19168380011785556131fd565b828001600101855582156131fd579182015b828111156131fc5782518255916020019190600101906131e1565b5b50905061320a919061324e565b5090565b50805461321a906142c5565b6000825580601f1061322c575061324b565b601f01602090049060005260206000209081019061324a919061324e565b5b50565b5b8082111561326757600081600090555060010161324f565b5090565b600061327e6132798461400b565b613fe6565b90508281526020810184848401111561329657600080fd5b6132a1848285614283565b509392505050565b60006132bc6132b78461403c565b613fe6565b9050828152602081018484840111156132d457600080fd5b6132df848285614283565b509392505050565b6000813590506132f681614b1c565b92915050565b60008135905061330b81614b33565b92915050565b60008135905061332081614b4a565b92915050565b60008151905061333581614b4a565b92915050565b600082601f83011261334c57600080fd5b813561335c84826020860161326b565b91505092915050565b600082601f83011261337657600080fd5b81356133868482602086016132a9565b91505092915050565b60008135905061339e81614b61565b92915050565b6000602082840312156133b657600080fd5b60006133c4848285016132e7565b91505092915050565b600080604083850312156133e057600080fd5b60006133ee858286016132e7565b92505060206133ff858286016132e7565b9150509250929050565b60008060006060848603121561341e57600080fd5b600061342c868287016132e7565b935050602061343d868287016132e7565b925050604061344e8682870161338f565b9150509250925092565b6000806000806080858703121561346e57600080fd5b600061347c878288016132e7565b945050602061348d878288016132e7565b935050604061349e8782880161338f565b925050606085013567ffffffffffffffff8111156134bb57600080fd5b6134c78782880161333b565b91505092959194509250565b600080604083850312156134e657600080fd5b60006134f4858286016132e7565b9250506020613505858286016132fc565b9150509250929050565b6000806040838503121561352257600080fd5b6000613530858286016132e7565b92505060206135418582860161338f565b9150509250929050565b60008060006060848603121561356057600080fd5b600061356e868287016132e7565b935050602061357f8682870161338f565b92505060406135908682870161338f565b9150509250925092565b6000602082840312156135ac57600080fd5b60006135ba84828501613311565b91505092915050565b6000602082840312156135d557600080fd5b60006135e384828501613326565b91505092915050565b6000602082840312156135fe57600080fd5b600082013567ffffffffffffffff81111561361857600080fd5b61362484828501613365565b91505092915050565b60006020828403121561363f57600080fd5b600061364d8482850161338f565b91505092915050565b60006136628383613b53565b905092915050565b6136738161420f565b82525050565b6136828161420f565b82525050565b60006136938261407d565b61369d81856140ab565b9350836020820285016136af8561406d565b8060005b858110156136eb57848403895281516136cc8582613656565b94506136d78361409e565b925060208a019950506001810190506136b3565b50829750879550505050505092915050565b61370681614221565b82525050565b600061371782614088565b61372181856140bc565b9350613731818560208601614292565b61373a8161445e565b840191505092915050565b600061375082614093565b61375a81856140cd565b935061376a818560208601614292565b6137738161445e565b840191505092915050565b600061378982614093565b61379381856140de565b93506137a3818560208601614292565b6137ac8161445e565b840191505092915050565b60006137c282614093565b6137cc81856140ef565b93506137dc818560208601614292565b80840191505092915050565b60006137f56017836140de565b91506138008261446f565b602082019050919050565b6000613818602b836140de565b915061382382614498565b604082019050919050565b600061383b6032836140de565b9150613846826144e7565b604082019050919050565b600061385e6026836140de565b915061386982614536565b604082019050919050565b6000613881601c836140de565b915061388c82614585565b602082019050919050565b60006138a46024836140de565b91506138af826145ae565b604082019050919050565b60006138c76019836140de565b91506138d2826145fd565b602082019050919050565b60006138ea602c836140de565b91506138f582614626565b604082019050919050565b600061390d6038836140de565b915061391882614675565b604082019050919050565b6000613930602a836140de565b915061393b826146c4565b604082019050919050565b60006139536029836140de565b915061395e82614713565b604082019050919050565b6000613976602e836140de565b915061398182614762565b604082019050919050565b60006139996020836140de565b91506139a4826147b1565b602082019050919050565b60006139bc6031836140de565b91506139c7826147da565b604082019050919050565b60006139df601b836140de565b91506139ea82614829565b602082019050919050565b6000613a02602c836140de565b9150613a0d82614852565b604082019050919050565b6000613a256012836140de565b9150613a30826148a1565b602082019050919050565b6000613a486020836140de565b9150613a53826148ca565b602082019050919050565b6000613a6b6026836140de565b9150613a76826148f3565b604082019050919050565b6000613a8e6029836140de565b9150613a9982614942565b604082019050919050565b6000613ab1602f836140de565b9150613abc82614991565b604082019050919050565b6000613ad46021836140de565b9150613adf826149e0565b604082019050919050565b6000613af76028836140de565b9150613b0282614a2f565b604082019050919050565b6000613b1a6031836140de565b9150613b2582614a7e565b604082019050919050565b6000613b3d602c836140de565b9150613b4882614acd565b604082019050919050565b6000606083016000830151613b6b6000860182613ba3565b5060208301518482036020860152613b838282613745565b9150506040830151613b98604086018261366a565b508091505092915050565b613bac81614279565b82525050565b613bbb81614279565b82525050565b6000613bcd82856137b7565b9150613bd982846137b7565b91508190509392505050565b6000602082019050613bfa6000830184613679565b92915050565b6000608082019050613c156000830187613679565b613c226020830186613679565b613c2f6040830185613bb2565b8181036060830152613c41818461370c565b905095945050505050565b60006020820190508181036000830152613c668184613688565b905092915050565b6000602082019050613c8360008301846136fd565b92915050565b60006020820190508181036000830152613ca3818461377e565b905092915050565b60006020820190508181036000830152613cc4816137e8565b9050919050565b60006020820190508181036000830152613ce48161380b565b9050919050565b60006020820190508181036000830152613d048161382e565b9050919050565b60006020820190508181036000830152613d2481613851565b9050919050565b60006020820190508181036000830152613d4481613874565b9050919050565b60006020820190508181036000830152613d6481613897565b9050919050565b60006020820190508181036000830152613d84816138ba565b9050919050565b60006020820190508181036000830152613da4816138dd565b9050919050565b60006020820190508181036000830152613dc481613900565b9050919050565b60006020820190508181036000830152613de481613923565b9050919050565b60006020820190508181036000830152613e0481613946565b9050919050565b60006020820190508181036000830152613e2481613969565b9050919050565b60006020820190508181036000830152613e448161398c565b9050919050565b60006020820190508181036000830152613e64816139af565b9050919050565b60006020820190508181036000830152613e84816139d2565b9050919050565b60006020820190508181036000830152613ea4816139f5565b9050919050565b60006020820190508181036000830152613ec481613a18565b9050919050565b60006020820190508181036000830152613ee481613a3b565b9050919050565b60006020820190508181036000830152613f0481613a5e565b9050919050565b60006020820190508181036000830152613f2481613a81565b9050919050565b60006020820190508181036000830152613f4481613aa4565b9050919050565b60006020820190508181036000830152613f6481613ac7565b9050919050565b60006020820190508181036000830152613f8481613aea565b9050919050565b60006020820190508181036000830152613fa481613b0d565b9050919050565b60006020820190508181036000830152613fc481613b30565b9050919050565b6000602082019050613fe06000830184613bb2565b92915050565b6000613ff0614001565b9050613ffc82826142f7565b919050565b6000604051905090565b600067ffffffffffffffff8211156140265761402561442f565b5b61402f8261445e565b9050602081019050919050565b600067ffffffffffffffff8211156140575761405661442f565b5b6140608261445e565b9050602081019050919050565b6000819050602082019050919050565b600081519050919050565b600081519050919050565b600081519050919050565b6000602082019050919050565b600082825260208201905092915050565b600082825260208201905092915050565b600082825260208201905092915050565b600082825260208201905092915050565b600081905092915050565b600061410582614279565b915061411083614279565b9250827fffffffffffffffffffffffffffffffffffffffffffffffffffffffffffffffff03821115614145576141446143a2565b5b828201905092915050565b600061415b82614279565b915061416683614279565b925082614176576141756143d1565b5b828204905092915050565b600061418c82614279565b915061419783614279565b9250817fffffffffffffffffffffffffffffffffffffffffffffffffffffffffffffffff04831182151516156141d0576141cf6143a2565b5b828202905092915050565b60006141e682614279565b91506141f183614279565b925082821015614204576142036143a2565b5b828203905092915050565b600061421a82614259565b9050919050565b60008115159050919050565b60007fffffffff0000000000000000000000000000000000000000000000000000000082169050919050565b600073ffffffffffffffffffffffffffffffffffffffff82169050919050565b6000819050919050565b82818337600083830152505050565b60005b838110156142b0578082015181840152602081019050614295565b838111156142bf576000848401525b50505050565b600060028204905060018216806142dd57607f821691505b602082108114156142f1576142f0614400565b5b50919050565b6143008261445e565b810181811067ffffffffffffffff8211171561431f5761431e61442f565b5b80604052505050565b600061433382614279565b91507fffffffffffffffffffffffffffffffffffffffffffffffffffffffffffffffff821415614366576143656143a2565b5b600182019050919050565b600061437c82614279565b915061438783614279565b925082614397576143966143d1565b5b828206905092915050565b7f4e487b7100000000000000000000000000000000000000000000000000000000600052601160045260246000fd5b7f4e487b7100000000000000000000000000000000000000000000000000000000600052601260045260246000fd5b7f4e487b7100000000000000000000000000000000000000000000000000000000600052602260045260246000fd5b7f4e487b7100000000000000000000000000000000000000000000000000000000600052604160045260246000fd5b6000601f19601f8301169050919050565b7f706167652073697a65206f7574206f6620626f756e6473000000000000000000600082015250565b7f455243373231456e756d657261626c653a206f776e657220696e646578206f7560008201527f74206f6620626f756e6473000000000000000000000000000000000000000000602082015250565b7f4552433732313a207472616e7366657220746f206e6f6e20455243373231526560008201527f63656976657220696d706c656d656e7465720000000000000000000000000000602082015250565b7f4f776e61626c653a206e6577206f776e657220697320746865207a65726f206160008201527f6464726573730000000000000000000000000000000000000000000000000000602082015250565b7f4552433732313a20746f6b656e20616c7265616479206d696e74656400000000600082015250565b7f4552433732313a207472616e7366657220746f20746865207a65726f2061646460008201527f7265737300000000000000000000000000000000000000000000000000000000602082015250565b7f4552433732313a20617070726f766520746f2063616c6c657200000000000000600082015250565b7f4552433732313a206f70657261746f7220717565727920666f72206e6f6e657860008201527f697374656e7420746f6b656e0000000000000000000000000000000000000000602082015250565b7f4552433732313a20617070726f76652063616c6c6572206973206e6f74206f7760008201527f6e6572206e6f7220617070726f76656420666f7220616c6c0000000000000000602082015250565b7f4552433732313a2062616c616e636520717565727920666f7220746865207a6560008201527f726f206164647265737300000000000000000000000000000000000000000000602082015250565b7f4552433732313a206f776e657220717565727920666f72206e6f6e657869737460008201527f656e7420746f6b656e0000000000000000000000000000000000000000000000602082015250565b7f45524337323155524953746f726167653a2055524920736574206f66206e6f6e60008201527f6578697374656e7420746f6b656e000000000000000000000000000000000000602082015250565b7f4552433732313a206d696e7420746f20746865207a65726f2061646472657373600082015250565b7f45524337323155524953746f726167653a2055524920717565727920666f722060008201527f6e6f6e6578697374656e7420746f6b656e000000000000000000000000000000602082015250565b7f63726561746f7220696e646578206f7574206f6620626f756e64730000000000600082015250565b7f4552433732313a20617070726f76656420717565727920666f72206e6f6e657860008201527f697374656e7420746f6b656e0000000000000000000000000000000000000000602082015250565b7f70616765206f7574206f6620626f756e64730000000000000000000000000000600082015250565b7f4f776e61626c653a2063616c6c6572206973206e6f7420746865206f776e6572600082015250565b7f4d75737420626520746865206f776e6572206f662074686520746f6b656e207460008201527f6f206275726e0000000000000000000000000000000000000000000000000000602082015250565b7f4552433732313a207472616e73666572206f6620746f6b656e2074686174206960008201527f73206e6f74206f776e0000000000000000000000000000000000000000000000602082015250565b7f4552433732314d657461646174613a2055524920717565727920666f72206e6f60008201527f6e6578697374656e7420746f6b656e0000000000000000000000000000000000602082015250565b7f4552433732313a20617070726f76616c20746f2063757272656e74206f776e6560008201527f7200000000000000000000000000000000000000000000000000000000000000602082015250565b7f4d757374206265207468652063726561746f72206f662074686520746f6b656e60008201527f20746f206275726e000000000000000000000000000000000000000000000000602082015250565b7f4552433732313a207472616e736665722063616c6c6572206973206e6f74206f60008201527f776e6572206e6f7220617070726f766564000000000000000000000000000000602082015250565b7f455243373231456e756d657261626c653a20676c6f62616c20696e646578206f60008201527f7574206f6620626f756e64730000000000000000000000000000000000000000602082015250565b614b258161420f565b8114614b3057600080fd5b50565b614b3c81614221565b8114614b4757600080fd5b50565b614b538161422d565b8114614b5e57600080fd5b50565b614b6a81614279565b8114614b7557600080fd5b5056fe68747470733a2f2f697066732e696e667572612e696f2f697066732f516d59346161566d506f414753464c325744534a3858393443576851655572716558555779343148536e6f387362a264697066735822122074db81b0d6d92b1d7374e156276c3538420f39507ffaadd6a1f2d715d6d3599a64736f6c63430008040033",
  "linkReferences": {},
  "deployedLinkReferences": {}
}